{"contracts/CrowdHelp.sol":{"Campaign":{"abi":[{"inputs":[{"internalType":"address","name":"_creator","type":"address"},{"internalType":"uint256","name":"_minimumContribution","type":"uint256"},{"internalType":"uint256","name":"_deadline","type":"uint256"},{"internalType":"uint256","name":"_targetContribution","type":"uint256"},{"internalType":"string","name":"_projectTitle","type":"string"},{"internalType":"string","name":"_projectDes","type":"string"},{"internalType":"string","name":"_bannerUrl","type":"string"},{"internalType":"uint256","name":"_campaignSchemeId","type":"uint256"}],"stateMutability":"nonpayable","type":"constructor"},{"anonymous":false,"inputs":[{"indexed":false,"internalType":"address","name":"contributor","type":"address"},{"indexed":false,"internalType":"uint256","name":"amountTotal","type":"uint256"}],"name":"AmountCredited","type":"event"},{"anonymous":false,"inputs":[{"indexed":false,"internalType":"uint256","name":"noOfContributors","type":"uint256"},{"indexed":false,"internalType":"uint256","name":"amountTotal","type":"uint256"}],"name":"AmountRefunded","type":"event"},{"anonymous":false,"inputs":[{"indexed":false,"internalType":"address","name":"contributor","type":"address"},{"indexed":false,"internalType":"uint256","name":"amount","type":"uint256"},{"indexed":false,"internalType":"uint256","name":"currentTotal","type":"uint256"}],"name":"FundingReceived","type":"event"},{"inputs":[],"name":"SCHEMES_COUNT","outputs":[{"internalType":"uint256","name":"","type":"uint256"}],"stateMutability":"view","type":"function"},{"inputs":[],"name":"abortCampaignAndRefund","outputs":[],"stateMutability":"payable","type":"function"},{"inputs":[],"name":"bannerUrl","outputs":[{"internalType":"string","name":"","type":"string"}],"stateMutability":"view","type":"function"},{"inputs":[],"name":"campaignSchemeId","outputs":[{"internalType":"enum Campaign.CampaignSchemeId","name":"","type":"uint8"}],"stateMutability":"view","type":"function"},{"inputs":[],"name":"contribute","outputs":[],"stateMutability":"payable","type":"function"},{"inputs":[],"name":"creator","outputs":[{"internalType":"address payable","name":"","type":"address"}],"stateMutability":"view","type":"function"},{"inputs":[],"name":"deadline","outputs":[{"internalType":"uint256","name":"","type":"uint256"}],"stateMutability":"view","type":"function"},{"inputs":[],"name":"endCampaignAndCredit","outputs":[],"stateMutability":"payable","type":"function"},{"inputs":[],"name":"getAllSchemeTitles","outputs":[{"internalType":"string[]","name":"","type":"string[]"}],"stateMutability":"pure","type":"function"},{"inputs":[],"name":"getCampaignSummary","outputs":[{"internalType":"address payable","name":"projectStarter","type":"address"},{"internalType":"uint256","name":"minContribution","type":"uint256"},{"internalType":"uint256","name":"projectDeadline","type":"uint256"},{"internalType":"uint256","name":"goalAmount","type":"uint256"},{"internalType":"uint256","name":"completedTime","type":"uint256"},{"internalType":"uint256","name":"currentAmount","type":"uint256"},{"internalType":"string","name":"title","type":"string"},{"internalType":"string","name":"desc","type":"string"},{"internalType":"enum Campaign.State","name":"currentState","type":"uint8"},{"internalType":"uint256","name":"balance","type":"uint256"},{"internalType":"string","name":"imageUrl","type":"string"},{"internalType":"uint256","name":"numBackers","type":"uint256"},{"internalType":"uint256","name":"schemeId","type":"uint256"}],"stateMutability":"view","type":"function"},{"inputs":[],"name":"getContractBalance","outputs":[{"internalType":"uint256","name":"","type":"uint256"}],"stateMutability":"view","type":"function"},{"inputs":[{"internalType":"uint256","name":"idx","type":"uint256"}],"name":"getSchemeTitle","outputs":[{"internalType":"string","name":"title","type":"string"}],"stateMutability":"pure","type":"function"},{"inputs":[],"name":"minimumContribution","outputs":[{"internalType":"uint256","name":"","type":"uint256"}],"stateMutability":"view","type":"function"},{"inputs":[],"name":"noOfContributors","outputs":[{"internalType":"uint256","name":"","type":"uint256"}],"stateMutability":"view","type":"function"},{"inputs":[],"name":"projectDes","outputs":[{"internalType":"string","name":"","type":"string"}],"stateMutability":"view","type":"function"},{"inputs":[],"name":"projectTitle","outputs":[{"internalType":"string","name":"","type":"string"}],"stateMutability":"view","type":"function"},{"inputs":[],"name":"raisedAmount","outputs":[{"internalType":"uint256","name":"","type":"uint256"}],"stateMutability":"view","type":"function"},{"inputs":[],"name":"reachedTargetAt","outputs":[{"internalType":"uint256","name":"","type":"uint256"}],"stateMutability":"view","type":"function"},{"inputs":[],"name":"state","outputs":[{"internalType":"enum Campaign.State","name":"","type":"uint8"}],"stateMutability":"view","type":"function"},{"inputs":[],"name":"targetContribution","outputs":[{"internalType":"uint256","name":"","type":"uint256"}],"stateMutability":"view","type":"function"}],"devdoc":{"kind":"dev","methods":{},"version":1},"evm":{"bytecode":{"linkReferences":{},"object":"6080604052600a805460ff191690553480156200001a575f80fd5b50604051620015d5380380620015d58339810160408190526200003d916200022d565b5f80546001600160a01b0319166001600160a01b038a1617905560018790556002869055600385905560076200007485826200037e565b5060086200008384826200037e565b505f60055560096200009683826200037e565b50620000a281620000d6565b600a805461ff001916610100836001811115620000c357620000c362000144565b0217905550505050505050505062000446565b5f60028210620001215760405162461bcd60e51b8152602060048201526012602482015271496e646578206f7574206f662072616e676560701b604482015260640160405180910390fd5b816200012e57505f919050565b600182036200013f57506001919050565b919050565b634e487b7160e01b5f52602160045260245ffd5b80516001600160a01b03811681146200013f575f80fd5b634e487b7160e01b5f52604160045260245ffd5b5f82601f83011262000193575f80fd5b81516001600160401b0380821115620001b057620001b06200016f565b604051601f8301601f19908116603f01168101908282118183101715620001db57620001db6200016f565b81604052838152602092508683858801011115620001f7575f80fd5b5f91505b838210156200021a5785820183015181830184015290820190620001fb565b5f93810190920192909252949350505050565b5f805f805f805f80610100898b03121562000246575f80fd5b620002518962000158565b60208a015160408b015160608c015160808d0151939b50919950975095506001600160401b038082111562000284575f80fd5b620002928c838d0162000183565b955060a08b0151915080821115620002a8575f80fd5b620002b68c838d0162000183565b945060c08b0151915080821115620002cc575f80fd5b50620002db8b828c0162000183565b92505060e089015190509295985092959890939650565b600181811c908216806200030757607f821691505b6020821081036200032657634e487b7160e01b5f52602260045260245ffd5b50919050565b601f82111562000379575f81815260208120601f850160051c81016020861015620003545750805b601f850160051c820191505b81811015620003755782815560010162000360565b5050505b505050565b81516001600160401b038111156200039a576200039a6200016f565b620003b281620003ab8454620002f2565b846200032c565b602080601f831160018114620003e8575f8415620003d05750858301515b5f19600386901b1c1916600185901b17855562000375565b5f85815260208120601f198616915b828110156200041857888601518255948401946001909101908401620003f7565b50858210156200043657878501515f19600388901b60f8161c191681555b5050505050600190811b01905550565b61118180620004545f395ff3fe60806040526004361061011b575f3560e01c80638d27289e1161009d578063b82c86d611610062578063b82c86d6146102c1578063c19d93fb146102d6578063c3e20c9f146102fc578063c59ee1dc14610310578063d7bb99ba14610325575f80fd5b80638d27289e14610243578063937e09b11461024b5780639d43b9b514610260578063a00c96d714610275578063a66475a8146102a2575f80fd5b806356f78a32116100e357806356f78a32146101bd5780636b0bad19146101d15780636eef7d95146101f25780636f9fb98a1461021d5780637a9a80551461022f575f80fd5b806302d05d3f1461011f57806303c29d581461015a57806329dcb0cf1461017b5780633d0300bd1461019e5780634e260f6f146101a8575b5f80fd5b34801561012a575f80fd5b505f5461013d906001600160a01b031681565b6040516001600160a01b0390911681526020015b60405180910390f35b348015610165575f80fd5b5061016e61032d565b6040516101519190610ede565b348015610186575f80fd5b5061019060025481565b604051908152602001610151565b6101a66103b9565b005b3480156101b3575f80fd5b5061019060065481565b3480156101c8575f80fd5b50610190600281565b3480156101dc575f80fd5b506101e561058a565b6040516101519190610ef7565b3480156101fd575f80fd5b50600a5461021090610100900460ff1681565b6040516101519190610f6b565b348015610228575f80fd5b5047610190565b34801561023a575f80fd5b5061016e610604565b6101a6610611565b348015610256575f80fd5b5061019060015481565b34801561026b575f80fd5b5061019060045481565b348015610280575f80fd5b50610289610851565b6040516101519d9c9b9a99989796959493929190610f99565b3480156102ad575f80fd5b5061016e6102bc366004611034565b610a71565b3480156102cc575f80fd5b5061019060035481565b3480156102e1575f80fd5b50600a546102ef9060ff1681565b604051610151919061104b565b348015610307575f80fd5b5061016e610b47565b34801561031b575f80fd5b5061019060055481565b6101a6610b54565b6008805461033a9061105f565b80601f01602080910402602001604051908101604052809291908181526020018280546103669061105f565b80156103b15780601f10610388576101008083540402835291602001916103b1565b820191905f5260205f20905b81548152906001019060200180831161039457829003601f168201915b505050505081565b5f546001600160a01b031633146103eb5760405162461bcd60e51b81526004016103e290611091565b60405180910390fd5b6001600a5460ff16600381111561040457610404610f57565b1461048f5760405162461bcd60e51b815260206004820152604f60248201527f476f616c206e6f7420726561636865642c20616d6f756e742063616e6e6f742060448201527f62652077697468647261776e2e20506c656173652061626f727420746f20726560648201526e66756e6420746f206261636b65727360881b608482015260a4016103e2565b60025442106104f85760405162461bcd60e51b815260206004820152602f60248201527f43616d706169676e2063616e6e6f7420626520656e6465642c20646561646c6960448201526e3732903737ba103932b0b1b432b21760891b60648201526084016103e2565b5f80546005546040516001600160a01b039092169281156108fc029290818181858888f19350505050158015610530573d5f803e3d5ffd5b50600a805460ff191660021790555f54600554604080516001600160a01b03909316835260208301919091527fc364254574c58e1bdd9077b0e35e609ee391ca636748a275674d5fb5bdc1d3f691015b60405180910390a1565b60408051600280825260608281019093525f9190816020015b60608152602001906001900390816105a35790505090505f5b60028110156105fe576105ce81610a71565b8282815181106105e0576105e06110e1565b602002602001018190525080806105f690611109565b9150506105bc565b50919050565b6009805461033a9061105f565b5f546001600160a01b0316331461063a5760405162461bcd60e51b81526004016103e290611091565b60025442106106a05760405162461bcd60e51b815260206004820152602c60248201527f43616d706169676e2063616e6e6f742062652061626f727465642c206465616460448201526b3634b732903830b9b9b2b21760a11b60648201526084016103e2565b5f600a5460ff1660038111156106b8576106b8610f57565b14806106da57506001600a5460ff1660038111156106d8576106d8610f57565b145b6107345760405162461bcd60e51b815260206004820152602560248201527f496e76616c69642073746174652e2043616e6e6f742061626f72742063616d7060448201526430b4b3b71760d91b60648201526084016103e2565b5f5b60065481101561080657600b8181548110610753576107536110e1565b5f918252602090912060029091020154600b80546001600160a01b03909216916108fc919084908110610788576107886110e1565b905f5260205f2090600202016001015490811502906040515f60405180830381858888f193505050501580156107c0573d5f803e3d5ffd5b50600b81815481106107d4576107d46110e1565b5f9182526020822060029091020180546001600160a01b031916815560010155806107fe81611109565b915050610736565b50600a805460ff191660031790556006546005546040805192835260208301919091527fd69eae259b3e1e42f22f60a8a54dbf4d1983d006a10d5f36c068ccc87eb493919101610580565b5f8054600154600254600354600454600554600780546001600160a01b0390971697959694959394929391926060928392909182918491839182916108959061105f565b80601f01602080910402602001604051908101604052809291908181526020018280546108c19061105f565b801561090c5780601f106108e35761010080835404028352916020019161090c565b820191905f5260205f20905b8154815290600101906020018083116108ef57829003601f168201915b50505050509650600880546109209061105f565b80601f016020809104026020016040519081016040528092919081815260200182805461094c9061105f565b80156109975780601f1061096e57610100808354040283529160200191610997565b820191905f5260205f20905b81548152906001019060200180831161097a57829003601f168201915b5050600a5460098054959b5060ff9091169950479850936109bc9350915061105f9050565b80601f01602080910402602001604051908101604052809291908181526020018280546109e89061105f565b8015610a335780601f10610a0a57610100808354040283529160200191610a33565b820191905f5260205f20905b815481529060010190602001808311610a1657829003601f168201915b505050505092506006549150600a60019054906101000a900460ff166001811115610a6057610a60610f57565b9050909192939495969798999a9b9c565b606060028210610ab85760405162461bcd60e51b8152602060048201526012602482015271496e646578206f7574206f662072616e676560701b60448201526064016103e2565b81610ae757505060408051808201909152600e81526d416c6c206f72204e6f7468696e6760901b602082015290565b60018203610b1d57505060408051808201909152601281527148616c6620676f616c20776974686472617760701b602082015290565b505060408051808201909152600e81526d496e76616c696420736368656d6560901b602082015290565b6007805461033a9061105f565b5f600a5460ff166003811115610b6c57610b6c610f57565b1480610b8e57506001600a5460ff166003811115610b8c57610b8c610f57565b145b610bca5760405162461bcd60e51b815260206004820152600d60248201526c496e76616c696420737461746560981b60448201526064016103e2565b6002544210610c525760405162461bcd60e51b815260206004820152604860248201527f536f727279206261636b65722c20646561646c696e652068617320706173736560448201527f6421204e6f20636f6e747269627574696f6e732063616e2062652061636365706064820152673a32b2103737bb9760c11b608482015260a4016103e2565b600154341015610ca45760405162461bcd60e51b815260206004820181905260248201527f436f6e747269627574696f6e20616d6f756e7420697320746f6f206c6f77202160448201526064016103e2565b335f610caf82610e07565b90508019610d635760068054905f610cc683611109565b9091555050604080518082019091526001600160a01b0383811682523460208301908152600b80546001810182555f9190915292517f0175b7a638427703f0dbe7bb9bbf987a2551717b34e79f33b5b1008d1fa01db9600290940293840180546001600160a01b0319169190931617909155517f0175b7a638427703f0dbe7bb9bbf987a2551717b34e79f33b5b1008d1fa01dba90910155610d9a565b34600b8281548110610d7757610d776110e1565b905f5260205f2090600202016001015f828254610d949190611121565b90915550505b3460055f828254610dab9190611121565b9091555050600554604080516001600160a01b038516815234602082015280820192909252517f5cdc4ab8d637538ead6cc1904d4160343656c8c82bd266635cfd31ac008fffe09181900360600190a1610e03610e6d565b5050565b5f5f19815b600654811215610e6657600b8181548110610e2957610e296110e1565b5f9182526020909120600290910201546001600160a01b0390811690851603610e5457809150610e66565b80610e5e81611134565b915050610e0c565b5092915050565b60035460055410158015610e82575060025442105b15610e9957600a805460ff19166001179055426004555b565b5f81518084525f5b81811015610ebf57602081850181015186830182015201610ea3565b505f602082860101526020601f19601f83011685010191505092915050565b602081525f610ef06020830184610e9b565b9392505050565b5f602080830181845280855180835260408601915060408160051b87010192508387015f5b82811015610f4a57603f19888603018452610f38858351610e9b565b94509285019290850190600101610f1c565b5092979650505050505050565b634e487b7160e01b5f52602160045260245ffd5b6020810160028310610f7f57610f7f610f57565b91905290565b60048110610f9557610f95610f57565b9052565b60018060a01b038e1681528c60208201528b60408201528a60608201528960808201528860a08201526101a060c08201525f610fd96101a083018a610e9b565b82810360e0840152610feb818a610e9b565b9050610ffb610100840189610f85565b866101208401528281036101408401526110158187610e9b565b610160840195909552505061018001529b9a5050505050505050505050565b5f60208284031215611044575f80fd5b5035919050565b602081016110598284610f85565b92915050565b600181811c9082168061107357607f821691505b6020821081036105fe57634e487b7160e01b5f52602260045260245ffd5b60208082526030908201527f596f7520646f6e7420686176652061636365737320746f20706572666f726d2060408201526f74686973206f7065726174696f6e202160801b606082015260800190565b634e487b7160e01b5f52603260045260245ffd5b634e487b7160e01b5f52601160045260245ffd5b5f6001820161111a5761111a6110f5565b5060010190565b80820180821115611059576110596110f5565b5f6001600160ff1b01820161111a5761111a6110f556fea264697066735822122031871dffe7958f100d474b0011bd8db33457bc98594e863b6e96a173a85ede6164736f6c63430008150033","opcodes":"PUSH1 0x80 PUSH1 0x40 MSTORE PUSH1 0xA DUP1 SLOAD PUSH1 0xFF NOT AND SWAP1 SSTORE CALLVALUE DUP1 ISZERO PUSH3 0x1A JUMPI PUSH0 DUP1 REVERT JUMPDEST POP PUSH1 0x40 MLOAD PUSH3 0x15D5 CODESIZE SUB DUP1 PUSH3 0x15D5 DUP4 CODECOPY DUP2 ADD PUSH1 0x40 DUP2 SWAP1 MSTORE PUSH3 0x3D SWAP2 PUSH3 0x22D JUMP JUMPDEST PUSH0 DUP1 SLOAD PUSH1 0x1 PUSH1 0x1 PUSH1 0xA0 SHL SUB NOT AND PUSH1 0x1 PUSH1 0x1 PUSH1 0xA0 SHL SUB DUP11 AND OR SWAP1 SSTORE PUSH1 0x1 DUP8 SWAP1 SSTORE PUSH1 0x2 DUP7 SWAP1 SSTORE PUSH1 0x3 DUP6 SWAP1 SSTORE PUSH1 0x7 PUSH3 0x74 DUP6 DUP3 PUSH3 0x37E JUMP JUMPDEST POP PUSH1 0x8 PUSH3 0x83 DUP5 DUP3 PUSH3 0x37E JUMP JUMPDEST POP PUSH0 PUSH1 0x5 SSTORE PUSH1 0x9 PUSH3 0x96 DUP4 DUP3 PUSH3 0x37E JUMP JUMPDEST POP PUSH3 0xA2 DUP2 PUSH3 0xD6 JUMP JUMPDEST PUSH1 0xA DUP1 SLOAD PUSH2 0xFF00 NOT AND PUSH2 0x100 DUP4 PUSH1 0x1 DUP2 GT ISZERO PUSH3 0xC3 JUMPI PUSH3 0xC3 PUSH3 0x144 JUMP JUMPDEST MUL OR SWAP1 SSTORE POP POP POP POP POP POP POP POP POP PUSH3 0x446 JUMP JUMPDEST PUSH0 PUSH1 0x2 DUP3 LT PUSH3 0x121 JUMPI PUSH1 0x40 MLOAD PUSH3 0x461BCD PUSH1 0xE5 SHL DUP2 MSTORE PUSH1 0x20 PUSH1 0x4 DUP3 ADD MSTORE PUSH1 0x12 PUSH1 0x24 DUP3 ADD MSTORE PUSH18 0x496E646578206F7574206F662072616E6765 PUSH1 0x70 SHL PUSH1 0x44 DUP3 ADD MSTORE PUSH1 0x64 ADD PUSH1 0x40 MLOAD DUP1 SWAP2 SUB SWAP1 REVERT JUMPDEST DUP2 PUSH3 0x12E JUMPI POP PUSH0 SWAP2 SWAP1 POP JUMP JUMPDEST PUSH1 0x1 DUP3 SUB PUSH3 0x13F JUMPI POP PUSH1 0x1 SWAP2 SWAP1 POP JUMP JUMPDEST SWAP2 SWAP1 POP JUMP JUMPDEST PUSH4 0x4E487B71 PUSH1 0xE0 SHL PUSH0 MSTORE PUSH1 0x21 PUSH1 0x4 MSTORE PUSH1 0x24 PUSH0 REVERT JUMPDEST DUP1 MLOAD PUSH1 0x1 PUSH1 0x1 PUSH1 0xA0 SHL SUB DUP2 AND DUP2 EQ PUSH3 0x13F JUMPI PUSH0 DUP1 REVERT JUMPDEST PUSH4 0x4E487B71 PUSH1 0xE0 SHL PUSH0 MSTORE PUSH1 0x41 PUSH1 0x4 MSTORE PUSH1 0x24 PUSH0 REVERT JUMPDEST PUSH0 DUP3 PUSH1 0x1F DUP4 ADD SLT PUSH3 0x193 JUMPI PUSH0 DUP1 REVERT JUMPDEST DUP2 MLOAD PUSH1 0x1 PUSH1 0x1 PUSH1 0x40 SHL SUB DUP1 DUP3 GT ISZERO PUSH3 0x1B0 JUMPI PUSH3 0x1B0 PUSH3 0x16F JUMP JUMPDEST PUSH1 0x40 MLOAD PUSH1 0x1F DUP4 ADD PUSH1 0x1F NOT SWAP1 DUP2 AND PUSH1 0x3F ADD AND DUP2 ADD SWAP1 DUP3 DUP3 GT DUP2 DUP4 LT OR ISZERO PUSH3 0x1DB JUMPI PUSH3 0x1DB PUSH3 0x16F JUMP JUMPDEST DUP2 PUSH1 0x40 MSTORE DUP4 DUP2 MSTORE PUSH1 0x20 SWAP3 POP DUP7 DUP4 DUP6 DUP9 ADD ADD GT ISZERO PUSH3 0x1F7 JUMPI PUSH0 DUP1 REVERT JUMPDEST PUSH0 SWAP2 POP JUMPDEST DUP4 DUP3 LT ISZERO PUSH3 0x21A JUMPI DUP6 DUP3 ADD DUP4 ADD MLOAD DUP2 DUP4 ADD DUP5 ADD MSTORE SWAP1 DUP3 ADD SWAP1 PUSH3 0x1FB JUMP JUMPDEST PUSH0 SWAP4 DUP2 ADD SWAP1 SWAP3 ADD SWAP3 SWAP1 SWAP3 MSTORE SWAP5 SWAP4 POP POP POP POP JUMP JUMPDEST PUSH0 DUP1 PUSH0 DUP1 PUSH0 DUP1 PUSH0 DUP1 PUSH2 0x100 DUP10 DUP12 SUB SLT ISZERO PUSH3 0x246 JUMPI PUSH0 DUP1 REVERT JUMPDEST PUSH3 0x251 DUP10 PUSH3 0x158 JUMP JUMPDEST PUSH1 0x20 DUP11 ADD MLOAD PUSH1 0x40 DUP12 ADD MLOAD PUSH1 0x60 DUP13 ADD MLOAD PUSH1 0x80 DUP14 ADD MLOAD SWAP4 SWAP12 POP SWAP2 SWAP10 POP SWAP8 POP SWAP6 POP PUSH1 0x1 PUSH1 0x1 PUSH1 0x40 SHL SUB DUP1 DUP3 GT ISZERO PUSH3 0x284 JUMPI PUSH0 DUP1 REVERT JUMPDEST PUSH3 0x292 DUP13 DUP4 DUP14 ADD PUSH3 0x183 JUMP JUMPDEST SWAP6 POP PUSH1 0xA0 DUP12 ADD MLOAD SWAP2 POP DUP1 DUP3 GT ISZERO PUSH3 0x2A8 JUMPI PUSH0 DUP1 REVERT JUMPDEST PUSH3 0x2B6 DUP13 DUP4 DUP14 ADD PUSH3 0x183 JUMP JUMPDEST SWAP5 POP PUSH1 0xC0 DUP12 ADD MLOAD SWAP2 POP DUP1 DUP3 GT ISZERO PUSH3 0x2CC JUMPI PUSH0 DUP1 REVERT JUMPDEST POP PUSH3 0x2DB DUP12 DUP3 DUP13 ADD PUSH3 0x183 JUMP JUMPDEST SWAP3 POP POP PUSH1 0xE0 DUP10 ADD MLOAD SWAP1 POP SWAP3 SWAP6 SWAP9 POP SWAP3 SWAP6 SWAP9 SWAP1 SWAP4 SWAP7 POP JUMP JUMPDEST PUSH1 0x1 DUP2 DUP2 SHR SWAP1 DUP3 AND DUP1 PUSH3 0x307 JUMPI PUSH1 0x7F DUP3 AND SWAP2 POP JUMPDEST PUSH1 0x20 DUP3 LT DUP2 SUB PUSH3 0x326 JUMPI PUSH4 0x4E487B71 PUSH1 0xE0 SHL PUSH0 MSTORE PUSH1 0x22 PUSH1 0x4 MSTORE PUSH1 0x24 PUSH0 REVERT JUMPDEST POP SWAP2 SWAP1 POP JUMP JUMPDEST PUSH1 0x1F DUP3 GT ISZERO PUSH3 0x379 JUMPI PUSH0 DUP2 DUP2 MSTORE PUSH1 0x20 DUP2 KECCAK256 PUSH1 0x1F DUP6 ADD PUSH1 0x5 SHR DUP2 ADD PUSH1 0x20 DUP7 LT ISZERO PUSH3 0x354 JUMPI POP DUP1 JUMPDEST PUSH1 0x1F DUP6 ADD PUSH1 0x5 SHR DUP3 ADD SWAP2 POP JUMPDEST DUP2 DUP2 LT ISZERO PUSH3 0x375 JUMPI DUP3 DUP2 SSTORE PUSH1 0x1 ADD PUSH3 0x360 JUMP JUMPDEST POP POP POP JUMPDEST POP POP POP JUMP JUMPDEST DUP2 MLOAD PUSH1 0x1 PUSH1 0x1 PUSH1 0x40 SHL SUB DUP2 GT ISZERO PUSH3 0x39A JUMPI PUSH3 0x39A PUSH3 0x16F JUMP JUMPDEST PUSH3 0x3B2 DUP2 PUSH3 0x3AB DUP5 SLOAD PUSH3 0x2F2 JUMP JUMPDEST DUP5 PUSH3 0x32C JUMP JUMPDEST PUSH1 0x20 DUP1 PUSH1 0x1F DUP4 GT PUSH1 0x1 DUP2 EQ PUSH3 0x3E8 JUMPI PUSH0 DUP5 ISZERO PUSH3 0x3D0 JUMPI POP DUP6 DUP4 ADD MLOAD JUMPDEST PUSH0 NOT PUSH1 0x3 DUP7 SWAP1 SHL SHR NOT AND PUSH1 0x1 DUP6 SWAP1 SHL OR DUP6 SSTORE PUSH3 0x375 JUMP JUMPDEST PUSH0 DUP6 DUP2 MSTORE PUSH1 0x20 DUP2 KECCAK256 PUSH1 0x1F NOT DUP7 AND SWAP2 JUMPDEST DUP3 DUP2 LT ISZERO PUSH3 0x418 JUMPI DUP9 DUP7 ADD MLOAD DUP3 SSTORE SWAP5 DUP5 ADD SWAP5 PUSH1 0x1 SWAP1 SWAP2 ADD SWAP1 DUP5 ADD PUSH3 0x3F7 JUMP JUMPDEST POP DUP6 DUP3 LT ISZERO PUSH3 0x436 JUMPI DUP8 DUP6 ADD MLOAD PUSH0 NOT PUSH1 0x3 DUP9 SWAP1 SHL PUSH1 0xF8 AND SHR NOT AND DUP2 SSTORE JUMPDEST POP POP POP POP POP PUSH1 0x1 SWAP1 DUP2 SHL ADD SWAP1 SSTORE POP JUMP JUMPDEST PUSH2 0x1181 DUP1 PUSH3 0x454 PUSH0 CODECOPY PUSH0 RETURN INVALID PUSH1 0x80 PUSH1 0x40 MSTORE PUSH1 0x4 CALLDATASIZE LT PUSH2 0x11B JUMPI PUSH0 CALLDATALOAD PUSH1 0xE0 SHR DUP1 PUSH4 0x8D27289E GT PUSH2 0x9D JUMPI DUP1 PUSH4 0xB82C86D6 GT PUSH2 0x62 JUMPI DUP1 PUSH4 0xB82C86D6 EQ PUSH2 0x2C1 JUMPI DUP1 PUSH4 0xC19D93FB EQ PUSH2 0x2D6 JUMPI DUP1 PUSH4 0xC3E20C9F EQ PUSH2 0x2FC JUMPI DUP1 PUSH4 0xC59EE1DC EQ PUSH2 0x310 JUMPI DUP1 PUSH4 0xD7BB99BA EQ PUSH2 0x325 JUMPI PUSH0 DUP1 REVERT JUMPDEST DUP1 PUSH4 0x8D27289E EQ PUSH2 0x243 JUMPI DUP1 PUSH4 0x937E09B1 EQ PUSH2 0x24B JUMPI DUP1 PUSH4 0x9D43B9B5 EQ PUSH2 0x260 JUMPI DUP1 PUSH4 0xA00C96D7 EQ PUSH2 0x275 JUMPI DUP1 PUSH4 0xA66475A8 EQ PUSH2 0x2A2 JUMPI PUSH0 DUP1 REVERT JUMPDEST DUP1 PUSH4 0x56F78A32 GT PUSH2 0xE3 JUMPI DUP1 PUSH4 0x56F78A32 EQ PUSH2 0x1BD JUMPI DUP1 PUSH4 0x6B0BAD19 EQ PUSH2 0x1D1 JUMPI DUP1 PUSH4 0x6EEF7D95 EQ PUSH2 0x1F2 JUMPI DUP1 PUSH4 0x6F9FB98A EQ PUSH2 0x21D JUMPI DUP1 PUSH4 0x7A9A8055 EQ PUSH2 0x22F JUMPI PUSH0 DUP1 REVERT JUMPDEST DUP1 PUSH4 0x2D05D3F EQ PUSH2 0x11F JUMPI DUP1 PUSH4 0x3C29D58 EQ PUSH2 0x15A JUMPI DUP1 PUSH4 0x29DCB0CF EQ PUSH2 0x17B JUMPI DUP1 PUSH4 0x3D0300BD EQ PUSH2 0x19E JUMPI DUP1 PUSH4 0x4E260F6F EQ PUSH2 0x1A8 JUMPI JUMPDEST PUSH0 DUP1 REVERT JUMPDEST CALLVALUE DUP1 ISZERO PUSH2 0x12A JUMPI PUSH0 DUP1 REVERT JUMPDEST POP PUSH0 SLOAD PUSH2 0x13D SWAP1 PUSH1 0x1 PUSH1 0x1 PUSH1 0xA0 SHL SUB AND DUP2 JUMP JUMPDEST PUSH1 0x40 MLOAD PUSH1 0x1 PUSH1 0x1 PUSH1 0xA0 SHL SUB SWAP1 SWAP2 AND DUP2 MSTORE PUSH1 0x20 ADD JUMPDEST PUSH1 0x40 MLOAD DUP1 SWAP2 SUB SWAP1 RETURN JUMPDEST CALLVALUE DUP1 ISZERO PUSH2 0x165 JUMPI PUSH0 DUP1 REVERT JUMPDEST POP PUSH2 0x16E PUSH2 0x32D JUMP JUMPDEST PUSH1 0x40 MLOAD PUSH2 0x151 SWAP2 SWAP1 PUSH2 0xEDE JUMP JUMPDEST CALLVALUE DUP1 ISZERO PUSH2 0x186 JUMPI PUSH0 DUP1 REVERT JUMPDEST POP PUSH2 0x190 PUSH1 0x2 SLOAD DUP2 JUMP JUMPDEST PUSH1 0x40 MLOAD SWAP1 DUP2 MSTORE PUSH1 0x20 ADD PUSH2 0x151 JUMP JUMPDEST PUSH2 0x1A6 PUSH2 0x3B9 JUMP JUMPDEST STOP JUMPDEST CALLVALUE DUP1 ISZERO PUSH2 0x1B3 JUMPI PUSH0 DUP1 REVERT JUMPDEST POP PUSH2 0x190 PUSH1 0x6 SLOAD DUP2 JUMP JUMPDEST CALLVALUE DUP1 ISZERO PUSH2 0x1C8 JUMPI PUSH0 DUP1 REVERT JUMPDEST POP PUSH2 0x190 PUSH1 0x2 DUP2 JUMP JUMPDEST CALLVALUE DUP1 ISZERO PUSH2 0x1DC JUMPI PUSH0 DUP1 REVERT JUMPDEST POP PUSH2 0x1E5 PUSH2 0x58A JUMP JUMPDEST PUSH1 0x40 MLOAD PUSH2 0x151 SWAP2 SWAP1 PUSH2 0xEF7 JUMP JUMPDEST CALLVALUE DUP1 ISZERO PUSH2 0x1FD JUMPI PUSH0 DUP1 REVERT JUMPDEST POP PUSH1 0xA SLOAD PUSH2 0x210 SWAP1 PUSH2 0x100 SWAP1 DIV PUSH1 0xFF AND DUP2 JUMP JUMPDEST PUSH1 0x40 MLOAD PUSH2 0x151 SWAP2 SWAP1 PUSH2 0xF6B JUMP JUMPDEST CALLVALUE DUP1 ISZERO PUSH2 0x228 JUMPI PUSH0 DUP1 REVERT JUMPDEST POP SELFBALANCE PUSH2 0x190 JUMP JUMPDEST CALLVALUE DUP1 ISZERO PUSH2 0x23A JUMPI PUSH0 DUP1 REVERT JUMPDEST POP PUSH2 0x16E PUSH2 0x604 JUMP JUMPDEST PUSH2 0x1A6 PUSH2 0x611 JUMP JUMPDEST CALLVALUE DUP1 ISZERO PUSH2 0x256 JUMPI PUSH0 DUP1 REVERT JUMPDEST POP PUSH2 0x190 PUSH1 0x1 SLOAD DUP2 JUMP JUMPDEST CALLVALUE DUP1 ISZERO PUSH2 0x26B JUMPI PUSH0 DUP1 REVERT JUMPDEST POP PUSH2 0x190 PUSH1 0x4 SLOAD DUP2 JUMP JUMPDEST CALLVALUE DUP1 ISZERO PUSH2 0x280 JUMPI PUSH0 DUP1 REVERT JUMPDEST POP PUSH2 0x289 PUSH2 0x851 JUMP JUMPDEST PUSH1 0x40 MLOAD PUSH2 0x151 SWAP14 SWAP13 SWAP12 SWAP11 SWAP10 SWAP9 SWAP8 SWAP7 SWAP6 SWAP5 SWAP4 SWAP3 SWAP2 SWAP1 PUSH2 0xF99 JUMP JUMPDEST CALLVALUE DUP1 ISZERO PUSH2 0x2AD JUMPI PUSH0 DUP1 REVERT JUMPDEST POP PUSH2 0x16E PUSH2 0x2BC CALLDATASIZE PUSH1 0x4 PUSH2 0x1034 JUMP JUMPDEST PUSH2 0xA71 JUMP JUMPDEST CALLVALUE DUP1 ISZERO PUSH2 0x2CC JUMPI PUSH0 DUP1 REVERT JUMPDEST POP PUSH2 0x190 PUSH1 0x3 SLOAD DUP2 JUMP JUMPDEST CALLVALUE DUP1 ISZERO PUSH2 0x2E1 JUMPI PUSH0 DUP1 REVERT JUMPDEST POP PUSH1 0xA SLOAD PUSH2 0x2EF SWAP1 PUSH1 0xFF AND DUP2 JUMP JUMPDEST PUSH1 0x40 MLOAD PUSH2 0x151 SWAP2 SWAP1 PUSH2 0x104B JUMP JUMPDEST CALLVALUE DUP1 ISZERO PUSH2 0x307 JUMPI PUSH0 DUP1 REVERT JUMPDEST POP PUSH2 0x16E PUSH2 0xB47 JUMP JUMPDEST CALLVALUE DUP1 ISZERO PUSH2 0x31B JUMPI PUSH0 DUP1 REVERT JUMPDEST POP PUSH2 0x190 PUSH1 0x5 SLOAD DUP2 JUMP JUMPDEST PUSH2 0x1A6 PUSH2 0xB54 JUMP JUMPDEST PUSH1 0x8 DUP1 SLOAD PUSH2 0x33A SWAP1 PUSH2 0x105F JUMP JUMPDEST DUP1 PUSH1 0x1F ADD PUSH1 0x20 DUP1 SWAP2 DIV MUL PUSH1 0x20 ADD PUSH1 0x40 MLOAD SWAP1 DUP2 ADD PUSH1 0x40 MSTORE DUP1 SWAP3 SWAP2 SWAP1 DUP2 DUP2 MSTORE PUSH1 0x20 ADD DUP3 DUP1 SLOAD PUSH2 0x366 SWAP1 PUSH2 0x105F JUMP JUMPDEST DUP1 ISZERO PUSH2 0x3B1 JUMPI DUP1 PUSH1 0x1F LT PUSH2 0x388 JUMPI PUSH2 0x100 DUP1 DUP4 SLOAD DIV MUL DUP4 MSTORE SWAP2 PUSH1 0x20 ADD SWAP2 PUSH2 0x3B1 JUMP JUMPDEST DUP3 ADD SWAP2 SWAP1 PUSH0 MSTORE PUSH1 0x20 PUSH0 KECCAK256 SWAP1 JUMPDEST DUP2 SLOAD DUP2 MSTORE SWAP1 PUSH1 0x1 ADD SWAP1 PUSH1 0x20 ADD DUP1 DUP4 GT PUSH2 0x394 JUMPI DUP3 SWAP1 SUB PUSH1 0x1F AND DUP3 ADD SWAP2 JUMPDEST POP POP POP POP POP DUP2 JUMP JUMPDEST PUSH0 SLOAD PUSH1 0x1 PUSH1 0x1 PUSH1 0xA0 SHL SUB AND CALLER EQ PUSH2 0x3EB JUMPI PUSH1 0x40 MLOAD PUSH3 0x461BCD PUSH1 0xE5 SHL DUP2 MSTORE PUSH1 0x4 ADD PUSH2 0x3E2 SWAP1 PUSH2 0x1091 JUMP JUMPDEST PUSH1 0x40 MLOAD DUP1 SWAP2 SUB SWAP1 REVERT JUMPDEST PUSH1 0x1 PUSH1 0xA SLOAD PUSH1 0xFF AND PUSH1 0x3 DUP2 GT ISZERO PUSH2 0x404 JUMPI PUSH2 0x404 PUSH2 0xF57 JUMP JUMPDEST EQ PUSH2 0x48F JUMPI PUSH1 0x40 MLOAD PUSH3 0x461BCD PUSH1 0xE5 SHL DUP2 MSTORE PUSH1 0x20 PUSH1 0x4 DUP3 ADD MSTORE PUSH1 0x4F PUSH1 0x24 DUP3 ADD MSTORE PUSH32 0x476F616C206E6F7420726561636865642C20616D6F756E742063616E6E6F7420 PUSH1 0x44 DUP3 ADD MSTORE PUSH32 0x62652077697468647261776E2E20506C656173652061626F727420746F207265 PUSH1 0x64 DUP3 ADD MSTORE PUSH15 0x66756E6420746F206261636B657273 PUSH1 0x88 SHL PUSH1 0x84 DUP3 ADD MSTORE PUSH1 0xA4 ADD PUSH2 0x3E2 JUMP JUMPDEST PUSH1 0x2 SLOAD TIMESTAMP LT PUSH2 0x4F8 JUMPI PUSH1 0x40 MLOAD PUSH3 0x461BCD PUSH1 0xE5 SHL DUP2 MSTORE PUSH1 0x20 PUSH1 0x4 DUP3 ADD MSTORE PUSH1 0x2F PUSH1 0x24 DUP3 ADD MSTORE PUSH32 0x43616D706169676E2063616E6E6F7420626520656E6465642C20646561646C69 PUSH1 0x44 DUP3 ADD MSTORE PUSH15 0x3732903737BA103932B0B1B432B217 PUSH1 0x89 SHL PUSH1 0x64 DUP3 ADD MSTORE PUSH1 0x84 ADD PUSH2 0x3E2 JUMP JUMPDEST PUSH0 DUP1 SLOAD PUSH1 0x5 SLOAD PUSH1 0x40 MLOAD PUSH1 0x1 PUSH1 0x1 PUSH1 0xA0 SHL SUB SWAP1 SWAP3 AND SWAP3 DUP2 ISZERO PUSH2 0x8FC MUL SWAP3 SWAP1 DUP2 DUP2 DUP2 DUP6 DUP9 DUP9 CALL SWAP4 POP POP POP POP ISZERO DUP1 ISZERO PUSH2 0x530 JUMPI RETURNDATASIZE PUSH0 DUP1 RETURNDATACOPY RETURNDATASIZE PUSH0 REVERT JUMPDEST POP PUSH1 0xA DUP1 SLOAD PUSH1 0xFF NOT AND PUSH1 0x2 OR SWAP1 SSTORE PUSH0 SLOAD PUSH1 0x5 SLOAD PUSH1 0x40 DUP1 MLOAD PUSH1 0x1 PUSH1 0x1 PUSH1 0xA0 SHL SUB SWAP1 SWAP4 AND DUP4 MSTORE PUSH1 0x20 DUP4 ADD SWAP2 SWAP1 SWAP2 MSTORE PUSH32 0xC364254574C58E1BDD9077B0E35E609EE391CA636748A275674D5FB5BDC1D3F6 SWAP2 ADD JUMPDEST PUSH1 0x40 MLOAD DUP1 SWAP2 SUB SWAP1 LOG1 JUMP JUMPDEST PUSH1 0x40 DUP1 MLOAD PUSH1 0x2 DUP1 DUP3 MSTORE PUSH1 0x60 DUP3 DUP2 ADD SWAP1 SWAP4 MSTORE PUSH0 SWAP2 SWAP1 DUP2 PUSH1 0x20 ADD JUMPDEST PUSH1 0x60 DUP2 MSTORE PUSH1 0x20 ADD SWAP1 PUSH1 0x1 SWAP1 SUB SWAP1 DUP2 PUSH2 0x5A3 JUMPI SWAP1 POP POP SWAP1 POP PUSH0 JUMPDEST PUSH1 0x2 DUP2 LT ISZERO PUSH2 0x5FE JUMPI PUSH2 0x5CE DUP2 PUSH2 0xA71 JUMP JUMPDEST DUP3 DUP3 DUP2 MLOAD DUP2 LT PUSH2 0x5E0 JUMPI PUSH2 0x5E0 PUSH2 0x10E1 JUMP JUMPDEST PUSH1 0x20 MUL PUSH1 0x20 ADD ADD DUP2 SWAP1 MSTORE POP DUP1 DUP1 PUSH2 0x5F6 SWAP1 PUSH2 0x1109 JUMP JUMPDEST SWAP2 POP POP PUSH2 0x5BC JUMP JUMPDEST POP SWAP2 SWAP1 POP JUMP JUMPDEST PUSH1 0x9 DUP1 SLOAD PUSH2 0x33A SWAP1 PUSH2 0x105F JUMP JUMPDEST PUSH0 SLOAD PUSH1 0x1 PUSH1 0x1 PUSH1 0xA0 SHL SUB AND CALLER EQ PUSH2 0x63A JUMPI PUSH1 0x40 MLOAD PUSH3 0x461BCD PUSH1 0xE5 SHL DUP2 MSTORE PUSH1 0x4 ADD PUSH2 0x3E2 SWAP1 PUSH2 0x1091 JUMP JUMPDEST PUSH1 0x2 SLOAD TIMESTAMP LT PUSH2 0x6A0 JUMPI PUSH1 0x40 MLOAD PUSH3 0x461BCD PUSH1 0xE5 SHL DUP2 MSTORE PUSH1 0x20 PUSH1 0x4 DUP3 ADD MSTORE PUSH1 0x2C PUSH1 0x24 DUP3 ADD MSTORE PUSH32 0x43616D706169676E2063616E6E6F742062652061626F727465642C2064656164 PUSH1 0x44 DUP3 ADD MSTORE PUSH12 0x3634B732903830B9B9B2B217 PUSH1 0xA1 SHL PUSH1 0x64 DUP3 ADD MSTORE PUSH1 0x84 ADD PUSH2 0x3E2 JUMP JUMPDEST PUSH0 PUSH1 0xA SLOAD PUSH1 0xFF AND PUSH1 0x3 DUP2 GT ISZERO PUSH2 0x6B8 JUMPI PUSH2 0x6B8 PUSH2 0xF57 JUMP JUMPDEST EQ DUP1 PUSH2 0x6DA JUMPI POP PUSH1 0x1 PUSH1 0xA SLOAD PUSH1 0xFF AND PUSH1 0x3 DUP2 GT ISZERO PUSH2 0x6D8 JUMPI PUSH2 0x6D8 PUSH2 0xF57 JUMP JUMPDEST EQ JUMPDEST PUSH2 0x734 JUMPI PUSH1 0x40 MLOAD PUSH3 0x461BCD PUSH1 0xE5 SHL DUP2 MSTORE PUSH1 0x20 PUSH1 0x4 DUP3 ADD MSTORE PUSH1 0x25 PUSH1 0x24 DUP3 ADD MSTORE PUSH32 0x496E76616C69642073746174652E2043616E6E6F742061626F72742063616D70 PUSH1 0x44 DUP3 ADD MSTORE PUSH5 0x30B4B3B717 PUSH1 0xD9 SHL PUSH1 0x64 DUP3 ADD MSTORE PUSH1 0x84 ADD PUSH2 0x3E2 JUMP JUMPDEST PUSH0 JUMPDEST PUSH1 0x6 SLOAD DUP2 LT ISZERO PUSH2 0x806 JUMPI PUSH1 0xB DUP2 DUP2 SLOAD DUP2 LT PUSH2 0x753 JUMPI PUSH2 0x753 PUSH2 0x10E1 JUMP JUMPDEST PUSH0 SWAP2 DUP3 MSTORE PUSH1 0x20 SWAP1 SWAP2 KECCAK256 PUSH1 0x2 SWAP1 SWAP2 MUL ADD SLOAD PUSH1 0xB DUP1 SLOAD PUSH1 0x1 PUSH1 0x1 PUSH1 0xA0 SHL SUB SWAP1 SWAP3 AND SWAP2 PUSH2 0x8FC SWAP2 SWAP1 DUP5 SWAP1 DUP2 LT PUSH2 0x788 JUMPI PUSH2 0x788 PUSH2 0x10E1 JUMP JUMPDEST SWAP1 PUSH0 MSTORE PUSH1 0x20 PUSH0 KECCAK256 SWAP1 PUSH1 0x2 MUL ADD PUSH1 0x1 ADD SLOAD SWAP1 DUP2 ISZERO MUL SWAP1 PUSH1 0x40 MLOAD PUSH0 PUSH1 0x40 MLOAD DUP1 DUP4 SUB DUP2 DUP6 DUP9 DUP9 CALL SWAP4 POP POP POP POP ISZERO DUP1 ISZERO PUSH2 0x7C0 JUMPI RETURNDATASIZE PUSH0 DUP1 RETURNDATACOPY RETURNDATASIZE PUSH0 REVERT JUMPDEST POP PUSH1 0xB DUP2 DUP2 SLOAD DUP2 LT PUSH2 0x7D4 JUMPI PUSH2 0x7D4 PUSH2 0x10E1 JUMP JUMPDEST PUSH0 SWAP2 DUP3 MSTORE PUSH1 0x20 DUP3 KECCAK256 PUSH1 0x2 SWAP1 SWAP2 MUL ADD DUP1 SLOAD PUSH1 0x1 PUSH1 0x1 PUSH1 0xA0 SHL SUB NOT AND DUP2 SSTORE PUSH1 0x1 ADD SSTORE DUP1 PUSH2 0x7FE DUP2 PUSH2 0x1109 JUMP JUMPDEST SWAP2 POP POP PUSH2 0x736 JUMP JUMPDEST POP PUSH1 0xA DUP1 SLOAD PUSH1 0xFF NOT AND PUSH1 0x3 OR SWAP1 SSTORE PUSH1 0x6 SLOAD PUSH1 0x5 SLOAD PUSH1 0x40 DUP1 MLOAD SWAP3 DUP4 MSTORE PUSH1 0x20 DUP4 ADD SWAP2 SWAP1 SWAP2 MSTORE PUSH32 0xD69EAE259B3E1E42F22F60A8A54DBF4D1983D006A10D5F36C068CCC87EB49391 SWAP2 ADD PUSH2 0x580 JUMP JUMPDEST PUSH0 DUP1 SLOAD PUSH1 0x1 SLOAD PUSH1 0x2 SLOAD PUSH1 0x3 SLOAD PUSH1 0x4 SLOAD PUSH1 0x5 SLOAD PUSH1 0x7 DUP1 SLOAD PUSH1 0x1 PUSH1 0x1 PUSH1 0xA0 SHL SUB SWAP1 SWAP8 AND SWAP8 SWAP6 SWAP7 SWAP5 SWAP6 SWAP4 SWAP5 SWAP3 SWAP4 SWAP2 SWAP3 PUSH1 0x60 SWAP3 DUP4 SWAP3 SWAP1 SWAP2 DUP3 SWAP2 DUP5 SWAP2 DUP4 SWAP2 DUP3 SWAP2 PUSH2 0x895 SWAP1 PUSH2 0x105F JUMP JUMPDEST DUP1 PUSH1 0x1F ADD PUSH1 0x20 DUP1 SWAP2 DIV MUL PUSH1 0x20 ADD PUSH1 0x40 MLOAD SWAP1 DUP2 ADD PUSH1 0x40 MSTORE DUP1 SWAP3 SWAP2 SWAP1 DUP2 DUP2 MSTORE PUSH1 0x20 ADD DUP3 DUP1 SLOAD PUSH2 0x8C1 SWAP1 PUSH2 0x105F JUMP JUMPDEST DUP1 ISZERO PUSH2 0x90C JUMPI DUP1 PUSH1 0x1F LT PUSH2 0x8E3 JUMPI PUSH2 0x100 DUP1 DUP4 SLOAD DIV MUL DUP4 MSTORE SWAP2 PUSH1 0x20 ADD SWAP2 PUSH2 0x90C JUMP JUMPDEST DUP3 ADD SWAP2 SWAP1 PUSH0 MSTORE PUSH1 0x20 PUSH0 KECCAK256 SWAP1 JUMPDEST DUP2 SLOAD DUP2 MSTORE SWAP1 PUSH1 0x1 ADD SWAP1 PUSH1 0x20 ADD DUP1 DUP4 GT PUSH2 0x8EF JUMPI DUP3 SWAP1 SUB PUSH1 0x1F AND DUP3 ADD SWAP2 JUMPDEST POP POP POP POP POP SWAP7 POP PUSH1 0x8 DUP1 SLOAD PUSH2 0x920 SWAP1 PUSH2 0x105F JUMP JUMPDEST DUP1 PUSH1 0x1F ADD PUSH1 0x20 DUP1 SWAP2 DIV MUL PUSH1 0x20 ADD PUSH1 0x40 MLOAD SWAP1 DUP2 ADD PUSH1 0x40 MSTORE DUP1 SWAP3 SWAP2 SWAP1 DUP2 DUP2 MSTORE PUSH1 0x20 ADD DUP3 DUP1 SLOAD PUSH2 0x94C SWAP1 PUSH2 0x105F JUMP JUMPDEST DUP1 ISZERO PUSH2 0x997 JUMPI DUP1 PUSH1 0x1F LT PUSH2 0x96E JUMPI PUSH2 0x100 DUP1 DUP4 SLOAD DIV MUL DUP4 MSTORE SWAP2 PUSH1 0x20 ADD SWAP2 PUSH2 0x997 JUMP JUMPDEST DUP3 ADD SWAP2 SWAP1 PUSH0 MSTORE PUSH1 0x20 PUSH0 KECCAK256 SWAP1 JUMPDEST DUP2 SLOAD DUP2 MSTORE SWAP1 PUSH1 0x1 ADD SWAP1 PUSH1 0x20 ADD DUP1 DUP4 GT PUSH2 0x97A JUMPI DUP3 SWAP1 SUB PUSH1 0x1F AND DUP3 ADD SWAP2 JUMPDEST POP POP PUSH1 0xA SLOAD PUSH1 0x9 DUP1 SLOAD SWAP6 SWAP12 POP PUSH1 0xFF SWAP1 SWAP2 AND SWAP10 POP SELFBALANCE SWAP9 POP SWAP4 PUSH2 0x9BC SWAP4 POP SWAP2 POP PUSH2 0x105F SWAP1 POP JUMP JUMPDEST DUP1 PUSH1 0x1F ADD PUSH1 0x20 DUP1 SWAP2 DIV MUL PUSH1 0x20 ADD PUSH1 0x40 MLOAD SWAP1 DUP2 ADD PUSH1 0x40 MSTORE DUP1 SWAP3 SWAP2 SWAP1 DUP2 DUP2 MSTORE PUSH1 0x20 ADD DUP3 DUP1 SLOAD PUSH2 0x9E8 SWAP1 PUSH2 0x105F JUMP JUMPDEST DUP1 ISZERO PUSH2 0xA33 JUMPI DUP1 PUSH1 0x1F LT PUSH2 0xA0A JUMPI PUSH2 0x100 DUP1 DUP4 SLOAD DIV MUL DUP4 MSTORE SWAP2 PUSH1 0x20 ADD SWAP2 PUSH2 0xA33 JUMP JUMPDEST DUP3 ADD SWAP2 SWAP1 PUSH0 MSTORE PUSH1 0x20 PUSH0 KECCAK256 SWAP1 JUMPDEST DUP2 SLOAD DUP2 MSTORE SWAP1 PUSH1 0x1 ADD SWAP1 PUSH1 0x20 ADD DUP1 DUP4 GT PUSH2 0xA16 JUMPI DUP3 SWAP1 SUB PUSH1 0x1F AND DUP3 ADD SWAP2 JUMPDEST POP POP POP POP POP SWAP3 POP PUSH1 0x6 SLOAD SWAP2 POP PUSH1 0xA PUSH1 0x1 SWAP1 SLOAD SWAP1 PUSH2 0x100 EXP SWAP1 DIV PUSH1 0xFF AND PUSH1 0x1 DUP2 GT ISZERO PUSH2 0xA60 JUMPI PUSH2 0xA60 PUSH2 0xF57 JUMP JUMPDEST SWAP1 POP SWAP1 SWAP2 SWAP3 SWAP4 SWAP5 SWAP6 SWAP7 SWAP8 SWAP9 SWAP10 SWAP11 SWAP12 SWAP13 JUMP JUMPDEST PUSH1 0x60 PUSH1 0x2 DUP3 LT PUSH2 0xAB8 JUMPI PUSH1 0x40 MLOAD PUSH3 0x461BCD PUSH1 0xE5 SHL DUP2 MSTORE PUSH1 0x20 PUSH1 0x4 DUP3 ADD MSTORE PUSH1 0x12 PUSH1 0x24 DUP3 ADD MSTORE PUSH18 0x496E646578206F7574206F662072616E6765 PUSH1 0x70 SHL PUSH1 0x44 DUP3 ADD MSTORE PUSH1 0x64 ADD PUSH2 0x3E2 JUMP JUMPDEST DUP2 PUSH2 0xAE7 JUMPI POP POP PUSH1 0x40 DUP1 MLOAD DUP1 DUP3 ADD SWAP1 SWAP2 MSTORE PUSH1 0xE DUP2 MSTORE PUSH14 0x416C6C206F72204E6F7468696E67 PUSH1 0x90 SHL PUSH1 0x20 DUP3 ADD MSTORE SWAP1 JUMP JUMPDEST PUSH1 0x1 DUP3 SUB PUSH2 0xB1D JUMPI POP POP PUSH1 0x40 DUP1 MLOAD DUP1 DUP3 ADD SWAP1 SWAP2 MSTORE PUSH1 0x12 DUP2 MSTORE PUSH18 0x48616C6620676F616C207769746864726177 PUSH1 0x70 SHL PUSH1 0x20 DUP3 ADD MSTORE SWAP1 JUMP JUMPDEST POP POP PUSH1 0x40 DUP1 MLOAD DUP1 DUP3 ADD SWAP1 SWAP2 MSTORE PUSH1 0xE DUP2 MSTORE PUSH14 0x496E76616C696420736368656D65 PUSH1 0x90 SHL PUSH1 0x20 DUP3 ADD MSTORE SWAP1 JUMP JUMPDEST PUSH1 0x7 DUP1 SLOAD PUSH2 0x33A SWAP1 PUSH2 0x105F JUMP JUMPDEST PUSH0 PUSH1 0xA SLOAD PUSH1 0xFF AND PUSH1 0x3 DUP2 GT ISZERO PUSH2 0xB6C JUMPI PUSH2 0xB6C PUSH2 0xF57 JUMP JUMPDEST EQ DUP1 PUSH2 0xB8E JUMPI POP PUSH1 0x1 PUSH1 0xA SLOAD PUSH1 0xFF AND PUSH1 0x3 DUP2 GT ISZERO PUSH2 0xB8C JUMPI PUSH2 0xB8C PUSH2 0xF57 JUMP JUMPDEST EQ JUMPDEST PUSH2 0xBCA JUMPI PUSH1 0x40 MLOAD PUSH3 0x461BCD PUSH1 0xE5 SHL DUP2 MSTORE PUSH1 0x20 PUSH1 0x4 DUP3 ADD MSTORE PUSH1 0xD PUSH1 0x24 DUP3 ADD MSTORE PUSH13 0x496E76616C6964207374617465 PUSH1 0x98 SHL PUSH1 0x44 DUP3 ADD MSTORE PUSH1 0x64 ADD PUSH2 0x3E2 JUMP JUMPDEST PUSH1 0x2 SLOAD TIMESTAMP LT PUSH2 0xC52 JUMPI PUSH1 0x40 MLOAD PUSH3 0x461BCD PUSH1 0xE5 SHL DUP2 MSTORE PUSH1 0x20 PUSH1 0x4 DUP3 ADD MSTORE PUSH1 0x48 PUSH1 0x24 DUP3 ADD MSTORE PUSH32 0x536F727279206261636B65722C20646561646C696E6520686173207061737365 PUSH1 0x44 DUP3 ADD MSTORE PUSH32 0x6421204E6F20636F6E747269627574696F6E732063616E206265206163636570 PUSH1 0x64 DUP3 ADD MSTORE PUSH8 0x3A32B2103737BB97 PUSH1 0xC1 SHL PUSH1 0x84 DUP3 ADD MSTORE PUSH1 0xA4 ADD PUSH2 0x3E2 JUMP JUMPDEST PUSH1 0x1 SLOAD CALLVALUE LT ISZERO PUSH2 0xCA4 JUMPI PUSH1 0x40 MLOAD PUSH3 0x461BCD PUSH1 0xE5 SHL DUP2 MSTORE PUSH1 0x20 PUSH1 0x4 DUP3 ADD DUP2 SWAP1 MSTORE PUSH1 0x24 DUP3 ADD MSTORE PUSH32 0x436F6E747269627574696F6E20616D6F756E7420697320746F6F206C6F772021 PUSH1 0x44 DUP3 ADD MSTORE PUSH1 0x64 ADD PUSH2 0x3E2 JUMP JUMPDEST CALLER PUSH0 PUSH2 0xCAF DUP3 PUSH2 0xE07 JUMP JUMPDEST SWAP1 POP DUP1 NOT PUSH2 0xD63 JUMPI PUSH1 0x6 DUP1 SLOAD SWAP1 PUSH0 PUSH2 0xCC6 DUP4 PUSH2 0x1109 JUMP JUMPDEST SWAP1 SWAP2 SSTORE POP POP PUSH1 0x40 DUP1 MLOAD DUP1 DUP3 ADD SWAP1 SWAP2 MSTORE PUSH1 0x1 PUSH1 0x1 PUSH1 0xA0 SHL SUB DUP4 DUP2 AND DUP3 MSTORE CALLVALUE PUSH1 0x20 DUP4 ADD SWAP1 DUP2 MSTORE PUSH1 0xB DUP1 SLOAD PUSH1 0x1 DUP2 ADD DUP3 SSTORE PUSH0 SWAP2 SWAP1 SWAP2 MSTORE SWAP3 MLOAD PUSH32 0x175B7A638427703F0DBE7BB9BBF987A2551717B34E79F33B5B1008D1FA01DB9 PUSH1 0x2 SWAP1 SWAP5 MUL SWAP4 DUP5 ADD DUP1 SLOAD PUSH1 0x1 PUSH1 0x1 PUSH1 0xA0 SHL SUB NOT AND SWAP2 SWAP1 SWAP4 AND OR SWAP1 SWAP2 SSTORE MLOAD PUSH32 0x175B7A638427703F0DBE7BB9BBF987A2551717B34E79F33B5B1008D1FA01DBA SWAP1 SWAP2 ADD SSTORE PUSH2 0xD9A JUMP JUMPDEST CALLVALUE PUSH1 0xB DUP3 DUP2 SLOAD DUP2 LT PUSH2 0xD77 JUMPI PUSH2 0xD77 PUSH2 0x10E1 JUMP JUMPDEST SWAP1 PUSH0 MSTORE PUSH1 0x20 PUSH0 KECCAK256 SWAP1 PUSH1 0x2 MUL ADD PUSH1 0x1 ADD PUSH0 DUP3 DUP3 SLOAD PUSH2 0xD94 SWAP2 SWAP1 PUSH2 0x1121 JUMP JUMPDEST SWAP1 SWAP2 SSTORE POP POP JUMPDEST CALLVALUE PUSH1 0x5 PUSH0 DUP3 DUP3 SLOAD PUSH2 0xDAB SWAP2 SWAP1 PUSH2 0x1121 JUMP JUMPDEST SWAP1 SWAP2 SSTORE POP POP PUSH1 0x5 SLOAD PUSH1 0x40 DUP1 MLOAD PUSH1 0x1 PUSH1 0x1 PUSH1 0xA0 SHL SUB DUP6 AND DUP2 MSTORE CALLVALUE PUSH1 0x20 DUP3 ADD MSTORE DUP1 DUP3 ADD SWAP3 SWAP1 SWAP3 MSTORE MLOAD PUSH32 0x5CDC4AB8D637538EAD6CC1904D4160343656C8C82BD266635CFD31AC008FFFE0 SWAP2 DUP2 SWAP1 SUB PUSH1 0x60 ADD SWAP1 LOG1 PUSH2 0xE03 PUSH2 0xE6D JUMP JUMPDEST POP POP JUMP JUMPDEST PUSH0 PUSH0 NOT DUP2 JUMPDEST PUSH1 0x6 SLOAD DUP2 SLT ISZERO PUSH2 0xE66 JUMPI PUSH1 0xB DUP2 DUP2 SLOAD DUP2 LT PUSH2 0xE29 JUMPI PUSH2 0xE29 PUSH2 0x10E1 JUMP JUMPDEST PUSH0 SWAP2 DUP3 MSTORE PUSH1 0x20 SWAP1 SWAP2 KECCAK256 PUSH1 0x2 SWAP1 SWAP2 MUL ADD SLOAD PUSH1 0x1 PUSH1 0x1 PUSH1 0xA0 SHL SUB SWAP1 DUP2 AND SWAP1 DUP6 AND SUB PUSH2 0xE54 JUMPI DUP1 SWAP2 POP PUSH2 0xE66 JUMP JUMPDEST DUP1 PUSH2 0xE5E DUP2 PUSH2 0x1134 JUMP JUMPDEST SWAP2 POP POP PUSH2 0xE0C JUMP JUMPDEST POP SWAP3 SWAP2 POP POP JUMP JUMPDEST PUSH1 0x3 SLOAD PUSH1 0x5 SLOAD LT ISZERO DUP1 ISZERO PUSH2 0xE82 JUMPI POP PUSH1 0x2 SLOAD TIMESTAMP LT JUMPDEST ISZERO PUSH2 0xE99 JUMPI PUSH1 0xA DUP1 SLOAD PUSH1 0xFF NOT AND PUSH1 0x1 OR SWAP1 SSTORE TIMESTAMP PUSH1 0x4 SSTORE JUMPDEST JUMP JUMPDEST PUSH0 DUP2 MLOAD DUP1 DUP5 MSTORE PUSH0 JUMPDEST DUP2 DUP2 LT ISZERO PUSH2 0xEBF JUMPI PUSH1 0x20 DUP2 DUP6 ADD DUP2 ADD MLOAD DUP7 DUP4 ADD DUP3 ADD MSTORE ADD PUSH2 0xEA3 JUMP JUMPDEST POP PUSH0 PUSH1 0x20 DUP3 DUP7 ADD ADD MSTORE PUSH1 0x20 PUSH1 0x1F NOT PUSH1 0x1F DUP4 ADD AND DUP6 ADD ADD SWAP2 POP POP SWAP3 SWAP2 POP POP JUMP JUMPDEST PUSH1 0x20 DUP2 MSTORE PUSH0 PUSH2 0xEF0 PUSH1 0x20 DUP4 ADD DUP5 PUSH2 0xE9B JUMP JUMPDEST SWAP4 SWAP3 POP POP POP JUMP JUMPDEST PUSH0 PUSH1 0x20 DUP1 DUP4 ADD DUP2 DUP5 MSTORE DUP1 DUP6 MLOAD DUP1 DUP4 MSTORE PUSH1 0x40 DUP7 ADD SWAP2 POP PUSH1 0x40 DUP2 PUSH1 0x5 SHL DUP8 ADD ADD SWAP3 POP DUP4 DUP8 ADD PUSH0 JUMPDEST DUP3 DUP2 LT ISZERO PUSH2 0xF4A JUMPI PUSH1 0x3F NOT DUP9 DUP7 SUB ADD DUP5 MSTORE PUSH2 0xF38 DUP6 DUP4 MLOAD PUSH2 0xE9B JUMP JUMPDEST SWAP5 POP SWAP3 DUP6 ADD SWAP3 SWAP1 DUP6 ADD SWAP1 PUSH1 0x1 ADD PUSH2 0xF1C JUMP JUMPDEST POP SWAP3 SWAP8 SWAP7 POP POP POP POP POP POP POP JUMP JUMPDEST PUSH4 0x4E487B71 PUSH1 0xE0 SHL PUSH0 MSTORE PUSH1 0x21 PUSH1 0x4 MSTORE PUSH1 0x24 PUSH0 REVERT JUMPDEST PUSH1 0x20 DUP2 ADD PUSH1 0x2 DUP4 LT PUSH2 0xF7F JUMPI PUSH2 0xF7F PUSH2 0xF57 JUMP JUMPDEST SWAP2 SWAP1 MSTORE SWAP1 JUMP JUMPDEST PUSH1 0x4 DUP2 LT PUSH2 0xF95 JUMPI PUSH2 0xF95 PUSH2 0xF57 JUMP JUMPDEST SWAP1 MSTORE JUMP JUMPDEST PUSH1 0x1 DUP1 PUSH1 0xA0 SHL SUB DUP15 AND DUP2 MSTORE DUP13 PUSH1 0x20 DUP3 ADD MSTORE DUP12 PUSH1 0x40 DUP3 ADD MSTORE DUP11 PUSH1 0x60 DUP3 ADD MSTORE DUP10 PUSH1 0x80 DUP3 ADD MSTORE DUP9 PUSH1 0xA0 DUP3 ADD MSTORE PUSH2 0x1A0 PUSH1 0xC0 DUP3 ADD MSTORE PUSH0 PUSH2 0xFD9 PUSH2 0x1A0 DUP4 ADD DUP11 PUSH2 0xE9B JUMP JUMPDEST DUP3 DUP2 SUB PUSH1 0xE0 DUP5 ADD MSTORE PUSH2 0xFEB DUP2 DUP11 PUSH2 0xE9B JUMP JUMPDEST SWAP1 POP PUSH2 0xFFB PUSH2 0x100 DUP5 ADD DUP10 PUSH2 0xF85 JUMP JUMPDEST DUP7 PUSH2 0x120 DUP5 ADD MSTORE DUP3 DUP2 SUB PUSH2 0x140 DUP5 ADD MSTORE PUSH2 0x1015 DUP2 DUP8 PUSH2 0xE9B JUMP JUMPDEST PUSH2 0x160 DUP5 ADD SWAP6 SWAP1 SWAP6 MSTORE POP POP PUSH2 0x180 ADD MSTORE SWAP12 SWAP11 POP POP POP POP POP POP POP POP POP POP POP JUMP JUMPDEST PUSH0 PUSH1 0x20 DUP3 DUP5 SUB SLT ISZERO PUSH2 0x1044 JUMPI PUSH0 DUP1 REVERT JUMPDEST POP CALLDATALOAD SWAP2 SWAP1 POP JUMP JUMPDEST PUSH1 0x20 DUP2 ADD PUSH2 0x1059 DUP3 DUP5 PUSH2 0xF85 JUMP JUMPDEST SWAP3 SWAP2 POP POP JUMP JUMPDEST PUSH1 0x1 DUP2 DUP2 SHR SWAP1 DUP3 AND DUP1 PUSH2 0x1073 JUMPI PUSH1 0x7F DUP3 AND SWAP2 POP JUMPDEST PUSH1 0x20 DUP3 LT DUP2 SUB PUSH2 0x5FE JUMPI PUSH4 0x4E487B71 PUSH1 0xE0 SHL PUSH0 MSTORE PUSH1 0x22 PUSH1 0x4 MSTORE PUSH1 0x24 PUSH0 REVERT JUMPDEST PUSH1 0x20 DUP1 DUP3 MSTORE PUSH1 0x30 SWAP1 DUP3 ADD MSTORE PUSH32 0x596F7520646F6E7420686176652061636365737320746F20706572666F726D20 PUSH1 0x40 DUP3 ADD MSTORE PUSH16 0x74686973206F7065726174696F6E2021 PUSH1 0x80 SHL PUSH1 0x60 DUP3 ADD MSTORE PUSH1 0x80 ADD SWAP1 JUMP JUMPDEST PUSH4 0x4E487B71 PUSH1 0xE0 SHL PUSH0 MSTORE PUSH1 0x32 PUSH1 0x4 MSTORE PUSH1 0x24 PUSH0 REVERT JUMPDEST PUSH4 0x4E487B71 PUSH1 0xE0 SHL PUSH0 MSTORE PUSH1 0x11 PUSH1 0x4 MSTORE PUSH1 0x24 PUSH0 REVERT JUMPDEST PUSH0 PUSH1 0x1 DUP3 ADD PUSH2 0x111A JUMPI PUSH2 0x111A PUSH2 0x10F5 JUMP JUMPDEST POP PUSH1 0x1 ADD SWAP1 JUMP JUMPDEST DUP1 DUP3 ADD DUP1 DUP3 GT ISZERO PUSH2 0x1059 JUMPI PUSH2 0x1059 PUSH2 0x10F5 JUMP JUMPDEST PUSH0 PUSH1 0x1 PUSH1 0x1 PUSH1 0xFF SHL ADD DUP3 ADD PUSH2 0x111A JUMPI PUSH2 0x111A PUSH2 0x10F5 JUMP INVALID LOG2 PUSH5 0x6970667358 0x22 SLT KECCAK256 BALANCE DUP8 SAR SELFDESTRUCT 0xE7 SWAP6 DUP16 LT 0xD SELFBALANCE 0x4B STOP GT 0xBD DUP14 0xB3 CALLVALUE JUMPI 0xBC SWAP9 MSIZE 0x4E DUP7 EXTCODESIZE PUSH15 0x96A173A85EDE6164736F6C63430008 ISZERO STOP CALLER "},"gasEstimates":{"creation":{"codeDepositCost":"896200","executionCost":"infinite","totalCost":"infinite"},"external":{"SCHEMES_COUNT()":"217","abortCampaignAndRefund()":"infinite","bannerUrl()":"infinite","campaignSchemeId()":"2428","contribute()":"infinite","creator()":"2348","deadline()":"2362","endCampaignAndCredit()":"infinite","getAllSchemeTitles()":"infinite","getCampaignSummary()":"infinite","getContractBalance()":"282","getSchemeTitle(uint256)":"infinite","minimumContribution()":"2339","noOfContributors()":"2406","projectDes()":"infinite","projectTitle()":"infinite","raisedAmount()":"2382","reachedTargetAt()":"2361","state()":"2428","targetContribution()":"2316"},"internal":{"getContributorContribution(address)":"infinite","getSchemeId(uint256)":"infinite","isFundingReachedTarget()":"52697"}},"methodIdentifiers":{"SCHEMES_COUNT()":"56f78a32","abortCampaignAndRefund()":"8d27289e","bannerUrl()":"7a9a8055","campaignSchemeId()":"6eef7d95","contribute()":"d7bb99ba","creator()":"02d05d3f","deadline()":"29dcb0cf","endCampaignAndCredit()":"3d0300bd","getAllSchemeTitles()":"6b0bad19","getCampaignSummary()":"a00c96d7","getContractBalance()":"6f9fb98a","getSchemeTitle(uint256)":"a66475a8","minimumContribution()":"937e09b1","noOfContributors()":"4e260f6f","projectDes()":"03c29d58","projectTitle()":"c3e20c9f","raisedAmount()":"c59ee1dc","reachedTargetAt()":"9d43b9b5","state()":"c19d93fb","targetContribution()":"b82c86d6"}},"storageLayout":{"storage":[{"astId":228,"contract":"contracts/CrowdHelp.sol:Campaign","label":"creator","offset":0,"slot":"0","type":"t_address_payable"},{"astId":230,"contract":"contracts/CrowdHelp.sol:Campaign","label":"minimumContribution","offset":0,"slot":"1","type":"t_uint256"},{"astId":232,"contract":"contracts/CrowdHelp.sol:Campaign","label":"deadline","offset":0,"slot":"2","type":"t_uint256"},{"astId":234,"contract":"contracts/CrowdHelp.sol:Campaign","label":"targetContribution","offset":0,"slot":"3","type":"t_uint256"},{"astId":236,"contract":"contracts/CrowdHelp.sol:Campaign","label":"reachedTargetAt","offset":0,"slot":"4","type":"t_uint256"},{"astId":238,"contract":"contracts/CrowdHelp.sol:Campaign","label":"raisedAmount","offset":0,"slot":"5","type":"t_uint256"},{"astId":240,"contract":"contracts/CrowdHelp.sol:Campaign","label":"noOfContributors","offset":0,"slot":"6","type":"t_uint256"},{"astId":242,"contract":"contracts/CrowdHelp.sol:Campaign","label":"projectTitle","offset":0,"slot":"7","type":"t_string_storage"},{"astId":244,"contract":"contracts/CrowdHelp.sol:Campaign","label":"projectDes","offset":0,"slot":"8","type":"t_string_storage"},{"astId":246,"contract":"contracts/CrowdHelp.sol:Campaign","label":"bannerUrl","offset":0,"slot":"9","type":"t_string_storage"},{"astId":251,"contract":"contracts/CrowdHelp.sol:Campaign","label":"state","offset":0,"slot":"10","type":"t_enum(State)92"},{"astId":254,"contract":"contracts/CrowdHelp.sol:Campaign","label":"campaignSchemeId","offset":1,"slot":"10","type":"t_enum(CampaignSchemeId)103"},{"astId":258,"contract":"contracts/CrowdHelp.sol:Campaign","label":"contributions","offset":0,"slot":"11","type":"t_array(t_struct(Contribution)97_storage)dyn_storage"}],"types":{"t_address_payable":{"encoding":"inplace","label":"address payable","numberOfBytes":"20"},"t_array(t_struct(Contribution)97_storage)dyn_storage":{"base":"t_struct(Contribution)97_storage","encoding":"dynamic_array","label":"struct Campaign.Contribution[]","numberOfBytes":"32"},"t_enum(CampaignSchemeId)103":{"encoding":"inplace","label":"enum Campaign.CampaignSchemeId","numberOfBytes":"1"},"t_enum(State)92":{"encoding":"inplace","label":"enum Campaign.State","numberOfBytes":"1"},"t_string_storage":{"encoding":"bytes","label":"string","numberOfBytes":"32"},"t_struct(Contribution)97_storage":{"encoding":"inplace","label":"struct Campaign.Contribution","members":[{"astId":94,"contract":"contracts/CrowdHelp.sol:Campaign","label":"contributor","offset":0,"slot":"0","type":"t_address_payable"},{"astId":96,"contract":"contracts/CrowdHelp.sol:Campaign","label":"amount","offset":0,"slot":"1","type":"t_uint256"}],"numberOfBytes":"64"},"t_uint256":{"encoding":"inplace","label":"uint256","numberOfBytes":"32"}}},"userdoc":{"kind":"user","methods":{},"version":1}}}}