{"contracts/CrowdHelp.sol":{"CrowdHelp":{"abi":[{"anonymous":false,"inputs":[{"indexed":false,"internalType":"string","name":"reason","type":"string"}],"name":"CampaignCreationFailed","type":"event"},{"anonymous":false,"inputs":[{"indexed":false,"internalType":"address","name":"projectContractAddress","type":"address"},{"indexed":false,"internalType":"address","name":"creator","type":"address"},{"indexed":false,"internalType":"uint256","name":"minContribution","type":"uint256"},{"indexed":false,"internalType":"uint256","name":"projectDeadline","type":"uint256"},{"indexed":false,"internalType":"uint256","name":"goalAmount","type":"uint256"},{"indexed":false,"internalType":"uint256","name":"currentAmount","type":"uint256"},{"indexed":false,"internalType":"uint256","name":"noOfContributors","type":"uint256"},{"indexed":false,"internalType":"string","name":"title","type":"string"},{"indexed":false,"internalType":"string","name":"desc","type":"string"},{"indexed":false,"internalType":"uint256","name":"currentState","type":"uint256"}],"name":"CampaignStarted","type":"event"},{"anonymous":false,"inputs":[{"indexed":false,"internalType":"address","name":"projectAddress","type":"address"},{"indexed":false,"internalType":"uint256","name":"contributedAmount","type":"uint256"},{"indexed":true,"internalType":"address","name":"contributor","type":"address"}],"name":"ContributionReceived","type":"event"},{"inputs":[{"internalType":"string","name":"projectTitle","type":"string"},{"internalType":"string","name":"projectDesc","type":"string"},{"internalType":"uint256","name":"minimumContribution","type":"uint256"},{"internalType":"uint256","name":"targetContribution","type":"uint256"},{"internalType":"uint256","name":"deadline","type":"uint256"},{"internalType":"string","name":"bannerUrl","type":"string"},{"internalType":"uint256","name":"campaignSchemeId","type":"uint256"}],"name":"createCampaign","outputs":[],"stateMutability":"nonpayable","type":"function"},{"inputs":[],"name":"returnDeployedCampaigns","outputs":[{"internalType":"contract Campaign[]","name":"","type":"address[]"}],"stateMutability":"view","type":"function"}],"devdoc":{"kind":"dev","methods":{},"version":1},"evm":{"bytecode":{"linkReferences":{},"object":"608060405234801561001057600080fd5b50611d65806100206000396000f3fe60806040523480156200001157600080fd5b50600436106200003a5760003560e01c80630f415b61146200003f578063e327e2141462000058575b600080fd5b6200005662000050366004620002c4565b6200007a565b005b620000626200015b565b6040516200007191906200043f565b60405180910390f35b620000bb6040518060400160405280601e81526020017f4372656174696e672063616d706169676e207769746820736368656d653a000081525082620001bf565b6000338685878b8b8888604051620000d3906200022d565b620000e6989796959493929190620003c7565b604051809103906000f08015801562000103573d6000803e3d6000fd5b50600080546001810182559080527f290decd9548b62a8d60345a988386fc84ba6bc95484008f6362f93160ef3e5630180546001600160a01b0319166001600160a01b03929092169190911790555050505050505050565b60606000805480602002602001604051908101604052809291908181526020018280548015620001b557602002820191906000526020600020905b81546001600160a01b0316815260019091019060200180831162000196575b5050505050905090565b620002088282604051602401620001d89291906200048e565b60408051601f198184030181529190526020810180516001600160e01b0316632d839cb360e21b1790526200020c565b5050565b80516a636f6e736f6c652e6c6f67602083016000808483855afa5050505050565b61186780620004c983390190565b600082601f8301126200024c578081fd5b813567ffffffffffffffff808211156200026a576200026a620004b2565b604051601f8301601f191681016020018281118282101715620002915762000291620004b2565b604052828152848301602001861015620002a9578384fd5b82602086016020830137918201602001929092529392505050565b600080600080600080600060e0888a031215620002df578283fd5b873567ffffffffffffffff80821115620002f7578485fd5b620003058b838c016200023b565b985060208a01359150808211156200031b578485fd5b620003298b838c016200023b565b975060408a0135965060608a0135955060808a0135945060a08a013591508082111562000354578384fd5b50620003638a828b016200023b565b92505060c0880135905092959891949750929550565b60008151808452815b81811015620003a05760208185018101518683018201520162000382565b81811115620003b25782602083870101525b50601f01601f19169290920160200192915050565b600061010060018060a01b038b168352896020840152886040840152876060840152806080840152620003fd8184018862000379565b905082810360a084015262000413818762000379565b905082810360c084015262000429818662000379565b9150508260e08301529998505050505050505050565b6020808252825182820181905260009190848201906040850190845b81811015620004825783516001600160a01b0316835292840192918401916001016200045b565b50909695505050505050565b600060408252620004a3604083018562000379565b90508260208301529392505050565b634e487b7160e01b600052604160045260246000fdfe6080604052600a805460ff191690553480156200001b57600080fd5b5060405162001867380380620018678339810160408190526200003e916200048d565b620000896040518060400160405280601381526020017f436f6e7374727563746f722072656163686564000000000000000000000000008152506200024960201b62000b261760201c565b60028110620000b55760405162461bcd60e51b8152600401620000ac9062000611565b60405180910390fd5b620001016040518060400160405280601781526020017f63616d706169676e536368656d654964202875696e7429000000000000000000815250826200029760201b62000b6c1760201c565b6200014f6040518060400160405280601381526020017f6d696e696d756d436f6e747269627574696f6e000000000000000000000000008152506001546200029760201b62000b6c1760201c565b7f5cdc4ab8d637538ead6cc1904d4160343656c8c82bd266635cfd31ac008fffe033600080604051620001859392919062000584565b60405180910390a1600080546001600160a01b0319166001600160a01b038a161790556001879055600286905560038590558351620001cc90600790602087019062000346565b508251620001e290600890602086019062000346565b5060006005558151620001fd90600990602085019062000346565b506200020981620002e8565b600a805461ff0019166101008360018111156200023657634e487b7160e01b600052602160045260246000fd5b02179055505050505050505050620006c2565b6200029481604051602401620002609190620005a5565b60408051601f198184030181529190526020810180516001600160e01b0390811663104c13eb60e21b179091526200032516565b50565b620002e48282604051602401620002b0929190620005c1565b60408051601f198184030181529190526020810180516001600160e01b03908116632d839cb360e21b179091526200032516565b5050565b6000600282106200030d5760405162461bcd60e51b8152600401620000ac90620005e5565b816200031c5750600062000320565b5060015b919050565b80516a636f6e736f6c652e6c6f67602083016000808483855afa5050505050565b82805462000354906200066f565b90600052602060002090601f016020900481019282620003785760008555620003c3565b82601f106200039357805160ff1916838001178555620003c3565b82800160010185558215620003c3579182015b82811115620003c3578251825591602001919060010190620003a6565b50620003d1929150620003d5565b5090565b5b80821115620003d15760008155600101620003d6565b80516001600160a01b03811681146200032057600080fd5b600082601f83011262000415578081fd5b81516001600160401b0380821115620004325762000432620006ac565b604051601f8301601f191681016020018281118282101715620004595762000459620006ac565b60405282815284830160200186101562000471578384fd5b620004848360208301602088016200063c565b95945050505050565b600080600080600080600080610100898b031215620004aa578384fd5b620004b589620003ec565b60208a015160408b015160608c015160808d0151939b50919950975095506001600160401b0380821115620004e8578586fd5b620004f68c838d0162000404565b955060a08b01519150808211156200050c578485fd5b6200051a8c838d0162000404565b945060c08b015191508082111562000530578384fd5b506200053f8b828c0162000404565b92505060e089015190509295985092959890939650565b60008151808452620005708160208601602086016200063c565b601f01601f19169290920160200192915050565b6001600160a01b039390931683526020830191909152604082015260600190565b600060208252620005ba602083018462000556565b9392505050565b600060408252620005d6604083018562000556565b90508260208301529392505050565b602080825260129082015271496e646578206f7574206f662072616e676560701b604082015260600190565b602080825260119082015270125b9d985b1a59081cd8da195b59481a59607a1b604082015260600190565b60005b83811015620006595781810151838201526020016200063f565b8381111562000669576000848401525b50505050565b6002810460018216806200068457607f821691505b60208210811415620006a657634e487b7160e01b600052602260045260246000fd5b50919050565b634e487b7160e01b600052604160045260246000fd5b61119580620006d26000396000f3fe6080604052600436106100fe5760003560e01c80638d27289e11610095578063b82c86d611610064578063b82c86d61461023d578063c19d93fb14610252578063c3e20c9f14610274578063c59ee1dc14610289578063d7bb99ba1461029e576100fe565b80638d27289e146101dd578063937e09b1146101e55780639d43b9b5146101fa578063a00c96d71461020f576100fe565b80634e260f6f116100d15780634e260f6f1461017c5780636eef7d95146101915780636f9fb98a146101b35780637a9a8055146101c8576100fe565b806302d05d3f1461010357806303c29d581461012e57806329dcb0cf146101505780633d0300bd14610172575b600080fd5b34801561010f57600080fd5b506101186102a6565b6040516101259190610cd6565b60405180910390f35b34801561013a57600080fd5b506101436102b5565b6040516101259190610dee565b34801561015c57600080fd5b50610165610343565b6040516101259190611099565b61017a610349565b005b34801561018857600080fd5b50610165610474565b34801561019d57600080fd5b506101a661047a565b6040516101259190610dc0565b3480156101bf57600080fd5b50610165610488565b3480156101d457600080fd5b5061014361048c565b61017a610499565b3480156101f157600080fd5b5061016561069f565b34801561020657600080fd5b506101656106a5565b34801561021b57600080fd5b506102246106ab565b6040516101259d9c9b9a99989796959493929190610d24565b34801561024957600080fd5b506101656108e0565b34801561025e57600080fd5b506102676108e6565b6040516101259190610dda565b34801561028057600080fd5b506101436108ef565b34801561029557600080fd5b506101656108fc565b61017a610902565b6000546001600160a01b031681565b600880546102c2906110c8565b80601f01602080910402602001604051908101604052809291908181526020018280546102ee906110c8565b801561033b5780601f106103105761010080835404028352916020019161033b565b820191906000526020600020905b81548152906001019060200180831161031e57829003601f168201915b505050505081565b60025481565b6000546001600160a01b0316331461037c5760405162461bcd60e51b815260040161037390610ebe565b60405180910390fd5b6001600a5460ff1660038111156103a357634e487b7160e01b600052602160045260246000fd5b146103c05760405162461bcd60e51b815260040161037390610f0e565b60025442106103e15760405162461bcd60e51b815260040161037390610e2a565b600080546005546040516001600160a01b039092169281156108fc029290818181858888f1935050505015801561041c573d6000803e3d6000fd5b50600a805460ff191660021790556000546005546040517fc364254574c58e1bdd9077b0e35e609ee391ca636748a275674d5fb5bdc1d3f69261046a926001600160a01b0390911691610cea565b60405180910390a1565b60065481565b600a54610100900460ff1681565b4790565b600980546102c2906110c8565b6000546001600160a01b031633146104c35760405162461bcd60e51b815260040161037390610ebe565b60025442106104e45760405162461bcd60e51b81526004016103739061104d565b6000600a5460ff16600381111561050b57634e487b7160e01b600052602160045260246000fd5b148061053b57506001600a5460ff16600381111561053957634e487b7160e01b600052602160045260246000fd5b145b6105575760405162461bcd60e51b815260040161037390610e79565b60005b60065481101561065b57600b818154811061058557634e487b7160e01b600052603260045260246000fd5b6000918252602090912060029091020154600b80546001600160a01b03909216916108fc9190849081106105c957634e487b7160e01b600052603260045260246000fd5b9060005260206000209060020201600101549081150290604051600060405180830381858888f19350505050158015610606573d6000803e3d6000fd5b50600b818154811061062857634e487b7160e01b600052603260045260246000fd5b60009182526020822060029091020180546001600160a01b0319168155600101558061065381611123565b91505061055a565b50600a805460ff191660031790556006546005546040517fd69eae259b3e1e42f22f60a8a54dbf4d1983d006a10d5f36c068ccc87eb493919261046a9290916110a2565b60015481565b60045481565b60008054600154600254600354600454600554600780546001600160a01b0390971697959694959394929391926060928392909182918491839182916106f0906110c8565b80601f016020809104026020016040519081016040528092919081815260200182805461071c906110c8565b80156107695780601f1061073e57610100808354040283529160200191610769565b820191906000526020600020905b81548152906001019060200180831161074c57829003601f168201915b505050505096506008805461077d906110c8565b80601f01602080910402602001604051908101604052809291908181526020018280546107a9906110c8565b80156107f65780601f106107cb576101008083540402835291602001916107f6565b820191906000526020600020905b8154815290600101906020018083116107d957829003601f168201915b5050600a5460098054959b5060ff90911699504798509361081b935091506110c89050565b80601f0160208091040260200160405190810160405280929190818152602001828054610847906110c8565b80156108945780601f1061086957610100808354040283529160200191610894565b820191906000526020600020905b81548152906001019060200180831161087757829003601f168201915b505050505092506006549150600a60019054906101000a900460ff1660018111156108cf57634e487b7160e01b600052602160045260246000fd5b9050909192939495969798999a9b9c565b60035481565b600a5460ff1681565b600780546102c2906110c8565b60055481565b6000600a5460ff16600381111561092957634e487b7160e01b600052602160045260246000fd5b148061095957506001600a5460ff16600381111561095757634e487b7160e01b600052602160045260246000fd5b145b6109755760405162461bcd60e51b815260040161037390610f83565b60025442106109965760405162461bcd60e51b815260040161037390610fdf565b6001543410156109b85760405162461bcd60e51b815260040161037390610faa565b3360006109c482610bb1565b9050806000191415610a7e57600680549060006109e083611123565b9091555050604080518082019091526001600160a01b0383811682523460208301908152600b805460018101825560009190915292517f0175b7a638427703f0dbe7bb9bbf987a2551717b34e79f33b5b1008d1fa01db9600290940293840180546001600160a01b0319169190931617909155517f0175b7a638427703f0dbe7bb9bbf987a2551717b34e79f33b5b1008d1fa01dba90910155610ac6565b34600b8281548110610aa057634e487b7160e01b600052603260045260246000fd5b90600052602060002090600202016001016000828254610ac091906110b0565b90915550505b3460056000828254610ad891906110b0565b90915550506005546040517f5cdc4ab8d637538ead6cc1904d4160343656c8c82bd266635cfd31ac008fffe091610b129185913491610d03565b60405180910390a1610b22610c28565b5050565b610b6981604051602401610b3a9190610dee565b60408051601f198184030181529190526020810180516001600160e01b031663104c13eb60e21b179052610c56565b50565b610b228282604051602401610b82929190610e08565b60408051601f198184030181529190526020810180516001600160e01b0316632d839cb360e21b179052610c56565b6000600019815b600654811215610c2157600b8181548110610be357634e487b7160e01b600052603260045260246000fd5b60009182526020909120600290910201546001600160a01b0385811691161415610c0f57809150610c21565b80610c1981611103565b915050610bb8565b5092915050565b60035460055410158015610c3d575060025442105b15610c5457600a805460ff19166001179055426004555b565b80516a636f6e736f6c652e6c6f67602083016000808483855afa5050505050565b60048110610c8757610c87611149565b9052565b60008151808452815b81811015610cb057602081850181015186830182015201610c94565b81811115610cc15782602083870101525b50601f01601f19169290920160200192915050565b6001600160a01b0391909116815260200190565b6001600160a01b03929092168252602082015260400190565b6001600160a01b039390931683526020830191909152604082015260600190565b600060018060a01b038f1682528d60208301528c60408301528b60608301528a60808301528960a08301526101a060c0830152610d656101a083018a610c8b565b82810360e0840152610d77818a610c8b565b9050610d87610100840189610c77565b86610120840152828103610140840152610da18187610c8b565b610160840195909552505061018001529b9a5050505050505050505050565b6020810160028310610dd457610dd4611149565b91905290565b60208101610de88284610c77565b92915050565b600060208252610e016020830184610c8b565b9392505050565b600060408252610e1b6040830185610c8b565b90508260208301529392505050565b6020808252602f908201527f43616d706169676e2063616e6e6f7420626520656e6465642c20646561646c6960408201526e3732903737ba103932b0b1b432b21760891b606082015260800190565b60208082526025908201527f496e76616c69642073746174652e2043616e6e6f742061626f72742063616d7060408201526430b4b3b71760d91b606082015260800190565b60208082526030908201527f596f7520646f6e7420686176652061636365737320746f20706572666f726d2060408201526f74686973206f7065726174696f6e202160801b606082015260800190565b6020808252604f908201527f476f616c206e6f7420726561636865642c20616d6f756e742063616e6e6f742060408201527f62652077697468647261776e2e20506c656173652061626f727420746f20726560608201526e66756e6420746f206261636b65727360881b608082015260a00190565b6020808252600d908201526c496e76616c696420737461746560981b604082015260600190565b6020808252818101527f436f6e747269627574696f6e20616d6f756e7420697320746f6f206c6f772021604082015260600190565b60208082526048908201527f536f727279206261636b65722c20646561646c696e652068617320706173736560408201527f6421204e6f20636f6e747269627574696f6e732063616e2062652061636365706060820152673a32b2103737bb9760c11b608082015260a00190565b6020808252602c908201527f43616d706169676e2063616e6e6f742062652061626f727465642c206465616460408201526b3634b732903830b9b9b2b21760a11b606082015260800190565b90815260200190565b918252602082015260400190565b600082198211156110c3576110c3611133565b500190565b6002810460018216806110dc57607f821691505b602082108114156110fd57634e487b7160e01b600052602260045260246000fd5b50919050565b60006001600160ff1b0382141561111c5761111c611133565b5060010190565b600060001982141561111c5761111c5b634e487b7160e01b600052601160045260246000fd5b634e487b7160e01b600052602160045260246000fdfea26469706673582212209a25fe179d686cc972bb8d057039b54984121d81bbb7977a97e7774f739ca1d964736f6c63430008000033a2646970667358221220cc7a1b1d96e65dedd0536aadf13cbc07e1f8ebb2c35d3a33c828da71e66e341364736f6c63430008000033","opcodes":"PUSH1 0x80 PUSH1 0x40 MSTORE CALLVALUE DUP1 ISZERO PUSH2 0x10 JUMPI PUSH1 0x0 DUP1 REVERT JUMPDEST POP PUSH2 0x1D65 DUP1 PUSH2 0x20 PUSH1 0x0 CODECOPY PUSH1 0x0 RETURN INVALID PUSH1 0x80 PUSH1 0x40 MSTORE CALLVALUE DUP1 ISZERO PUSH3 0x11 JUMPI PUSH1 0x0 DUP1 REVERT JUMPDEST POP PUSH1 0x4 CALLDATASIZE LT PUSH3 0x3A JUMPI PUSH1 0x0 CALLDATALOAD PUSH1 0xE0 SHR DUP1 PUSH4 0xF415B61 EQ PUSH3 0x3F JUMPI DUP1 PUSH4 0xE327E214 EQ PUSH3 0x58 JUMPI JUMPDEST PUSH1 0x0 DUP1 REVERT JUMPDEST PUSH3 0x56 PUSH3 0x50 CALLDATASIZE PUSH1 0x4 PUSH3 0x2C4 JUMP JUMPDEST PUSH3 0x7A JUMP JUMPDEST STOP JUMPDEST PUSH3 0x62 PUSH3 0x15B JUMP JUMPDEST PUSH1 0x40 MLOAD PUSH3 0x71 SWAP2 SWAP1 PUSH3 0x43F JUMP JUMPDEST PUSH1 0x40 MLOAD DUP1 SWAP2 SUB SWAP1 RETURN JUMPDEST PUSH3 0xBB PUSH1 0x40 MLOAD DUP1 PUSH1 0x40 ADD PUSH1 0x40 MSTORE DUP1 PUSH1 0x1E DUP2 MSTORE PUSH1 0x20 ADD PUSH32 0x4372656174696E672063616D706169676E207769746820736368656D653A0000 DUP2 MSTORE POP DUP3 PUSH3 0x1BF JUMP JUMPDEST PUSH1 0x0 CALLER DUP7 DUP6 DUP8 DUP12 DUP12 DUP9 DUP9 PUSH1 0x40 MLOAD PUSH3 0xD3 SWAP1 PUSH3 0x22D JUMP JUMPDEST PUSH3 0xE6 SWAP9 SWAP8 SWAP7 SWAP6 SWAP5 SWAP4 SWAP3 SWAP2 SWAP1 PUSH3 0x3C7 JUMP JUMPDEST PUSH1 0x40 MLOAD DUP1 SWAP2 SUB SWAP1 PUSH1 0x0 CREATE DUP1 ISZERO DUP1 ISZERO PUSH3 0x103 JUMPI RETURNDATASIZE PUSH1 0x0 DUP1 RETURNDATACOPY RETURNDATASIZE PUSH1 0x0 REVERT JUMPDEST POP PUSH1 0x0 DUP1 SLOAD PUSH1 0x1 DUP2 ADD DUP3 SSTORE SWAP1 DUP1 MSTORE PUSH32 0x290DECD9548B62A8D60345A988386FC84BA6BC95484008F6362F93160EF3E563 ADD DUP1 SLOAD PUSH1 0x1 PUSH1 0x1 PUSH1 0xA0 SHL SUB NOT AND PUSH1 0x1 PUSH1 0x1 PUSH1 0xA0 SHL SUB SWAP3 SWAP1 SWAP3 AND SWAP2 SWAP1 SWAP2 OR SWAP1 SSTORE POP POP POP POP POP POP POP POP JUMP JUMPDEST PUSH1 0x60 PUSH1 0x0 DUP1 SLOAD DUP1 PUSH1 0x20 MUL PUSH1 0x20 ADD PUSH1 0x40 MLOAD SWAP1 DUP2 ADD PUSH1 0x40 MSTORE DUP1 SWAP3 SWAP2 SWAP1 DUP2 DUP2 MSTORE PUSH1 0x20 ADD DUP3 DUP1 SLOAD DUP1 ISZERO PUSH3 0x1B5 JUMPI PUSH1 0x20 MUL DUP3 ADD SWAP2 SWAP1 PUSH1 0x0 MSTORE PUSH1 0x20 PUSH1 0x0 KECCAK256 SWAP1 JUMPDEST DUP2 SLOAD PUSH1 0x1 PUSH1 0x1 PUSH1 0xA0 SHL SUB AND DUP2 MSTORE PUSH1 0x1 SWAP1 SWAP2 ADD SWAP1 PUSH1 0x20 ADD DUP1 DUP4 GT PUSH3 0x196 JUMPI JUMPDEST POP POP POP POP POP SWAP1 POP SWAP1 JUMP JUMPDEST PUSH3 0x208 DUP3 DUP3 PUSH1 0x40 MLOAD PUSH1 0x24 ADD PUSH3 0x1D8 SWAP3 SWAP2 SWAP1 PUSH3 0x48E JUMP JUMPDEST PUSH1 0x40 DUP1 MLOAD PUSH1 0x1F NOT DUP2 DUP5 SUB ADD DUP2 MSTORE SWAP2 SWAP1 MSTORE PUSH1 0x20 DUP2 ADD DUP1 MLOAD PUSH1 0x1 PUSH1 0x1 PUSH1 0xE0 SHL SUB AND PUSH4 0x2D839CB3 PUSH1 0xE2 SHL OR SWAP1 MSTORE PUSH3 0x20C JUMP JUMPDEST POP POP JUMP JUMPDEST DUP1 MLOAD PUSH11 0x636F6E736F6C652E6C6F67 PUSH1 0x20 DUP4 ADD PUSH1 0x0 DUP1 DUP5 DUP4 DUP6 GAS STATICCALL POP POP POP POP POP JUMP JUMPDEST PUSH2 0x1867 DUP1 PUSH3 0x4C9 DUP4 CODECOPY ADD SWAP1 JUMP JUMPDEST PUSH1 0x0 DUP3 PUSH1 0x1F DUP4 ADD SLT PUSH3 0x24C JUMPI DUP1 DUP2 REVERT JUMPDEST DUP2 CALLDATALOAD PUSH8 0xFFFFFFFFFFFFFFFF DUP1 DUP3 GT ISZERO PUSH3 0x26A JUMPI PUSH3 0x26A PUSH3 0x4B2 JUMP JUMPDEST PUSH1 0x40 MLOAD PUSH1 0x1F DUP4 ADD PUSH1 0x1F NOT AND DUP2 ADD PUSH1 0x20 ADD DUP3 DUP2 GT DUP3 DUP3 LT OR ISZERO PUSH3 0x291 JUMPI PUSH3 0x291 PUSH3 0x4B2 JUMP JUMPDEST PUSH1 0x40 MSTORE DUP3 DUP2 MSTORE DUP5 DUP4 ADD PUSH1 0x20 ADD DUP7 LT ISZERO PUSH3 0x2A9 JUMPI DUP4 DUP5 REVERT JUMPDEST DUP3 PUSH1 0x20 DUP7 ADD PUSH1 0x20 DUP4 ADD CALLDATACOPY SWAP2 DUP3 ADD PUSH1 0x20 ADD SWAP3 SWAP1 SWAP3 MSTORE SWAP4 SWAP3 POP POP POP JUMP JUMPDEST PUSH1 0x0 DUP1 PUSH1 0x0 DUP1 PUSH1 0x0 DUP1 PUSH1 0x0 PUSH1 0xE0 DUP9 DUP11 SUB SLT ISZERO PUSH3 0x2DF JUMPI DUP3 DUP4 REVERT JUMPDEST DUP8 CALLDATALOAD PUSH8 0xFFFFFFFFFFFFFFFF DUP1 DUP3 GT ISZERO PUSH3 0x2F7 JUMPI DUP5 DUP6 REVERT JUMPDEST PUSH3 0x305 DUP12 DUP4 DUP13 ADD PUSH3 0x23B JUMP JUMPDEST SWAP9 POP PUSH1 0x20 DUP11 ADD CALLDATALOAD SWAP2 POP DUP1 DUP3 GT ISZERO PUSH3 0x31B JUMPI DUP5 DUP6 REVERT JUMPDEST PUSH3 0x329 DUP12 DUP4 DUP13 ADD PUSH3 0x23B JUMP JUMPDEST SWAP8 POP PUSH1 0x40 DUP11 ADD CALLDATALOAD SWAP7 POP PUSH1 0x60 DUP11 ADD CALLDATALOAD SWAP6 POP PUSH1 0x80 DUP11 ADD CALLDATALOAD SWAP5 POP PUSH1 0xA0 DUP11 ADD CALLDATALOAD SWAP2 POP DUP1 DUP3 GT ISZERO PUSH3 0x354 JUMPI DUP4 DUP5 REVERT JUMPDEST POP PUSH3 0x363 DUP11 DUP3 DUP12 ADD PUSH3 0x23B JUMP JUMPDEST SWAP3 POP POP PUSH1 0xC0 DUP9 ADD CALLDATALOAD SWAP1 POP SWAP3 SWAP6 SWAP9 SWAP2 SWAP5 SWAP8 POP SWAP3 SWAP6 POP JUMP JUMPDEST PUSH1 0x0 DUP2 MLOAD DUP1 DUP5 MSTORE DUP2 JUMPDEST DUP2 DUP2 LT ISZERO PUSH3 0x3A0 JUMPI PUSH1 0x20 DUP2 DUP6 ADD DUP2 ADD MLOAD DUP7 DUP4 ADD DUP3 ADD MSTORE ADD PUSH3 0x382 JUMP JUMPDEST DUP2 DUP2 GT ISZERO PUSH3 0x3B2 JUMPI DUP3 PUSH1 0x20 DUP4 DUP8 ADD ADD MSTORE JUMPDEST POP PUSH1 0x1F ADD PUSH1 0x1F NOT AND SWAP3 SWAP1 SWAP3 ADD PUSH1 0x20 ADD SWAP3 SWAP2 POP POP JUMP JUMPDEST PUSH1 0x0 PUSH2 0x100 PUSH1 0x1 DUP1 PUSH1 0xA0 SHL SUB DUP12 AND DUP4 MSTORE DUP10 PUSH1 0x20 DUP5 ADD MSTORE DUP9 PUSH1 0x40 DUP5 ADD MSTORE DUP8 PUSH1 0x60 DUP5 ADD MSTORE DUP1 PUSH1 0x80 DUP5 ADD MSTORE PUSH3 0x3FD DUP2 DUP5 ADD DUP9 PUSH3 0x379 JUMP JUMPDEST SWAP1 POP DUP3 DUP2 SUB PUSH1 0xA0 DUP5 ADD MSTORE PUSH3 0x413 DUP2 DUP8 PUSH3 0x379 JUMP JUMPDEST SWAP1 POP DUP3 DUP2 SUB PUSH1 0xC0 DUP5 ADD MSTORE PUSH3 0x429 DUP2 DUP7 PUSH3 0x379 JUMP JUMPDEST SWAP2 POP POP DUP3 PUSH1 0xE0 DUP4 ADD MSTORE SWAP10 SWAP9 POP POP POP POP POP POP POP POP POP JUMP JUMPDEST PUSH1 0x20 DUP1 DUP3 MSTORE DUP3 MLOAD DUP3 DUP3 ADD DUP2 SWAP1 MSTORE PUSH1 0x0 SWAP2 SWAP1 DUP5 DUP3 ADD SWAP1 PUSH1 0x40 DUP6 ADD SWAP1 DUP5 JUMPDEST DUP2 DUP2 LT ISZERO PUSH3 0x482 JUMPI DUP4 MLOAD PUSH1 0x1 PUSH1 0x1 PUSH1 0xA0 SHL SUB AND DUP4 MSTORE SWAP3 DUP5 ADD SWAP3 SWAP2 DUP5 ADD SWAP2 PUSH1 0x1 ADD PUSH3 0x45B JUMP JUMPDEST POP SWAP1 SWAP7 SWAP6 POP POP POP POP POP POP JUMP JUMPDEST PUSH1 0x0 PUSH1 0x40 DUP3 MSTORE PUSH3 0x4A3 PUSH1 0x40 DUP4 ADD DUP6 PUSH3 0x379 JUMP JUMPDEST SWAP1 POP DUP3 PUSH1 0x20 DUP4 ADD MSTORE SWAP4 SWAP3 POP POP POP JUMP JUMPDEST PUSH4 0x4E487B71 PUSH1 0xE0 SHL PUSH1 0x0 MSTORE PUSH1 0x41 PUSH1 0x4 MSTORE PUSH1 0x24 PUSH1 0x0 REVERT INVALID PUSH1 0x80 PUSH1 0x40 MSTORE PUSH1 0xA DUP1 SLOAD PUSH1 0xFF NOT AND SWAP1 SSTORE CALLVALUE DUP1 ISZERO PUSH3 0x1B JUMPI PUSH1 0x0 DUP1 REVERT JUMPDEST POP PUSH1 0x40 MLOAD PUSH3 0x1867 CODESIZE SUB DUP1 PUSH3 0x1867 DUP4 CODECOPY DUP2 ADD PUSH1 0x40 DUP2 SWAP1 MSTORE PUSH3 0x3E SWAP2 PUSH3 0x48D JUMP JUMPDEST PUSH3 0x89 PUSH1 0x40 MLOAD DUP1 PUSH1 0x40 ADD PUSH1 0x40 MSTORE DUP1 PUSH1 0x13 DUP2 MSTORE PUSH1 0x20 ADD PUSH32 0x436F6E7374727563746F72207265616368656400000000000000000000000000 DUP2 MSTORE POP PUSH3 0x249 PUSH1 0x20 SHL PUSH3 0xB26 OR PUSH1 0x20 SHR JUMP JUMPDEST PUSH1 0x2 DUP2 LT PUSH3 0xB5 JUMPI PUSH1 0x40 MLOAD PUSH3 0x461BCD PUSH1 0xE5 SHL DUP2 MSTORE PUSH1 0x4 ADD PUSH3 0xAC SWAP1 PUSH3 0x611 JUMP JUMPDEST PUSH1 0x40 MLOAD DUP1 SWAP2 SUB SWAP1 REVERT JUMPDEST PUSH3 0x101 PUSH1 0x40 MLOAD DUP1 PUSH1 0x40 ADD PUSH1 0x40 MSTORE DUP1 PUSH1 0x17 DUP2 MSTORE PUSH1 0x20 ADD PUSH32 0x63616D706169676E536368656D654964202875696E7429000000000000000000 DUP2 MSTORE POP DUP3 PUSH3 0x297 PUSH1 0x20 SHL PUSH3 0xB6C OR PUSH1 0x20 SHR JUMP JUMPDEST PUSH3 0x14F PUSH1 0x40 MLOAD DUP1 PUSH1 0x40 ADD PUSH1 0x40 MSTORE DUP1 PUSH1 0x13 DUP2 MSTORE PUSH1 0x20 ADD PUSH32 0x6D696E696D756D436F6E747269627574696F6E00000000000000000000000000 DUP2 MSTORE POP PUSH1 0x1 SLOAD PUSH3 0x297 PUSH1 0x20 SHL PUSH3 0xB6C OR PUSH1 0x20 SHR JUMP JUMPDEST PUSH32 0x5CDC4AB8D637538EAD6CC1904D4160343656C8C82BD266635CFD31AC008FFFE0 CALLER PUSH1 0x0 DUP1 PUSH1 0x40 MLOAD PUSH3 0x185 SWAP4 SWAP3 SWAP2 SWAP1 PUSH3 0x584 JUMP JUMPDEST PUSH1 0x40 MLOAD DUP1 SWAP2 SUB SWAP1 LOG1 PUSH1 0x0 DUP1 SLOAD PUSH1 0x1 PUSH1 0x1 PUSH1 0xA0 SHL SUB NOT AND PUSH1 0x1 PUSH1 0x1 PUSH1 0xA0 SHL SUB DUP11 AND OR SWAP1 SSTORE PUSH1 0x1 DUP8 SWAP1 SSTORE PUSH1 0x2 DUP7 SWAP1 SSTORE PUSH1 0x3 DUP6 SWAP1 SSTORE DUP4 MLOAD PUSH3 0x1CC SWAP1 PUSH1 0x7 SWAP1 PUSH1 0x20 DUP8 ADD SWAP1 PUSH3 0x346 JUMP JUMPDEST POP DUP3 MLOAD PUSH3 0x1E2 SWAP1 PUSH1 0x8 SWAP1 PUSH1 0x20 DUP7 ADD SWAP1 PUSH3 0x346 JUMP JUMPDEST POP PUSH1 0x0 PUSH1 0x5 SSTORE DUP2 MLOAD PUSH3 0x1FD SWAP1 PUSH1 0x9 SWAP1 PUSH1 0x20 DUP6 ADD SWAP1 PUSH3 0x346 JUMP JUMPDEST POP PUSH3 0x209 DUP2 PUSH3 0x2E8 JUMP JUMPDEST PUSH1 0xA DUP1 SLOAD PUSH2 0xFF00 NOT AND PUSH2 0x100 DUP4 PUSH1 0x1 DUP2 GT ISZERO PUSH3 0x236 JUMPI PUSH4 0x4E487B71 PUSH1 0xE0 SHL PUSH1 0x0 MSTORE PUSH1 0x21 PUSH1 0x4 MSTORE PUSH1 0x24 PUSH1 0x0 REVERT JUMPDEST MUL OR SWAP1 SSTORE POP POP POP POP POP POP POP POP POP PUSH3 0x6C2 JUMP JUMPDEST PUSH3 0x294 DUP2 PUSH1 0x40 MLOAD PUSH1 0x24 ADD PUSH3 0x260 SWAP2 SWAP1 PUSH3 0x5A5 JUMP JUMPDEST PUSH1 0x40 DUP1 MLOAD PUSH1 0x1F NOT DUP2 DUP5 SUB ADD DUP2 MSTORE SWAP2 SWAP1 MSTORE PUSH1 0x20 DUP2 ADD DUP1 MLOAD PUSH1 0x1 PUSH1 0x1 PUSH1 0xE0 SHL SUB SWAP1 DUP2 AND PUSH4 0x104C13EB PUSH1 0xE2 SHL OR SWAP1 SWAP2 MSTORE PUSH3 0x325 AND JUMP JUMPDEST POP JUMP JUMPDEST PUSH3 0x2E4 DUP3 DUP3 PUSH1 0x40 MLOAD PUSH1 0x24 ADD PUSH3 0x2B0 SWAP3 SWAP2 SWAP1 PUSH3 0x5C1 JUMP JUMPDEST PUSH1 0x40 DUP1 MLOAD PUSH1 0x1F NOT DUP2 DUP5 SUB ADD DUP2 MSTORE SWAP2 SWAP1 MSTORE PUSH1 0x20 DUP2 ADD DUP1 MLOAD PUSH1 0x1 PUSH1 0x1 PUSH1 0xE0 SHL SUB SWAP1 DUP2 AND PUSH4 0x2D839CB3 PUSH1 0xE2 SHL OR SWAP1 SWAP2 MSTORE PUSH3 0x325 AND JUMP JUMPDEST POP POP JUMP JUMPDEST PUSH1 0x0 PUSH1 0x2 DUP3 LT PUSH3 0x30D JUMPI PUSH1 0x40 MLOAD PUSH3 0x461BCD PUSH1 0xE5 SHL DUP2 MSTORE PUSH1 0x4 ADD PUSH3 0xAC SWAP1 PUSH3 0x5E5 JUMP JUMPDEST DUP2 PUSH3 0x31C JUMPI POP PUSH1 0x0 PUSH3 0x320 JUMP JUMPDEST POP PUSH1 0x1 JUMPDEST SWAP2 SWAP1 POP JUMP JUMPDEST DUP1 MLOAD PUSH11 0x636F6E736F6C652E6C6F67 PUSH1 0x20 DUP4 ADD PUSH1 0x0 DUP1 DUP5 DUP4 DUP6 GAS STATICCALL POP POP POP POP POP JUMP JUMPDEST DUP3 DUP1 SLOAD PUSH3 0x354 SWAP1 PUSH3 0x66F JUMP JUMPDEST SWAP1 PUSH1 0x0 MSTORE PUSH1 0x20 PUSH1 0x0 KECCAK256 SWAP1 PUSH1 0x1F ADD PUSH1 0x20 SWAP1 DIV DUP2 ADD SWAP3 DUP3 PUSH3 0x378 JUMPI PUSH1 0x0 DUP6 SSTORE PUSH3 0x3C3 JUMP JUMPDEST DUP3 PUSH1 0x1F LT PUSH3 0x393 JUMPI DUP1 MLOAD PUSH1 0xFF NOT AND DUP4 DUP1 ADD OR DUP6 SSTORE PUSH3 0x3C3 JUMP JUMPDEST DUP3 DUP1 ADD PUSH1 0x1 ADD DUP6 SSTORE DUP3 ISZERO PUSH3 0x3C3 JUMPI SWAP2 DUP3 ADD JUMPDEST DUP3 DUP2 GT ISZERO PUSH3 0x3C3 JUMPI DUP3 MLOAD DUP3 SSTORE SWAP2 PUSH1 0x20 ADD SWAP2 SWAP1 PUSH1 0x1 ADD SWAP1 PUSH3 0x3A6 JUMP JUMPDEST POP PUSH3 0x3D1 SWAP3 SWAP2 POP PUSH3 0x3D5 JUMP JUMPDEST POP SWAP1 JUMP JUMPDEST JUMPDEST DUP1 DUP3 GT ISZERO PUSH3 0x3D1 JUMPI PUSH1 0x0 DUP2 SSTORE PUSH1 0x1 ADD PUSH3 0x3D6 JUMP JUMPDEST DUP1 MLOAD PUSH1 0x1 PUSH1 0x1 PUSH1 0xA0 SHL SUB DUP2 AND DUP2 EQ PUSH3 0x320 JUMPI PUSH1 0x0 DUP1 REVERT JUMPDEST PUSH1 0x0 DUP3 PUSH1 0x1F DUP4 ADD SLT PUSH3 0x415 JUMPI DUP1 DUP2 REVERT JUMPDEST DUP2 MLOAD PUSH1 0x1 PUSH1 0x1 PUSH1 0x40 SHL SUB DUP1 DUP3 GT ISZERO PUSH3 0x432 JUMPI PUSH3 0x432 PUSH3 0x6AC JUMP JUMPDEST PUSH1 0x40 MLOAD PUSH1 0x1F DUP4 ADD PUSH1 0x1F NOT AND DUP2 ADD PUSH1 0x20 ADD DUP3 DUP2 GT DUP3 DUP3 LT OR ISZERO PUSH3 0x459 JUMPI PUSH3 0x459 PUSH3 0x6AC JUMP JUMPDEST PUSH1 0x40 MSTORE DUP3 DUP2 MSTORE DUP5 DUP4 ADD PUSH1 0x20 ADD DUP7 LT ISZERO PUSH3 0x471 JUMPI DUP4 DUP5 REVERT JUMPDEST PUSH3 0x484 DUP4 PUSH1 0x20 DUP4 ADD PUSH1 0x20 DUP9 ADD PUSH3 0x63C JUMP JUMPDEST SWAP6 SWAP5 POP POP POP POP POP JUMP JUMPDEST PUSH1 0x0 DUP1 PUSH1 0x0 DUP1 PUSH1 0x0 DUP1 PUSH1 0x0 DUP1 PUSH2 0x100 DUP10 DUP12 SUB SLT ISZERO PUSH3 0x4AA JUMPI DUP4 DUP5 REVERT JUMPDEST PUSH3 0x4B5 DUP10 PUSH3 0x3EC JUMP JUMPDEST PUSH1 0x20 DUP11 ADD MLOAD PUSH1 0x40 DUP12 ADD MLOAD PUSH1 0x60 DUP13 ADD MLOAD PUSH1 0x80 DUP14 ADD MLOAD SWAP4 SWAP12 POP SWAP2 SWAP10 POP SWAP8 POP SWAP6 POP PUSH1 0x1 PUSH1 0x1 PUSH1 0x40 SHL SUB DUP1 DUP3 GT ISZERO PUSH3 0x4E8 JUMPI DUP6 DUP7 REVERT JUMPDEST PUSH3 0x4F6 DUP13 DUP4 DUP14 ADD PUSH3 0x404 JUMP JUMPDEST SWAP6 POP PUSH1 0xA0 DUP12 ADD MLOAD SWAP2 POP DUP1 DUP3 GT ISZERO PUSH3 0x50C JUMPI DUP5 DUP6 REVERT JUMPDEST PUSH3 0x51A DUP13 DUP4 DUP14 ADD PUSH3 0x404 JUMP JUMPDEST SWAP5 POP PUSH1 0xC0 DUP12 ADD MLOAD SWAP2 POP DUP1 DUP3 GT ISZERO PUSH3 0x530 JUMPI DUP4 DUP5 REVERT JUMPDEST POP PUSH3 0x53F DUP12 DUP3 DUP13 ADD PUSH3 0x404 JUMP JUMPDEST SWAP3 POP POP PUSH1 0xE0 DUP10 ADD MLOAD SWAP1 POP SWAP3 SWAP6 SWAP9 POP SWAP3 SWAP6 SWAP9 SWAP1 SWAP4 SWAP7 POP JUMP JUMPDEST PUSH1 0x0 DUP2 MLOAD DUP1 DUP5 MSTORE PUSH3 0x570 DUP2 PUSH1 0x20 DUP7 ADD PUSH1 0x20 DUP7 ADD PUSH3 0x63C JUMP JUMPDEST PUSH1 0x1F ADD PUSH1 0x1F NOT AND SWAP3 SWAP1 SWAP3 ADD PUSH1 0x20 ADD SWAP3 SWAP2 POP POP JUMP JUMPDEST PUSH1 0x1 PUSH1 0x1 PUSH1 0xA0 SHL SUB SWAP4 SWAP1 SWAP4 AND DUP4 MSTORE PUSH1 0x20 DUP4 ADD SWAP2 SWAP1 SWAP2 MSTORE PUSH1 0x40 DUP3 ADD MSTORE PUSH1 0x60 ADD SWAP1 JUMP JUMPDEST PUSH1 0x0 PUSH1 0x20 DUP3 MSTORE PUSH3 0x5BA PUSH1 0x20 DUP4 ADD DUP5 PUSH3 0x556 JUMP JUMPDEST SWAP4 SWAP3 POP POP POP JUMP JUMPDEST PUSH1 0x0 PUSH1 0x40 DUP3 MSTORE PUSH3 0x5D6 PUSH1 0x40 DUP4 ADD DUP6 PUSH3 0x556 JUMP JUMPDEST SWAP1 POP DUP3 PUSH1 0x20 DUP4 ADD MSTORE SWAP4 SWAP3 POP POP POP JUMP JUMPDEST PUSH1 0x20 DUP1 DUP3 MSTORE PUSH1 0x12 SWAP1 DUP3 ADD MSTORE PUSH18 0x496E646578206F7574206F662072616E6765 PUSH1 0x70 SHL PUSH1 0x40 DUP3 ADD MSTORE PUSH1 0x60 ADD SWAP1 JUMP JUMPDEST PUSH1 0x20 DUP1 DUP3 MSTORE PUSH1 0x11 SWAP1 DUP3 ADD MSTORE PUSH17 0x125B9D985B1A59081CD8DA195B59481A59 PUSH1 0x7A SHL PUSH1 0x40 DUP3 ADD MSTORE PUSH1 0x60 ADD SWAP1 JUMP JUMPDEST PUSH1 0x0 JUMPDEST DUP4 DUP2 LT ISZERO PUSH3 0x659 JUMPI DUP2 DUP2 ADD MLOAD DUP4 DUP3 ADD MSTORE PUSH1 0x20 ADD PUSH3 0x63F JUMP JUMPDEST DUP4 DUP2 GT ISZERO PUSH3 0x669 JUMPI PUSH1 0x0 DUP5 DUP5 ADD MSTORE JUMPDEST POP POP POP POP JUMP JUMPDEST PUSH1 0x2 DUP2 DIV PUSH1 0x1 DUP3 AND DUP1 PUSH3 0x684 JUMPI PUSH1 0x7F DUP3 AND SWAP2 POP JUMPDEST PUSH1 0x20 DUP3 LT DUP2 EQ ISZERO PUSH3 0x6A6 JUMPI PUSH4 0x4E487B71 PUSH1 0xE0 SHL PUSH1 0x0 MSTORE PUSH1 0x22 PUSH1 0x4 MSTORE PUSH1 0x24 PUSH1 0x0 REVERT JUMPDEST POP SWAP2 SWAP1 POP JUMP JUMPDEST PUSH4 0x4E487B71 PUSH1 0xE0 SHL PUSH1 0x0 MSTORE PUSH1 0x41 PUSH1 0x4 MSTORE PUSH1 0x24 PUSH1 0x0 REVERT JUMPDEST PUSH2 0x1195 DUP1 PUSH3 0x6D2 PUSH1 0x0 CODECOPY PUSH1 0x0 RETURN INVALID PUSH1 0x80 PUSH1 0x40 MSTORE PUSH1 0x4 CALLDATASIZE LT PUSH2 0xFE JUMPI PUSH1 0x0 CALLDATALOAD PUSH1 0xE0 SHR DUP1 PUSH4 0x8D27289E GT PUSH2 0x95 JUMPI DUP1 PUSH4 0xB82C86D6 GT PUSH2 0x64 JUMPI DUP1 PUSH4 0xB82C86D6 EQ PUSH2 0x23D JUMPI DUP1 PUSH4 0xC19D93FB EQ PUSH2 0x252 JUMPI DUP1 PUSH4 0xC3E20C9F EQ PUSH2 0x274 JUMPI DUP1 PUSH4 0xC59EE1DC EQ PUSH2 0x289 JUMPI DUP1 PUSH4 0xD7BB99BA EQ PUSH2 0x29E JUMPI PUSH2 0xFE JUMP JUMPDEST DUP1 PUSH4 0x8D27289E EQ PUSH2 0x1DD JUMPI DUP1 PUSH4 0x937E09B1 EQ PUSH2 0x1E5 JUMPI DUP1 PUSH4 0x9D43B9B5 EQ PUSH2 0x1FA JUMPI DUP1 PUSH4 0xA00C96D7 EQ PUSH2 0x20F JUMPI PUSH2 0xFE JUMP JUMPDEST DUP1 PUSH4 0x4E260F6F GT PUSH2 0xD1 JUMPI DUP1 PUSH4 0x4E260F6F EQ PUSH2 0x17C JUMPI DUP1 PUSH4 0x6EEF7D95 EQ PUSH2 0x191 JUMPI DUP1 PUSH4 0x6F9FB98A EQ PUSH2 0x1B3 JUMPI DUP1 PUSH4 0x7A9A8055 EQ PUSH2 0x1C8 JUMPI PUSH2 0xFE JUMP JUMPDEST DUP1 PUSH4 0x2D05D3F EQ PUSH2 0x103 JUMPI DUP1 PUSH4 0x3C29D58 EQ PUSH2 0x12E JUMPI DUP1 PUSH4 0x29DCB0CF EQ PUSH2 0x150 JUMPI DUP1 PUSH4 0x3D0300BD EQ PUSH2 0x172 JUMPI JUMPDEST PUSH1 0x0 DUP1 REVERT JUMPDEST CALLVALUE DUP1 ISZERO PUSH2 0x10F JUMPI PUSH1 0x0 DUP1 REVERT JUMPDEST POP PUSH2 0x118 PUSH2 0x2A6 JUMP JUMPDEST PUSH1 0x40 MLOAD PUSH2 0x125 SWAP2 SWAP1 PUSH2 0xCD6 JUMP JUMPDEST PUSH1 0x40 MLOAD DUP1 SWAP2 SUB SWAP1 RETURN JUMPDEST CALLVALUE DUP1 ISZERO PUSH2 0x13A JUMPI PUSH1 0x0 DUP1 REVERT JUMPDEST POP PUSH2 0x143 PUSH2 0x2B5 JUMP JUMPDEST PUSH1 0x40 MLOAD PUSH2 0x125 SWAP2 SWAP1 PUSH2 0xDEE JUMP JUMPDEST CALLVALUE DUP1 ISZERO PUSH2 0x15C JUMPI PUSH1 0x0 DUP1 REVERT JUMPDEST POP PUSH2 0x165 PUSH2 0x343 JUMP JUMPDEST PUSH1 0x40 MLOAD PUSH2 0x125 SWAP2 SWAP1 PUSH2 0x1099 JUMP JUMPDEST PUSH2 0x17A PUSH2 0x349 JUMP JUMPDEST STOP JUMPDEST CALLVALUE DUP1 ISZERO PUSH2 0x188 JUMPI PUSH1 0x0 DUP1 REVERT JUMPDEST POP PUSH2 0x165 PUSH2 0x474 JUMP JUMPDEST CALLVALUE DUP1 ISZERO PUSH2 0x19D JUMPI PUSH1 0x0 DUP1 REVERT JUMPDEST POP PUSH2 0x1A6 PUSH2 0x47A JUMP JUMPDEST PUSH1 0x40 MLOAD PUSH2 0x125 SWAP2 SWAP1 PUSH2 0xDC0 JUMP JUMPDEST CALLVALUE DUP1 ISZERO PUSH2 0x1BF JUMPI PUSH1 0x0 DUP1 REVERT JUMPDEST POP PUSH2 0x165 PUSH2 0x488 JUMP JUMPDEST CALLVALUE DUP1 ISZERO PUSH2 0x1D4 JUMPI PUSH1 0x0 DUP1 REVERT JUMPDEST POP PUSH2 0x143 PUSH2 0x48C JUMP JUMPDEST PUSH2 0x17A PUSH2 0x499 JUMP JUMPDEST CALLVALUE DUP1 ISZERO PUSH2 0x1F1 JUMPI PUSH1 0x0 DUP1 REVERT JUMPDEST POP PUSH2 0x165 PUSH2 0x69F JUMP JUMPDEST CALLVALUE DUP1 ISZERO PUSH2 0x206 JUMPI PUSH1 0x0 DUP1 REVERT JUMPDEST POP PUSH2 0x165 PUSH2 0x6A5 JUMP JUMPDEST CALLVALUE DUP1 ISZERO PUSH2 0x21B JUMPI PUSH1 0x0 DUP1 REVERT JUMPDEST POP PUSH2 0x224 PUSH2 0x6AB JUMP JUMPDEST PUSH1 0x40 MLOAD PUSH2 0x125 SWAP14 SWAP13 SWAP12 SWAP11 SWAP10 SWAP9 SWAP8 SWAP7 SWAP6 SWAP5 SWAP4 SWAP3 SWAP2 SWAP1 PUSH2 0xD24 JUMP JUMPDEST CALLVALUE DUP1 ISZERO PUSH2 0x249 JUMPI PUSH1 0x0 DUP1 REVERT JUMPDEST POP PUSH2 0x165 PUSH2 0x8E0 JUMP JUMPDEST CALLVALUE DUP1 ISZERO PUSH2 0x25E JUMPI PUSH1 0x0 DUP1 REVERT JUMPDEST POP PUSH2 0x267 PUSH2 0x8E6 JUMP JUMPDEST PUSH1 0x40 MLOAD PUSH2 0x125 SWAP2 SWAP1 PUSH2 0xDDA JUMP JUMPDEST CALLVALUE DUP1 ISZERO PUSH2 0x280 JUMPI PUSH1 0x0 DUP1 REVERT JUMPDEST POP PUSH2 0x143 PUSH2 0x8EF JUMP JUMPDEST CALLVALUE DUP1 ISZERO PUSH2 0x295 JUMPI PUSH1 0x0 DUP1 REVERT JUMPDEST POP PUSH2 0x165 PUSH2 0x8FC JUMP JUMPDEST PUSH2 0x17A PUSH2 0x902 JUMP JUMPDEST PUSH1 0x0 SLOAD PUSH1 0x1 PUSH1 0x1 PUSH1 0xA0 SHL SUB AND DUP2 JUMP JUMPDEST PUSH1 0x8 DUP1 SLOAD PUSH2 0x2C2 SWAP1 PUSH2 0x10C8 JUMP JUMPDEST DUP1 PUSH1 0x1F ADD PUSH1 0x20 DUP1 SWAP2 DIV MUL PUSH1 0x20 ADD PUSH1 0x40 MLOAD SWAP1 DUP2 ADD PUSH1 0x40 MSTORE DUP1 SWAP3 SWAP2 SWAP1 DUP2 DUP2 MSTORE PUSH1 0x20 ADD DUP3 DUP1 SLOAD PUSH2 0x2EE SWAP1 PUSH2 0x10C8 JUMP JUMPDEST DUP1 ISZERO PUSH2 0x33B JUMPI DUP1 PUSH1 0x1F LT PUSH2 0x310 JUMPI PUSH2 0x100 DUP1 DUP4 SLOAD DIV MUL DUP4 MSTORE SWAP2 PUSH1 0x20 ADD SWAP2 PUSH2 0x33B JUMP JUMPDEST DUP3 ADD SWAP2 SWAP1 PUSH1 0x0 MSTORE PUSH1 0x20 PUSH1 0x0 KECCAK256 SWAP1 JUMPDEST DUP2 SLOAD DUP2 MSTORE SWAP1 PUSH1 0x1 ADD SWAP1 PUSH1 0x20 ADD DUP1 DUP4 GT PUSH2 0x31E JUMPI DUP3 SWAP1 SUB PUSH1 0x1F AND DUP3 ADD SWAP2 JUMPDEST POP POP POP POP POP DUP2 JUMP JUMPDEST PUSH1 0x2 SLOAD DUP2 JUMP JUMPDEST PUSH1 0x0 SLOAD PUSH1 0x1 PUSH1 0x1 PUSH1 0xA0 SHL SUB AND CALLER EQ PUSH2 0x37C JUMPI PUSH1 0x40 MLOAD PUSH3 0x461BCD PUSH1 0xE5 SHL DUP2 MSTORE PUSH1 0x4 ADD PUSH2 0x373 SWAP1 PUSH2 0xEBE JUMP JUMPDEST PUSH1 0x40 MLOAD DUP1 SWAP2 SUB SWAP1 REVERT JUMPDEST PUSH1 0x1 PUSH1 0xA SLOAD PUSH1 0xFF AND PUSH1 0x3 DUP2 GT ISZERO PUSH2 0x3A3 JUMPI PUSH4 0x4E487B71 PUSH1 0xE0 SHL PUSH1 0x0 MSTORE PUSH1 0x21 PUSH1 0x4 MSTORE PUSH1 0x24 PUSH1 0x0 REVERT JUMPDEST EQ PUSH2 0x3C0 JUMPI PUSH1 0x40 MLOAD PUSH3 0x461BCD PUSH1 0xE5 SHL DUP2 MSTORE PUSH1 0x4 ADD PUSH2 0x373 SWAP1 PUSH2 0xF0E JUMP JUMPDEST PUSH1 0x2 SLOAD TIMESTAMP LT PUSH2 0x3E1 JUMPI PUSH1 0x40 MLOAD PUSH3 0x461BCD PUSH1 0xE5 SHL DUP2 MSTORE PUSH1 0x4 ADD PUSH2 0x373 SWAP1 PUSH2 0xE2A JUMP JUMPDEST PUSH1 0x0 DUP1 SLOAD PUSH1 0x5 SLOAD PUSH1 0x40 MLOAD PUSH1 0x1 PUSH1 0x1 PUSH1 0xA0 SHL SUB SWAP1 SWAP3 AND SWAP3 DUP2 ISZERO PUSH2 0x8FC MUL SWAP3 SWAP1 DUP2 DUP2 DUP2 DUP6 DUP9 DUP9 CALL SWAP4 POP POP POP POP ISZERO DUP1 ISZERO PUSH2 0x41C JUMPI RETURNDATASIZE PUSH1 0x0 DUP1 RETURNDATACOPY RETURNDATASIZE PUSH1 0x0 REVERT JUMPDEST POP PUSH1 0xA DUP1 SLOAD PUSH1 0xFF NOT AND PUSH1 0x2 OR SWAP1 SSTORE PUSH1 0x0 SLOAD PUSH1 0x5 SLOAD PUSH1 0x40 MLOAD PUSH32 0xC364254574C58E1BDD9077B0E35E609EE391CA636748A275674D5FB5BDC1D3F6 SWAP3 PUSH2 0x46A SWAP3 PUSH1 0x1 PUSH1 0x1 PUSH1 0xA0 SHL SUB SWAP1 SWAP2 AND SWAP2 PUSH2 0xCEA JUMP JUMPDEST PUSH1 0x40 MLOAD DUP1 SWAP2 SUB SWAP1 LOG1 JUMP JUMPDEST PUSH1 0x6 SLOAD DUP2 JUMP JUMPDEST PUSH1 0xA SLOAD PUSH2 0x100 SWAP1 DIV PUSH1 0xFF AND DUP2 JUMP JUMPDEST SELFBALANCE SWAP1 JUMP JUMPDEST PUSH1 0x9 DUP1 SLOAD PUSH2 0x2C2 SWAP1 PUSH2 0x10C8 JUMP JUMPDEST PUSH1 0x0 SLOAD PUSH1 0x1 PUSH1 0x1 PUSH1 0xA0 SHL SUB AND CALLER EQ PUSH2 0x4C3 JUMPI PUSH1 0x40 MLOAD PUSH3 0x461BCD PUSH1 0xE5 SHL DUP2 MSTORE PUSH1 0x4 ADD PUSH2 0x373 SWAP1 PUSH2 0xEBE JUMP JUMPDEST PUSH1 0x2 SLOAD TIMESTAMP LT PUSH2 0x4E4 JUMPI PUSH1 0x40 MLOAD PUSH3 0x461BCD PUSH1 0xE5 SHL DUP2 MSTORE PUSH1 0x4 ADD PUSH2 0x373 SWAP1 PUSH2 0x104D JUMP JUMPDEST PUSH1 0x0 PUSH1 0xA SLOAD PUSH1 0xFF AND PUSH1 0x3 DUP2 GT ISZERO PUSH2 0x50B JUMPI PUSH4 0x4E487B71 PUSH1 0xE0 SHL PUSH1 0x0 MSTORE PUSH1 0x21 PUSH1 0x4 MSTORE PUSH1 0x24 PUSH1 0x0 REVERT JUMPDEST EQ DUP1 PUSH2 0x53B JUMPI POP PUSH1 0x1 PUSH1 0xA SLOAD PUSH1 0xFF AND PUSH1 0x3 DUP2 GT ISZERO PUSH2 0x539 JUMPI PUSH4 0x4E487B71 PUSH1 0xE0 SHL PUSH1 0x0 MSTORE PUSH1 0x21 PUSH1 0x4 MSTORE PUSH1 0x24 PUSH1 0x0 REVERT JUMPDEST EQ JUMPDEST PUSH2 0x557 JUMPI PUSH1 0x40 MLOAD PUSH3 0x461BCD PUSH1 0xE5 SHL DUP2 MSTORE PUSH1 0x4 ADD PUSH2 0x373 SWAP1 PUSH2 0xE79 JUMP JUMPDEST PUSH1 0x0 JUMPDEST PUSH1 0x6 SLOAD DUP2 LT ISZERO PUSH2 0x65B JUMPI PUSH1 0xB DUP2 DUP2 SLOAD DUP2 LT PUSH2 0x585 JUMPI PUSH4 0x4E487B71 PUSH1 0xE0 SHL PUSH1 0x0 MSTORE PUSH1 0x32 PUSH1 0x4 MSTORE PUSH1 0x24 PUSH1 0x0 REVERT JUMPDEST PUSH1 0x0 SWAP2 DUP3 MSTORE PUSH1 0x20 SWAP1 SWAP2 KECCAK256 PUSH1 0x2 SWAP1 SWAP2 MUL ADD SLOAD PUSH1 0xB DUP1 SLOAD PUSH1 0x1 PUSH1 0x1 PUSH1 0xA0 SHL SUB SWAP1 SWAP3 AND SWAP2 PUSH2 0x8FC SWAP2 SWAP1 DUP5 SWAP1 DUP2 LT PUSH2 0x5C9 JUMPI PUSH4 0x4E487B71 PUSH1 0xE0 SHL PUSH1 0x0 MSTORE PUSH1 0x32 PUSH1 0x4 MSTORE PUSH1 0x24 PUSH1 0x0 REVERT JUMPDEST SWAP1 PUSH1 0x0 MSTORE PUSH1 0x20 PUSH1 0x0 KECCAK256 SWAP1 PUSH1 0x2 MUL ADD PUSH1 0x1 ADD SLOAD SWAP1 DUP2 ISZERO MUL SWAP1 PUSH1 0x40 MLOAD PUSH1 0x0 PUSH1 0x40 MLOAD DUP1 DUP4 SUB DUP2 DUP6 DUP9 DUP9 CALL SWAP4 POP POP POP POP ISZERO DUP1 ISZERO PUSH2 0x606 JUMPI RETURNDATASIZE PUSH1 0x0 DUP1 RETURNDATACOPY RETURNDATASIZE PUSH1 0x0 REVERT JUMPDEST POP PUSH1 0xB DUP2 DUP2 SLOAD DUP2 LT PUSH2 0x628 JUMPI PUSH4 0x4E487B71 PUSH1 0xE0 SHL PUSH1 0x0 MSTORE PUSH1 0x32 PUSH1 0x4 MSTORE PUSH1 0x24 PUSH1 0x0 REVERT JUMPDEST PUSH1 0x0 SWAP2 DUP3 MSTORE PUSH1 0x20 DUP3 KECCAK256 PUSH1 0x2 SWAP1 SWAP2 MUL ADD DUP1 SLOAD PUSH1 0x1 PUSH1 0x1 PUSH1 0xA0 SHL SUB NOT AND DUP2 SSTORE PUSH1 0x1 ADD SSTORE DUP1 PUSH2 0x653 DUP2 PUSH2 0x1123 JUMP JUMPDEST SWAP2 POP POP PUSH2 0x55A JUMP JUMPDEST POP PUSH1 0xA DUP1 SLOAD PUSH1 0xFF NOT AND PUSH1 0x3 OR SWAP1 SSTORE PUSH1 0x6 SLOAD PUSH1 0x5 SLOAD PUSH1 0x40 MLOAD PUSH32 0xD69EAE259B3E1E42F22F60A8A54DBF4D1983D006A10D5F36C068CCC87EB49391 SWAP3 PUSH2 0x46A SWAP3 SWAP1 SWAP2 PUSH2 0x10A2 JUMP JUMPDEST PUSH1 0x1 SLOAD DUP2 JUMP JUMPDEST PUSH1 0x4 SLOAD DUP2 JUMP JUMPDEST PUSH1 0x0 DUP1 SLOAD PUSH1 0x1 SLOAD PUSH1 0x2 SLOAD PUSH1 0x3 SLOAD PUSH1 0x4 SLOAD PUSH1 0x5 SLOAD PUSH1 0x7 DUP1 SLOAD PUSH1 0x1 PUSH1 0x1 PUSH1 0xA0 SHL SUB SWAP1 SWAP8 AND SWAP8 SWAP6 SWAP7 SWAP5 SWAP6 SWAP4 SWAP5 SWAP3 SWAP4 SWAP2 SWAP3 PUSH1 0x60 SWAP3 DUP4 SWAP3 SWAP1 SWAP2 DUP3 SWAP2 DUP5 SWAP2 DUP4 SWAP2 DUP3 SWAP2 PUSH2 0x6F0 SWAP1 PUSH2 0x10C8 JUMP JUMPDEST DUP1 PUSH1 0x1F ADD PUSH1 0x20 DUP1 SWAP2 DIV MUL PUSH1 0x20 ADD PUSH1 0x40 MLOAD SWAP1 DUP2 ADD PUSH1 0x40 MSTORE DUP1 SWAP3 SWAP2 SWAP1 DUP2 DUP2 MSTORE PUSH1 0x20 ADD DUP3 DUP1 SLOAD PUSH2 0x71C SWAP1 PUSH2 0x10C8 JUMP JUMPDEST DUP1 ISZERO PUSH2 0x769 JUMPI DUP1 PUSH1 0x1F LT PUSH2 0x73E JUMPI PUSH2 0x100 DUP1 DUP4 SLOAD DIV MUL DUP4 MSTORE SWAP2 PUSH1 0x20 ADD SWAP2 PUSH2 0x769 JUMP JUMPDEST DUP3 ADD SWAP2 SWAP1 PUSH1 0x0 MSTORE PUSH1 0x20 PUSH1 0x0 KECCAK256 SWAP1 JUMPDEST DUP2 SLOAD DUP2 MSTORE SWAP1 PUSH1 0x1 ADD SWAP1 PUSH1 0x20 ADD DUP1 DUP4 GT PUSH2 0x74C JUMPI DUP3 SWAP1 SUB PUSH1 0x1F AND DUP3 ADD SWAP2 JUMPDEST POP POP POP POP POP SWAP7 POP PUSH1 0x8 DUP1 SLOAD PUSH2 0x77D SWAP1 PUSH2 0x10C8 JUMP JUMPDEST DUP1 PUSH1 0x1F ADD PUSH1 0x20 DUP1 SWAP2 DIV MUL PUSH1 0x20 ADD PUSH1 0x40 MLOAD SWAP1 DUP2 ADD PUSH1 0x40 MSTORE DUP1 SWAP3 SWAP2 SWAP1 DUP2 DUP2 MSTORE PUSH1 0x20 ADD DUP3 DUP1 SLOAD PUSH2 0x7A9 SWAP1 PUSH2 0x10C8 JUMP JUMPDEST DUP1 ISZERO PUSH2 0x7F6 JUMPI DUP1 PUSH1 0x1F LT PUSH2 0x7CB JUMPI PUSH2 0x100 DUP1 DUP4 SLOAD DIV MUL DUP4 MSTORE SWAP2 PUSH1 0x20 ADD SWAP2 PUSH2 0x7F6 JUMP JUMPDEST DUP3 ADD SWAP2 SWAP1 PUSH1 0x0 MSTORE PUSH1 0x20 PUSH1 0x0 KECCAK256 SWAP1 JUMPDEST DUP2 SLOAD DUP2 MSTORE SWAP1 PUSH1 0x1 ADD SWAP1 PUSH1 0x20 ADD DUP1 DUP4 GT PUSH2 0x7D9 JUMPI DUP3 SWAP1 SUB PUSH1 0x1F AND DUP3 ADD SWAP2 JUMPDEST POP POP PUSH1 0xA SLOAD PUSH1 0x9 DUP1 SLOAD SWAP6 SWAP12 POP PUSH1 0xFF SWAP1 SWAP2 AND SWAP10 POP SELFBALANCE SWAP9 POP SWAP4 PUSH2 0x81B SWAP4 POP SWAP2 POP PUSH2 0x10C8 SWAP1 POP JUMP JUMPDEST DUP1 PUSH1 0x1F ADD PUSH1 0x20 DUP1 SWAP2 DIV MUL PUSH1 0x20 ADD PUSH1 0x40 MLOAD SWAP1 DUP2 ADD PUSH1 0x40 MSTORE DUP1 SWAP3 SWAP2 SWAP1 DUP2 DUP2 MSTORE PUSH1 0x20 ADD DUP3 DUP1 SLOAD PUSH2 0x847 SWAP1 PUSH2 0x10C8 JUMP JUMPDEST DUP1 ISZERO PUSH2 0x894 JUMPI DUP1 PUSH1 0x1F LT PUSH2 0x869 JUMPI PUSH2 0x100 DUP1 DUP4 SLOAD DIV MUL DUP4 MSTORE SWAP2 PUSH1 0x20 ADD SWAP2 PUSH2 0x894 JUMP JUMPDEST DUP3 ADD SWAP2 SWAP1 PUSH1 0x0 MSTORE PUSH1 0x20 PUSH1 0x0 KECCAK256 SWAP1 JUMPDEST DUP2 SLOAD DUP2 MSTORE SWAP1 PUSH1 0x1 ADD SWAP1 PUSH1 0x20 ADD DUP1 DUP4 GT PUSH2 0x877 JUMPI DUP3 SWAP1 SUB PUSH1 0x1F AND DUP3 ADD SWAP2 JUMPDEST POP POP POP POP POP SWAP3 POP PUSH1 0x6 SLOAD SWAP2 POP PUSH1 0xA PUSH1 0x1 SWAP1 SLOAD SWAP1 PUSH2 0x100 EXP SWAP1 DIV PUSH1 0xFF AND PUSH1 0x1 DUP2 GT ISZERO PUSH2 0x8CF JUMPI PUSH4 0x4E487B71 PUSH1 0xE0 SHL PUSH1 0x0 MSTORE PUSH1 0x21 PUSH1 0x4 MSTORE PUSH1 0x24 PUSH1 0x0 REVERT JUMPDEST SWAP1 POP SWAP1 SWAP2 SWAP3 SWAP4 SWAP5 SWAP6 SWAP7 SWAP8 SWAP9 SWAP10 SWAP11 SWAP12 SWAP13 JUMP JUMPDEST PUSH1 0x3 SLOAD DUP2 JUMP JUMPDEST PUSH1 0xA SLOAD PUSH1 0xFF AND DUP2 JUMP JUMPDEST PUSH1 0x7 DUP1 SLOAD PUSH2 0x2C2 SWAP1 PUSH2 0x10C8 JUMP JUMPDEST PUSH1 0x5 SLOAD DUP2 JUMP JUMPDEST PUSH1 0x0 PUSH1 0xA SLOAD PUSH1 0xFF AND PUSH1 0x3 DUP2 GT ISZERO PUSH2 0x929 JUMPI PUSH4 0x4E487B71 PUSH1 0xE0 SHL PUSH1 0x0 MSTORE PUSH1 0x21 PUSH1 0x4 MSTORE PUSH1 0x24 PUSH1 0x0 REVERT JUMPDEST EQ DUP1 PUSH2 0x959 JUMPI POP PUSH1 0x1 PUSH1 0xA SLOAD PUSH1 0xFF AND PUSH1 0x3 DUP2 GT ISZERO PUSH2 0x957 JUMPI PUSH4 0x4E487B71 PUSH1 0xE0 SHL PUSH1 0x0 MSTORE PUSH1 0x21 PUSH1 0x4 MSTORE PUSH1 0x24 PUSH1 0x0 REVERT JUMPDEST EQ JUMPDEST PUSH2 0x975 JUMPI PUSH1 0x40 MLOAD PUSH3 0x461BCD PUSH1 0xE5 SHL DUP2 MSTORE PUSH1 0x4 ADD PUSH2 0x373 SWAP1 PUSH2 0xF83 JUMP JUMPDEST PUSH1 0x2 SLOAD TIMESTAMP LT PUSH2 0x996 JUMPI PUSH1 0x40 MLOAD PUSH3 0x461BCD PUSH1 0xE5 SHL DUP2 MSTORE PUSH1 0x4 ADD PUSH2 0x373 SWAP1 PUSH2 0xFDF JUMP JUMPDEST PUSH1 0x1 SLOAD CALLVALUE LT ISZERO PUSH2 0x9B8 JUMPI PUSH1 0x40 MLOAD PUSH3 0x461BCD PUSH1 0xE5 SHL DUP2 MSTORE PUSH1 0x4 ADD PUSH2 0x373 SWAP1 PUSH2 0xFAA JUMP JUMPDEST CALLER PUSH1 0x0 PUSH2 0x9C4 DUP3 PUSH2 0xBB1 JUMP JUMPDEST SWAP1 POP DUP1 PUSH1 0x0 NOT EQ ISZERO PUSH2 0xA7E JUMPI PUSH1 0x6 DUP1 SLOAD SWAP1 PUSH1 0x0 PUSH2 0x9E0 DUP4 PUSH2 0x1123 JUMP JUMPDEST SWAP1 SWAP2 SSTORE POP POP PUSH1 0x40 DUP1 MLOAD DUP1 DUP3 ADD SWAP1 SWAP2 MSTORE PUSH1 0x1 PUSH1 0x1 PUSH1 0xA0 SHL SUB DUP4 DUP2 AND DUP3 MSTORE CALLVALUE PUSH1 0x20 DUP4 ADD SWAP1 DUP2 MSTORE PUSH1 0xB DUP1 SLOAD PUSH1 0x1 DUP2 ADD DUP3 SSTORE PUSH1 0x0 SWAP2 SWAP1 SWAP2 MSTORE SWAP3 MLOAD PUSH32 0x175B7A638427703F0DBE7BB9BBF987A2551717B34E79F33B5B1008D1FA01DB9 PUSH1 0x2 SWAP1 SWAP5 MUL SWAP4 DUP5 ADD DUP1 SLOAD PUSH1 0x1 PUSH1 0x1 PUSH1 0xA0 SHL SUB NOT AND SWAP2 SWAP1 SWAP4 AND OR SWAP1 SWAP2 SSTORE MLOAD PUSH32 0x175B7A638427703F0DBE7BB9BBF987A2551717B34E79F33B5B1008D1FA01DBA SWAP1 SWAP2 ADD SSTORE PUSH2 0xAC6 JUMP JUMPDEST CALLVALUE PUSH1 0xB DUP3 DUP2 SLOAD DUP2 LT PUSH2 0xAA0 JUMPI PUSH4 0x4E487B71 PUSH1 0xE0 SHL PUSH1 0x0 MSTORE PUSH1 0x32 PUSH1 0x4 MSTORE PUSH1 0x24 PUSH1 0x0 REVERT JUMPDEST SWAP1 PUSH1 0x0 MSTORE PUSH1 0x20 PUSH1 0x0 KECCAK256 SWAP1 PUSH1 0x2 MUL ADD PUSH1 0x1 ADD PUSH1 0x0 DUP3 DUP3 SLOAD PUSH2 0xAC0 SWAP2 SWAP1 PUSH2 0x10B0 JUMP JUMPDEST SWAP1 SWAP2 SSTORE POP POP JUMPDEST CALLVALUE PUSH1 0x5 PUSH1 0x0 DUP3 DUP3 SLOAD PUSH2 0xAD8 SWAP2 SWAP1 PUSH2 0x10B0 JUMP JUMPDEST SWAP1 SWAP2 SSTORE POP POP PUSH1 0x5 SLOAD PUSH1 0x40 MLOAD PUSH32 0x5CDC4AB8D637538EAD6CC1904D4160343656C8C82BD266635CFD31AC008FFFE0 SWAP2 PUSH2 0xB12 SWAP2 DUP6 SWAP2 CALLVALUE SWAP2 PUSH2 0xD03 JUMP JUMPDEST PUSH1 0x40 MLOAD DUP1 SWAP2 SUB SWAP1 LOG1 PUSH2 0xB22 PUSH2 0xC28 JUMP JUMPDEST POP POP JUMP JUMPDEST PUSH2 0xB69 DUP2 PUSH1 0x40 MLOAD PUSH1 0x24 ADD PUSH2 0xB3A SWAP2 SWAP1 PUSH2 0xDEE JUMP JUMPDEST PUSH1 0x40 DUP1 MLOAD PUSH1 0x1F NOT DUP2 DUP5 SUB ADD DUP2 MSTORE SWAP2 SWAP1 MSTORE PUSH1 0x20 DUP2 ADD DUP1 MLOAD PUSH1 0x1 PUSH1 0x1 PUSH1 0xE0 SHL SUB AND PUSH4 0x104C13EB PUSH1 0xE2 SHL OR SWAP1 MSTORE PUSH2 0xC56 JUMP JUMPDEST POP JUMP JUMPDEST PUSH2 0xB22 DUP3 DUP3 PUSH1 0x40 MLOAD PUSH1 0x24 ADD PUSH2 0xB82 SWAP3 SWAP2 SWAP1 PUSH2 0xE08 JUMP JUMPDEST PUSH1 0x40 DUP1 MLOAD PUSH1 0x1F NOT DUP2 DUP5 SUB ADD DUP2 MSTORE SWAP2 SWAP1 MSTORE PUSH1 0x20 DUP2 ADD DUP1 MLOAD PUSH1 0x1 PUSH1 0x1 PUSH1 0xE0 SHL SUB AND PUSH4 0x2D839CB3 PUSH1 0xE2 SHL OR SWAP1 MSTORE PUSH2 0xC56 JUMP JUMPDEST PUSH1 0x0 PUSH1 0x0 NOT DUP2 JUMPDEST PUSH1 0x6 SLOAD DUP2 SLT ISZERO PUSH2 0xC21 JUMPI PUSH1 0xB DUP2 DUP2 SLOAD DUP2 LT PUSH2 0xBE3 JUMPI PUSH4 0x4E487B71 PUSH1 0xE0 SHL PUSH1 0x0 MSTORE PUSH1 0x32 PUSH1 0x4 MSTORE PUSH1 0x24 PUSH1 0x0 REVERT JUMPDEST PUSH1 0x0 SWAP2 DUP3 MSTORE PUSH1 0x20 SWAP1 SWAP2 KECCAK256 PUSH1 0x2 SWAP1 SWAP2 MUL ADD SLOAD PUSH1 0x1 PUSH1 0x1 PUSH1 0xA0 SHL SUB DUP6 DUP2 AND SWAP2 AND EQ ISZERO PUSH2 0xC0F JUMPI DUP1 SWAP2 POP PUSH2 0xC21 JUMP JUMPDEST DUP1 PUSH2 0xC19 DUP2 PUSH2 0x1103 JUMP JUMPDEST SWAP2 POP POP PUSH2 0xBB8 JUMP JUMPDEST POP SWAP3 SWAP2 POP POP JUMP JUMPDEST PUSH1 0x3 SLOAD PUSH1 0x5 SLOAD LT ISZERO DUP1 ISZERO PUSH2 0xC3D JUMPI POP PUSH1 0x2 SLOAD TIMESTAMP LT JUMPDEST ISZERO PUSH2 0xC54 JUMPI PUSH1 0xA DUP1 SLOAD PUSH1 0xFF NOT AND PUSH1 0x1 OR SWAP1 SSTORE TIMESTAMP PUSH1 0x4 SSTORE JUMPDEST JUMP JUMPDEST DUP1 MLOAD PUSH11 0x636F6E736F6C652E6C6F67 PUSH1 0x20 DUP4 ADD PUSH1 0x0 DUP1 DUP5 DUP4 DUP6 GAS STATICCALL POP POP POP POP POP JUMP JUMPDEST PUSH1 0x4 DUP2 LT PUSH2 0xC87 JUMPI PUSH2 0xC87 PUSH2 0x1149 JUMP JUMPDEST SWAP1 MSTORE JUMP JUMPDEST PUSH1 0x0 DUP2 MLOAD DUP1 DUP5 MSTORE DUP2 JUMPDEST DUP2 DUP2 LT ISZERO PUSH2 0xCB0 JUMPI PUSH1 0x20 DUP2 DUP6 ADD DUP2 ADD MLOAD DUP7 DUP4 ADD DUP3 ADD MSTORE ADD PUSH2 0xC94 JUMP JUMPDEST DUP2 DUP2 GT ISZERO PUSH2 0xCC1 JUMPI DUP3 PUSH1 0x20 DUP4 DUP8 ADD ADD MSTORE JUMPDEST POP PUSH1 0x1F ADD PUSH1 0x1F NOT AND SWAP3 SWAP1 SWAP3 ADD PUSH1 0x20 ADD SWAP3 SWAP2 POP POP JUMP JUMPDEST PUSH1 0x1 PUSH1 0x1 PUSH1 0xA0 SHL SUB SWAP2 SWAP1 SWAP2 AND DUP2 MSTORE PUSH1 0x20 ADD SWAP1 JUMP JUMPDEST PUSH1 0x1 PUSH1 0x1 PUSH1 0xA0 SHL SUB SWAP3 SWAP1 SWAP3 AND DUP3 MSTORE PUSH1 0x20 DUP3 ADD MSTORE PUSH1 0x40 ADD SWAP1 JUMP JUMPDEST PUSH1 0x1 PUSH1 0x1 PUSH1 0xA0 SHL SUB SWAP4 SWAP1 SWAP4 AND DUP4 MSTORE PUSH1 0x20 DUP4 ADD SWAP2 SWAP1 SWAP2 MSTORE PUSH1 0x40 DUP3 ADD MSTORE PUSH1 0x60 ADD SWAP1 JUMP JUMPDEST PUSH1 0x0 PUSH1 0x1 DUP1 PUSH1 0xA0 SHL SUB DUP16 AND DUP3 MSTORE DUP14 PUSH1 0x20 DUP4 ADD MSTORE DUP13 PUSH1 0x40 DUP4 ADD MSTORE DUP12 PUSH1 0x60 DUP4 ADD MSTORE DUP11 PUSH1 0x80 DUP4 ADD MSTORE DUP10 PUSH1 0xA0 DUP4 ADD MSTORE PUSH2 0x1A0 PUSH1 0xC0 DUP4 ADD MSTORE PUSH2 0xD65 PUSH2 0x1A0 DUP4 ADD DUP11 PUSH2 0xC8B JUMP JUMPDEST DUP3 DUP2 SUB PUSH1 0xE0 DUP5 ADD MSTORE PUSH2 0xD77 DUP2 DUP11 PUSH2 0xC8B JUMP JUMPDEST SWAP1 POP PUSH2 0xD87 PUSH2 0x100 DUP5 ADD DUP10 PUSH2 0xC77 JUMP JUMPDEST DUP7 PUSH2 0x120 DUP5 ADD MSTORE DUP3 DUP2 SUB PUSH2 0x140 DUP5 ADD MSTORE PUSH2 0xDA1 DUP2 DUP8 PUSH2 0xC8B JUMP JUMPDEST PUSH2 0x160 DUP5 ADD SWAP6 SWAP1 SWAP6 MSTORE POP POP PUSH2 0x180 ADD MSTORE SWAP12 SWAP11 POP POP POP POP POP POP POP POP POP POP POP JUMP JUMPDEST PUSH1 0x20 DUP2 ADD PUSH1 0x2 DUP4 LT PUSH2 0xDD4 JUMPI PUSH2 0xDD4 PUSH2 0x1149 JUMP JUMPDEST SWAP2 SWAP1 MSTORE SWAP1 JUMP JUMPDEST PUSH1 0x20 DUP2 ADD PUSH2 0xDE8 DUP3 DUP5 PUSH2 0xC77 JUMP JUMPDEST SWAP3 SWAP2 POP POP JUMP JUMPDEST PUSH1 0x0 PUSH1 0x20 DUP3 MSTORE PUSH2 0xE01 PUSH1 0x20 DUP4 ADD DUP5 PUSH2 0xC8B JUMP JUMPDEST SWAP4 SWAP3 POP POP POP JUMP JUMPDEST PUSH1 0x0 PUSH1 0x40 DUP3 MSTORE PUSH2 0xE1B PUSH1 0x40 DUP4 ADD DUP6 PUSH2 0xC8B JUMP JUMPDEST SWAP1 POP DUP3 PUSH1 0x20 DUP4 ADD MSTORE SWAP4 SWAP3 POP POP POP JUMP JUMPDEST PUSH1 0x20 DUP1 DUP3 MSTORE PUSH1 0x2F SWAP1 DUP3 ADD MSTORE PUSH32 0x43616D706169676E2063616E6E6F7420626520656E6465642C20646561646C69 PUSH1 0x40 DUP3 ADD MSTORE PUSH15 0x3732903737BA103932B0B1B432B217 PUSH1 0x89 SHL PUSH1 0x60 DUP3 ADD MSTORE PUSH1 0x80 ADD SWAP1 JUMP JUMPDEST PUSH1 0x20 DUP1 DUP3 MSTORE PUSH1 0x25 SWAP1 DUP3 ADD MSTORE PUSH32 0x496E76616C69642073746174652E2043616E6E6F742061626F72742063616D70 PUSH1 0x40 DUP3 ADD MSTORE PUSH5 0x30B4B3B717 PUSH1 0xD9 SHL PUSH1 0x60 DUP3 ADD MSTORE PUSH1 0x80 ADD SWAP1 JUMP JUMPDEST PUSH1 0x20 DUP1 DUP3 MSTORE PUSH1 0x30 SWAP1 DUP3 ADD MSTORE PUSH32 0x596F7520646F6E7420686176652061636365737320746F20706572666F726D20 PUSH1 0x40 DUP3 ADD MSTORE PUSH16 0x74686973206F7065726174696F6E2021 PUSH1 0x80 SHL PUSH1 0x60 DUP3 ADD MSTORE PUSH1 0x80 ADD SWAP1 JUMP JUMPDEST PUSH1 0x20 DUP1 DUP3 MSTORE PUSH1 0x4F SWAP1 DUP3 ADD MSTORE PUSH32 0x476F616C206E6F7420726561636865642C20616D6F756E742063616E6E6F7420 PUSH1 0x40 DUP3 ADD MSTORE PUSH32 0x62652077697468647261776E2E20506C656173652061626F727420746F207265 PUSH1 0x60 DUP3 ADD MSTORE PUSH15 0x66756E6420746F206261636B657273 PUSH1 0x88 SHL PUSH1 0x80 DUP3 ADD MSTORE PUSH1 0xA0 ADD SWAP1 JUMP JUMPDEST PUSH1 0x20 DUP1 DUP3 MSTORE PUSH1 0xD SWAP1 DUP3 ADD MSTORE PUSH13 0x496E76616C6964207374617465 PUSH1 0x98 SHL PUSH1 0x40 DUP3 ADD MSTORE PUSH1 0x60 ADD SWAP1 JUMP JUMPDEST PUSH1 0x20 DUP1 DUP3 MSTORE DUP2 DUP2 ADD MSTORE PUSH32 0x436F6E747269627574696F6E20616D6F756E7420697320746F6F206C6F772021 PUSH1 0x40 DUP3 ADD MSTORE PUSH1 0x60 ADD SWAP1 JUMP JUMPDEST PUSH1 0x20 DUP1 DUP3 MSTORE PUSH1 0x48 SWAP1 DUP3 ADD MSTORE PUSH32 0x536F727279206261636B65722C20646561646C696E6520686173207061737365 PUSH1 0x40 DUP3 ADD MSTORE PUSH32 0x6421204E6F20636F6E747269627574696F6E732063616E206265206163636570 PUSH1 0x60 DUP3 ADD MSTORE PUSH8 0x3A32B2103737BB97 PUSH1 0xC1 SHL PUSH1 0x80 DUP3 ADD MSTORE PUSH1 0xA0 ADD SWAP1 JUMP JUMPDEST PUSH1 0x20 DUP1 DUP3 MSTORE PUSH1 0x2C SWAP1 DUP3 ADD MSTORE PUSH32 0x43616D706169676E2063616E6E6F742062652061626F727465642C2064656164 PUSH1 0x40 DUP3 ADD MSTORE PUSH12 0x3634B732903830B9B9B2B217 PUSH1 0xA1 SHL PUSH1 0x60 DUP3 ADD MSTORE PUSH1 0x80 ADD SWAP1 JUMP JUMPDEST SWAP1 DUP2 MSTORE PUSH1 0x20 ADD SWAP1 JUMP JUMPDEST SWAP2 DUP3 MSTORE PUSH1 0x20 DUP3 ADD MSTORE PUSH1 0x40 ADD SWAP1 JUMP JUMPDEST PUSH1 0x0 DUP3 NOT DUP3 GT ISZERO PUSH2 0x10C3 JUMPI PUSH2 0x10C3 PUSH2 0x1133 JUMP JUMPDEST POP ADD SWAP1 JUMP JUMPDEST PUSH1 0x2 DUP2 DIV PUSH1 0x1 DUP3 AND DUP1 PUSH2 0x10DC JUMPI PUSH1 0x7F DUP3 AND SWAP2 POP JUMPDEST PUSH1 0x20 DUP3 LT DUP2 EQ ISZERO PUSH2 0x10FD JUMPI PUSH4 0x4E487B71 PUSH1 0xE0 SHL PUSH1 0x0 MSTORE PUSH1 0x22 PUSH1 0x4 MSTORE PUSH1 0x24 PUSH1 0x0 REVERT JUMPDEST POP SWAP2 SWAP1 POP JUMP JUMPDEST PUSH1 0x0 PUSH1 0x1 PUSH1 0x1 PUSH1 0xFF SHL SUB DUP3 EQ ISZERO PUSH2 0x111C JUMPI PUSH2 0x111C PUSH2 0x1133 JUMP JUMPDEST POP PUSH1 0x1 ADD SWAP1 JUMP JUMPDEST PUSH1 0x0 PUSH1 0x0 NOT DUP3 EQ ISZERO PUSH2 0x111C JUMPI PUSH2 0x111C JUMPDEST PUSH4 0x4E487B71 PUSH1 0xE0 SHL PUSH1 0x0 MSTORE PUSH1 0x11 PUSH1 0x4 MSTORE PUSH1 0x24 PUSH1 0x0 REVERT JUMPDEST PUSH4 0x4E487B71 PUSH1 0xE0 SHL PUSH1 0x0 MSTORE PUSH1 0x21 PUSH1 0x4 MSTORE PUSH1 0x24 PUSH1 0x0 REVERT INVALID LOG2 PUSH5 0x6970667358 0x22 SLT KECCAK256 SWAP11 0x25 INVALID OR SWAP14 PUSH9 0x6CC972BB8D057039B5 0x49 DUP5 SLT SAR DUP2 0xBB 0xB7 SWAP8 PUSH27 0x97E7774F739CA1D964736F6C63430008000033A264697066735822 SLT KECCAK256 0xCC PUSH27 0x1B1D96E65DEDD0536AADF13CBC07E1F8EBB2C35D3A33C828DA71E6 PUSH15 0x341364736F6C634300080000330000 "},"gasEstimates":{"creation":{"codeDepositCost":"1505000","executionCost":"1575","totalCost":"1506575"},"external":{"createCampaign(string,string,uint256,uint256,uint256,string,uint256)":"infinite","returnDeployedCampaigns()":"infinite"}},"methodIdentifiers":{"createCampaign(string,string,uint256,uint256,uint256,string,uint256)":"0f415b61","returnDeployedCampaigns()":"e327e214"}},"storageLayout":{"storage":[{"astId":710,"contract":"contracts/CrowdHelp.sol:CrowdHelp","label":"deployedCampaigns","offset":0,"slot":"0","type":"t_array(t_contract(Campaign)552)dyn_storage"}],"types":{"t_array(t_contract(Campaign)552)dyn_storage":{"base":"t_contract(Campaign)552","encoding":"dynamic_array","label":"contract Campaign[]","numberOfBytes":"32"},"t_contract(Campaign)552":{"encoding":"inplace","label":"contract Campaign","numberOfBytes":"20"}}},"userdoc":{"kind":"user","methods":{},"version":1}}}}