{
  "_format": "hh-sol-artifact-1",
  "contractName": "SchemeRegistry",
  "sourceName": "contracts/SchemeRegistry.sol",
  "abi": [
    {
      "inputs": [],
      "name": "SCHEMES_COUNT",
      "outputs": [
        {
          "internalType": "uint256",
          "name": "",
          "type": "uint256"
        }
      ],
      "stateMutability": "view",
      "type": "function"
    },
    {
      "inputs": [],
      "name": "getAllSchemeTitles",
      "outputs": [
        {
          "internalType": "string[]",
          "name": "",
          "type": "string[]"
        }
      ],
      "stateMutability": "pure",
      "type": "function"
    },
    {
      "inputs": [
        {
          "internalType": "uint256",
          "name": "idx",
          "type": "uint256"
        }
      ],
      "name": "getSchemeTitle",
      "outputs": [
        {
          "internalType": "string",
          "name": "title",
          "type": "string"
        }
      ],
      "stateMutability": "pure",
      "type": "function"
    },
    {
      "inputs": [
        {
          "internalType": "uint256",
          "name": "id",
          "type": "uint256"
        }
      ],
      "name": "getSchemeType",
      "outputs": [
        {
          "internalType": "enum SchemeRegistry.SchemeType",
          "name": "",
          "type": "SchemeRegistry.SchemeType"
        }
      ],
      "stateMutability": "pure",
      "type": "function"
    }
  ],
  "bytecode": "0x6103ea61003a600b82828239805160001a60731461002d57634e487b7160e01b600052600060045260246000fd5b30600052607381538281f3fe73000000000000000000000000000000000000000030146080604052600436106100565760003560e01c806356f78a321461005b5780636b0bad1914610079578063a66475a81461008e578063e07d8c34146100ae575b600080fd5b6100636100ce565b6040516100709190610384565b60405180910390f35b6100816100d3565b60405161007091906102b6565b6100a161009c366004610253565b61015d565b604051610070919061033e565b6100c16100bc366004610253565b61021c565b6040516100709190610316565b600281565b604080516002808252606082810190935260009190816020015b60608152602001906001900390816100ed57905050905060005b6002811015610157576101198161015d565b82828151811061013957634e487b7160e01b600052603260045260246000fd5b6020026020010181905250808061014f9061038d565b915050610107565b50905090565b6060600282106101885760405162461bcd60e51b815260040161017f90610358565b60405180910390fd5b816101b8575060408051808201909152600e81526d416c6c206f72204e6f7468696e6760901b6020820152610217565b60018214156101f0575060408051808201909152601281527148616c6620676f616c20776974686472617760701b6020820152610217565b5060408051808201909152600e81526d496e76616c696420736368656d6560901b60208201525b919050565b60006002821061023e5760405162461bcd60e51b815260040161017f90610358565b8161024b57506000610217565b506001919050565b600060208284031215610264578081fd5b5035919050565b60008151808452815b8181101561029057602081850181015186830182015201610274565b818111156102a15782602083870101525b50601f01601f19169290920160200192915050565b6000602080830181845280855180835260408601915060408482028701019250838701855b8281101561030957603f198886030184526102f785835161026b565b945092850192908501906001016102db565b5092979650505050505050565b602081016002831061033857634e487b7160e01b600052602160045260246000fd5b91905290565b600060208252610351602083018461026b565b9392505050565b602080825260129082015271496e646578206f7574206f662072616e676560701b604082015260600190565b90815260200190565b60006000198214156103ad57634e487b7160e01b81526011600452602481fd5b506001019056fea264697066735822122046d03b2393c1dcbff4527cdd830bffe7f5894cabbd854a3269e3d1440620936364736f6c63430008000033",
  "linkReferences": {},
  "deployedLinkReferences": {}
}