{
  "_format": "hh-sol-artifact-1",
  "contractName": "Campaign",
  "sourceName": "contracts/CrowdHelp.sol",
  "abi": [
    {
      "inputs": [
        {
          "internalType": "address",
          "name": "_creator",
          "type": "address"
        },
        {
          "internalType": "uint256",
          "name": "_minimumContribution",
          "type": "uint256"
        },
        {
          "internalType": "uint256",
          "name": "_deadline",
          "type": "uint256"
        },
        {
          "internalType": "uint256",
          "name": "_targetContribution",
          "type": "uint256"
        },
        {
          "internalType": "string",
          "name": "_projectTitle",
          "type": "string"
        },
        {
          "internalType": "string",
          "name": "_projectDes",
          "type": "string"
        },
        {
          "internalType": "string",
          "name": "_bannerUrl",
          "type": "string"
        }
      ],
      "stateMutability": "nonpayable",
      "type": "constructor"
    },
    {
      "anonymous": false,
      "inputs": [
        {
          "indexed": false,
          "internalType": "address",
          "name": "contributor",
          "type": "address"
        },
        {
          "indexed": false,
          "internalType": "uint256",
          "name": "amountTotal",
          "type": "uint256"
        }
      ],
      "name": "AmountCredited",
      "type": "event"
    },
    {
      "anonymous": false,
      "inputs": [
        {
          "indexed": false,
          "internalType": "uint256",
          "name": "noOfContributors",
          "type": "uint256"
        },
        {
          "indexed": false,
          "internalType": "uint256",
          "name": "amountTotal",
          "type": "uint256"
        }
      ],
      "name": "AmountRefunded",
      "type": "event"
    },
    {
      "anonymous": false,
      "inputs": [
        {
          "indexed": false,
          "internalType": "address",
          "name": "contributor",
          "type": "address"
        },
        {
          "indexed": false,
          "internalType": "uint256",
          "name": "amount",
          "type": "uint256"
        },
        {
          "indexed": false,
          "internalType": "uint256",
          "name": "currentTotal",
          "type": "uint256"
        }
      ],
      "name": "FundingReceived",
      "type": "event"
    },
    {
      "inputs": [],
      "name": "abortCampaignAndRefund",
      "outputs": [],
      "stateMutability": "payable",
      "type": "function"
    },
    {
      "inputs": [],
      "name": "bannerUrl",
      "outputs": [
        {
          "internalType": "string",
          "name": "",
          "type": "string"
        }
      ],
      "stateMutability": "view",
      "type": "function"
    },
    {
      "inputs": [],
      "name": "contribute",
      "outputs": [],
      "stateMutability": "payable",
      "type": "function"
    },
    {
      "inputs": [],
      "name": "creator",
      "outputs": [
        {
          "internalType": "address payable",
          "name": "",
          "type": "address"
        }
      ],
      "stateMutability": "view",
      "type": "function"
    },
    {
      "inputs": [],
      "name": "deadline",
      "outputs": [
        {
          "internalType": "uint256",
          "name": "",
          "type": "uint256"
        }
      ],
      "stateMutability": "view",
      "type": "function"
    },
    {
      "inputs": [],
      "name": "endCampaignAndCredit",
      "outputs": [],
      "stateMutability": "payable",
      "type": "function"
    },
    {
      "inputs": [],
      "name": "getCampaignSummary",
      "outputs": [
        {
          "internalType": "address payable",
          "name": "projectStarter",
          "type": "address"
        },
        {
          "internalType": "uint256",
          "name": "minContribution",
          "type": "uint256"
        },
        {
          "internalType": "uint256",
          "name": "projectDeadline",
          "type": "uint256"
        },
        {
          "internalType": "uint256",
          "name": "goalAmount",
          "type": "uint256"
        },
        {
          "internalType": "uint256",
          "name": "completedTime",
          "type": "uint256"
        },
        {
          "internalType": "uint256",
          "name": "currentAmount",
          "type": "uint256"
        },
        {
          "internalType": "string",
          "name": "title",
          "type": "string"
        },
        {
          "internalType": "string",
          "name": "desc",
          "type": "string"
        },
        {
          "internalType": "enum Campaign.State",
          "name": "currentState",
          "type": "uint8"
        },
        {
          "internalType": "uint256",
          "name": "balance",
          "type": "uint256"
        },
        {
          "internalType": "string",
          "name": "imageUrl",
          "type": "string"
        },
        {
          "internalType": "uint256",
          "name": "numBackers",
          "type": "uint256"
        }
      ],
      "stateMutability": "view",
      "type": "function"
    },
    {
      "inputs": [],
      "name": "getContractBalance",
      "outputs": [
        {
          "internalType": "uint256",
          "name": "",
          "type": "uint256"
        }
      ],
      "stateMutability": "view",
      "type": "function"
    },
    {
      "inputs": [],
      "name": "minimumContribution",
      "outputs": [
        {
          "internalType": "uint256",
          "name": "",
          "type": "uint256"
        }
      ],
      "stateMutability": "view",
      "type": "function"
    },
    {
      "inputs": [],
      "name": "noOfContributors",
      "outputs": [
        {
          "internalType": "uint256",
          "name": "",
          "type": "uint256"
        }
      ],
      "stateMutability": "view",
      "type": "function"
    },
    {
      "inputs": [],
      "name": "projectDes",
      "outputs": [
        {
          "internalType": "string",
          "name": "",
          "type": "string"
        }
      ],
      "stateMutability": "view",
      "type": "function"
    },
    {
      "inputs": [],
      "name": "projectTitle",
      "outputs": [
        {
          "internalType": "string",
          "name": "",
          "type": "string"
        }
      ],
      "stateMutability": "view",
      "type": "function"
    },
    {
      "inputs": [],
      "name": "raisedAmount",
      "outputs": [
        {
          "internalType": "uint256",
          "name": "",
          "type": "uint256"
        }
      ],
      "stateMutability": "view",
      "type": "function"
    },
    {
      "inputs": [],
      "name": "reachedTargetAt",
      "outputs": [
        {
          "internalType": "uint256",
          "name": "",
          "type": "uint256"
        }
      ],
      "stateMutability": "view",
      "type": "function"
    },
    {
      "inputs": [],
      "name": "state",
      "outputs": [
        {
          "internalType": "enum Campaign.State",
          "name": "",
          "type": "uint8"
        }
      ],
      "stateMutability": "view",
      "type": "function"
    },
    {
      "inputs": [],
      "name": "targetContribution",
      "outputs": [
        {
          "internalType": "uint256",
          "name": "",
          "type": "uint256"
        }
      ],
      "stateMutability": "view",
      "type": "function"
    }
  ],
  "bytecode": "0x60806040526000600a60006101000a81548160ff021916908360038111156200002d576200002c62000105565b5b02179055503480156200003f57600080fd5b506040516200225138038062002251833981810160405281019062000065919062000367565b866000806101000a81548173ffffffffffffffffffffffffffffffffffffffff021916908373ffffffffffffffffffffffffffffffffffffffff1602179055508560018190555084600281905550836003819055508260079081620000cb9190620006b8565b508160089081620000dd9190620006b8565b5060006005819055508060099081620000f79190620006b8565b50505050505050506200079f565b7f4e487b7100000000000000000000000000000000000000000000000000000000600052602160045260246000fd5b6000604051905090565b600080fd5b600080fd5b600073ffffffffffffffffffffffffffffffffffffffff82169050919050565b6000620001758262000148565b9050919050565b620001878162000168565b81146200019357600080fd5b50565b600081519050620001a7816200017c565b92915050565b6000819050919050565b620001c281620001ad565b8114620001ce57600080fd5b50565b600081519050620001e281620001b7565b92915050565b600080fd5b600080fd5b6000601f19601f8301169050919050565b7f4e487b7100000000000000000000000000000000000000000000000000000000600052604160045260246000fd5b6200023d82620001f2565b810181811067ffffffffffffffff821117156200025f576200025e62000203565b5b80604052505050565b60006200027462000134565b905062000282828262000232565b919050565b600067ffffffffffffffff821115620002a557620002a462000203565b5b620002b082620001f2565b9050602081019050919050565b60005b83811015620002dd578082015181840152602081019050620002c0565b60008484015250505050565b600062000300620002fa8462000287565b62000268565b9050828152602081018484840111156200031f576200031e620001ed565b5b6200032c848285620002bd565b509392505050565b600082601f8301126200034c576200034b620001e8565b5b81516200035e848260208601620002e9565b91505092915050565b600080600080600080600060e0888a0312156200038957620003886200013e565b5b6000620003998a828b0162000196565b9750506020620003ac8a828b01620001d1565b9650506040620003bf8a828b01620001d1565b9550506060620003d28a828b01620001d1565b945050608088015167ffffffffffffffff811115620003f657620003f562000143565b5b620004048a828b0162000334565b93505060a088015167ffffffffffffffff81111562000428576200042762000143565b5b620004368a828b0162000334565b92505060c088015167ffffffffffffffff8111156200045a576200045962000143565b5b620004688a828b0162000334565b91505092959891949750929550565b600081519050919050565b7f4e487b7100000000000000000000000000000000000000000000000000000000600052602260045260246000fd5b60006002820490506001821680620004ca57607f821691505b602082108103620004e057620004df62000482565b5b50919050565b60008190508160005260206000209050919050565b60006020601f8301049050919050565b600082821b905092915050565b6000600883026200054a7fffffffffffffffffffffffffffffffffffffffffffffffffffffffffffffffff826200050b565b6200055686836200050b565b95508019841693508086168417925050509392505050565b6000819050919050565b600062000599620005936200058d84620001ad565b6200056e565b620001ad565b9050919050565b6000819050919050565b620005b58362000578565b620005cd620005c482620005a0565b84845462000518565b825550505050565b600090565b620005e4620005d5565b620005f1818484620005aa565b505050565b5b8181101562000619576200060d600082620005da565b600181019050620005f7565b5050565b601f82111562000668576200063281620004e6565b6200063d84620004fb565b810160208510156200064d578190505b620006656200065c85620004fb565b830182620005f6565b50505b505050565b600082821c905092915050565b60006200068d600019846008026200066d565b1980831691505092915050565b6000620006a883836200067a565b9150826002028217905092915050565b620006c38262000477565b67ffffffffffffffff811115620006df57620006de62000203565b5b620006eb8254620004b1565b620006f88282856200061d565b600060209050601f8311600181146200073057600084156200071b578287015190505b6200072785826200069a565b86555062000797565b601f1984166200074086620004e6565b60005b828110156200076a5784890151825560018201915060208501945060208101905062000743565b868310156200078a578489015162000786601f8916826200067a565b8355505b6001600288020188555050505b505050505050565b611aa280620007af6000396000f3fe6080604052600436106100f35760003560e01c8063937e09b11161008a578063c19d93fb11610059578063c19d93fb146102c5578063c3e20c9f146102f0578063c59ee1dc1461031b578063d7bb99ba14610346576100f3565b8063937e09b11461020e5780639d43b9b514610239578063a00c96d714610264578063b82c86d61461029a576100f3565b80634e260f6f116100c65780634e260f6f146101835780636f9fb98a146101ae5780637a9a8055146101d95780638d27289e14610204576100f3565b806302d05d3f146100f857806303c29d581461012357806329dcb0cf1461014e5780633d0300bd14610179575b600080fd5b34801561010457600080fd5b5061010d610350565b60405161011a9190611106565b60405180910390f35b34801561012f57600080fd5b50610138610374565b60405161014591906111b1565b60405180910390f35b34801561015a57600080fd5b50610163610402565b60405161017091906111ec565b60405180910390f35b610181610408565b005b34801561018f57600080fd5b50610198610641565b6040516101a591906111ec565b60405180910390f35b3480156101ba57600080fd5b506101c3610647565b6040516101d091906111ec565b60405180910390f35b3480156101e557600080fd5b506101ee61064f565b6040516101fb91906111b1565b60405180910390f35b61020c6106dd565b005b34801561021a57600080fd5b506102236109f3565b60405161023091906111ec565b60405180910390f35b34801561024557600080fd5b5061024e6109f9565b60405161025b91906111ec565b60405180910390f35b34801561027057600080fd5b506102796109ff565b6040516102919c9b9a9998979695949392919061127e565b60405180910390f35b3480156102a657600080fd5b506102af610c1e565b6040516102bc91906111ec565b60405180910390f35b3480156102d157600080fd5b506102da610c24565b6040516102e7919061134d565b60405180910390f35b3480156102fc57600080fd5b50610305610c37565b60405161031291906111b1565b60405180910390f35b34801561032757600080fd5b50610330610cc5565b60405161033d91906111ec565b60405180910390f35b61034e610ccb565b005b60008054906101000a900473ffffffffffffffffffffffffffffffffffffffff1681565b6008805461038190611397565b80601f01602080910402602001604051908101604052809291908181526020018280546103ad90611397565b80156103fa5780601f106103cf576101008083540402835291602001916103fa565b820191906000526020600020905b8154815290600101906020018083116103dd57829003601f168201915b505050505081565b60025481565b60008054906101000a900473ffffffffffffffffffffffffffffffffffffffff1673ffffffffffffffffffffffffffffffffffffffff163373ffffffffffffffffffffffffffffffffffffffff1614610496576040517f08c379a000000000000000000000000000000000000000000000000000000000815260040161048d9061143a565b60405180910390fd5b600160038111156104aa576104a9611207565b5b600a60009054906101000a900460ff1660038111156104cc576104cb611207565b5b1461050c576040517f08c379a0000000000000000000000000000000000000000000000000000000008152600401610503906114f2565b60405180910390fd5b6002544210610550576040517f08c379a000000000000000000000000000000000000000000000000000000000815260040161054790611584565b60405180910390fd5b60008054906101000a900473ffffffffffffffffffffffffffffffffffffffff1673ffffffffffffffffffffffffffffffffffffffff166108fc6005549081150290604051600060405180830381858888f193505050501580156105b8573d6000803e3d6000fd5b506002600a60006101000a81548160ff021916908360038111156105df576105de611207565b5b02179055507fc364254574c58e1bdd9077b0e35e609ee391ca636748a275674d5fb5bdc1d3f660008054906101000a900473ffffffffffffffffffffffffffffffffffffffff16600554604051610637929190611603565b60405180910390a1565b60065481565b600047905090565b6009805461065c90611397565b80601f016020809104026020016040519081016040528092919081815260200182805461068890611397565b80156106d55780601f106106aa576101008083540402835291602001916106d5565b820191906000526020600020905b8154815290600101906020018083116106b857829003601f168201915b505050505081565b60008054906101000a900473ffffffffffffffffffffffffffffffffffffffff1673ffffffffffffffffffffffffffffffffffffffff163373ffffffffffffffffffffffffffffffffffffffff161461076b576040517f08c379a00000000000000000000000000000000000000000000000000000000081526004016107629061143a565b60405180910390fd5b60025442106107af576040517f08c379a00000000000000000000000000000000000000000000000000000000081526004016107a69061169e565b60405180910390fd5b600060038111156107c3576107c2611207565b5b600a60009054906101000a900460ff1660038111156107e5576107e4611207565b5b1480610824575060016003811115610800576107ff611207565b5b600a60009054906101000a900460ff16600381111561082257610821611207565b5b145b610863576040517f08c379a000000000000000000000000000000000000000000000000000000000815260040161085a90611730565b60405180910390fd5b60005b60065481101561098857600b818154811061088457610883611750565b5b906000526020600020906002020160000160009054906101000a900473ffffffffffffffffffffffffffffffffffffffff1673ffffffffffffffffffffffffffffffffffffffff166108fc600b83815481106108e3576108e2611750565b5b9060005260206000209060020201600101549081150290604051600060405180830381858888f19350505050158015610920573d6000803e3d6000fd5b50600b818154811061093557610934611750565b5b9060005260206000209060020201600080820160006101000a81549073ffffffffffffffffffffffffffffffffffffffff0219169055600182016000905550508080610980906117ae565b915050610866565b506003600a60006101000a81548160ff021916908360038111156109af576109ae611207565b5b02179055507fd69eae259b3e1e42f22f60a8a54dbf4d1983d006a10d5f36c068ccc87eb493916006546005546040516109e99291906117f6565b60405180910390a1565b60015481565b60045481565b600080600080600080606080600080606060008060009054906101000a900473ffffffffffffffffffffffffffffffffffffffff169b506001549a50600254995060035498506004549750600554965060078054610a5c90611397565b80601f0160208091040260200160405190810160405280929190818152602001828054610a8890611397565b8015610ad55780601f10610aaa57610100808354040283529160200191610ad5565b820191906000526020600020905b815481529060010190602001808311610ab857829003601f168201915b5050505050955060088054610ae990611397565b80601f0160208091040260200160405190810160405280929190818152602001828054610b1590611397565b8015610b625780601f10610b3757610100808354040283529160200191610b62565b820191906000526020600020905b815481529060010190602001808311610b4557829003601f168201915b50505050509450600a60009054906101000a900460ff16935047925060098054610b8b90611397565b80601f0160208091040260200160405190810160405280929190818152602001828054610bb790611397565b8015610c045780601f10610bd957610100808354040283529160200191610c04565b820191906000526020600020905b815481529060010190602001808311610be757829003601f168201915b505050505091506006549050909192939495969798999a9b565b60035481565b600a60009054906101000a900460ff1681565b60078054610c4490611397565b80601f0160208091040260200160405190810160405280929190818152602001828054610c7090611397565b8015610cbd5780601f10610c9257610100808354040283529160200191610cbd565b820191906000526020600020905b815481529060010190602001808311610ca057829003601f168201915b505050505081565b60055481565b60006003811115610cdf57610cde611207565b5b600a60009054906101000a900460ff166003811115610d0157610d00611207565b5b1480610d40575060016003811115610d1c57610d1b611207565b5b600a60009054906101000a900460ff166003811115610d3e57610d3d611207565b5b145b610d7f576040517f08c379a0000000000000000000000000000000000000000000000000000000008152600401610d769061186b565b60405180910390fd5b6002544210610dc3576040517f08c379a0000000000000000000000000000000000000000000000000000000008152600401610dba90611923565b60405180910390fd5b600154341015610e08576040517f08c379a0000000000000000000000000000000000000000000000000000000008152600401610dff9061198f565b60405180910390fd5b60003390506000610e1882610fa6565b90507fffffffffffffffffffffffffffffffffffffffffffffffffffffffffffffffff8103610f075760066000815480929190610e54906117ae565b9190505550600b60405180604001604052808473ffffffffffffffffffffffffffffffffffffffff16815260200134815250908060018154018082558091505060019003906000526020600020906002020160009091909190915060008201518160000160006101000a81548173ffffffffffffffffffffffffffffffffffffffff021916908373ffffffffffffffffffffffffffffffffffffffff160217905550602082015181600101555050610f44565b34600b8281548110610f1c57610f1b611750565b5b90600052602060002090600202016001016000828254610f3c91906119af565b925050819055505b3460056000828254610f5691906119af565b925050819055507f5cdc4ab8d637538ead6cc1904d4160343656c8c82bd266635cfd31ac008fffe08234600554604051610f92939291906119e3565b60405180910390a1610fa2611076565b5050565b6000807fffffffffffffffffffffffffffffffffffffffffffffffffffffffffffffffff905060005b60065481121561106c57600b8181548110610fed57610fec611750565b5b906000526020600020906002020160000160009054906101000a900473ffffffffffffffffffffffffffffffffffffffff1673ffffffffffffffffffffffffffffffffffffffff168473ffffffffffffffffffffffffffffffffffffffff16036110595780915061106c565b808061106490611a24565b915050610fcf565b5080915050919050565b6003546005541015801561108b575060025442105b156110c3576001600a60006101000a81548160ff021916908360038111156110b6576110b5611207565b5b0217905550426004819055505b565b600073ffffffffffffffffffffffffffffffffffffffff82169050919050565b60006110f0826110c5565b9050919050565b611100816110e5565b82525050565b600060208201905061111b60008301846110f7565b92915050565b600081519050919050565b600082825260208201905092915050565b60005b8381101561115b578082015181840152602081019050611140565b60008484015250505050565b6000601f19601f8301169050919050565b600061118382611121565b61118d818561112c565b935061119d81856020860161113d565b6111a681611167565b840191505092915050565b600060208201905081810360008301526111cb8184611178565b905092915050565b6000819050919050565b6111e6816111d3565b82525050565b600060208201905061120160008301846111dd565b92915050565b7f4e487b7100000000000000000000000000000000000000000000000000000000600052602160045260246000fd5b6004811061124757611246611207565b5b50565b600081905061125882611236565b919050565b60006112688261124a565b9050919050565b6112788161125d565b82525050565b600061018082019050611294600083018f6110f7565b6112a1602083018e6111dd565b6112ae604083018d6111dd565b6112bb606083018c6111dd565b6112c8608083018b6111dd565b6112d560a083018a6111dd565b81810360c08301526112e78189611178565b905081810360e08301526112fb8188611178565b905061130b61010083018761126f565b6113196101208301866111dd565b81810361014083015261132c8185611178565b905061133c6101608301846111dd565b9d9c50505050505050505050505050565b6000602082019050611362600083018461126f565b92915050565b7f4e487b7100000000000000000000000000000000000000000000000000000000600052602260045260246000fd5b600060028204905060018216806113af57607f821691505b6020821081036113c2576113c1611368565b5b50919050565b7f596f7520646f6e7420686176652061636365737320746f20706572666f726d2060008201527f74686973206f7065726174696f6e202100000000000000000000000000000000602082015250565b600061142460308361112c565b915061142f826113c8565b604082019050919050565b6000602082019050818103600083015261145381611417565b9050919050565b7f476f616c206e6f7420726561636865642c20616d6f756e742063616e6e6f742060008201527f62652077697468647261776e2e20506c656173652061626f727420746f20726560208201527f66756e6420746f206261636b6572730000000000000000000000000000000000604082015250565b60006114dc604f8361112c565b91506114e78261145a565b606082019050919050565b6000602082019050818103600083015261150b816114cf565b9050919050565b7f43616d706169676e2063616e6e6f7420626520656e6465642c20646561646c6960008201527f6e65206e6f7420726561636865642e0000000000000000000000000000000000602082015250565b600061156e602f8361112c565b915061157982611512565b604082019050919050565b6000602082019050818103600083015261159d81611561565b9050919050565b6000819050919050565b60006115c96115c46115bf846110c5565b6115a4565b6110c5565b9050919050565b60006115db826115ae565b9050919050565b60006115ed826115d0565b9050919050565b6115fd816115e2565b82525050565b600060408201905061161860008301856115f4565b61162560208301846111dd565b9392505050565b7f43616d706169676e2063616e6e6f742062652061626f727465642c206465616460008201527f6c696e65207061737365642e0000000000000000000000000000000000000000602082015250565b6000611688602c8361112c565b91506116938261162c565b604082019050919050565b600060208201905081810360008301526116b78161167b565b9050919050565b7f496e76616c69642073746174652e2043616e6e6f742061626f72742063616d7060008201527f6169676e2e000000000000000000000000000000000000000000000000000000602082015250565b600061171a60258361112c565b9150611725826116be565b604082019050919050565b600060208201905081810360008301526117498161170d565b9050919050565b7f4e487b7100000000000000000000000000000000000000000000000000000000600052603260045260246000fd5b7f4e487b7100000000000000000000000000000000000000000000000000000000600052601160045260246000fd5b60006117b9826111d3565b91507fffffffffffffffffffffffffffffffffffffffffffffffffffffffffffffffff82036117eb576117ea61177f565b5b600182019050919050565b600060408201905061180b60008301856111dd565b61181860208301846111dd565b9392505050565b7f496e76616c696420737461746500000000000000000000000000000000000000600082015250565b6000611855600d8361112c565b91506118608261181f565b602082019050919050565b6000602082019050818103600083015261188481611848565b9050919050565b7f536f727279206261636b65722c20646561646c696e652068617320706173736560008201527f6421204e6f20636f6e747269627574696f6e732063616e20626520616363657060208201527f746564206e6f772e000000000000000000000000000000000000000000000000604082015250565b600061190d60488361112c565b91506119188261188b565b606082019050919050565b6000602082019050818103600083015261193c81611900565b9050919050565b7f436f6e747269627574696f6e20616d6f756e7420697320746f6f206c6f772021600082015250565b600061197960208361112c565b915061198482611943565b602082019050919050565b600060208201905081810360008301526119a88161196c565b9050919050565b60006119ba826111d3565b91506119c5836111d3565b92508282019050808211156119dd576119dc61177f565b5b92915050565b60006060820190506119f860008301866115f4565b611a0560208301856111dd565b611a1260408301846111dd565b949350505050565b6000819050919050565b6000611a2f82611a1a565b91507f7fffffffffffffffffffffffffffffffffffffffffffffffffffffffffffffff8203611a6157611a6061177f565b5b60018201905091905056fea2646970667358221220f0f4978c7182d02832e1d74040556216c13b4a30c701b52a81f02e6713fda0eb64736f6c63430008110033",
  "linkReferences": {},
  "deployedLinkReferences": {}
}