{
  "_format": "hh-sol-artifact-1",
  "contractName": "Campaign",
  "sourceName": "contracts/CrowdHelp.sol",
  "abi": [
    {
      "inputs": [
        {
          "internalType": "address",
          "name": "_creator",
          "type": "address"
        },
        {
          "internalType": "uint256",
          "name": "_minimumContribution",
          "type": "uint256"
        },
        {
          "internalType": "uint256",
          "name": "_deadline",
          "type": "uint256"
        },
        {
          "internalType": "uint256",
          "name": "_targetContribution",
          "type": "uint256"
        },
        {
          "internalType": "string",
          "name": "_projectTitle",
          "type": "string"
        },
        {
          "internalType": "string",
          "name": "_projectDes",
          "type": "string"
        },
        {
          "internalType": "string",
          "name": "_bannerUrl",
          "type": "string"
        },
        {
          "internalType": "uint256",
          "name": "_campaignSchemeId",
          "type": "uint256"
        }
      ],
      "stateMutability": "nonpayable",
      "type": "constructor"
    },
    {
      "anonymous": false,
      "inputs": [
        {
          "indexed": false,
          "internalType": "address",
          "name": "contributor",
          "type": "address"
        },
        {
          "indexed": false,
          "internalType": "uint256",
          "name": "amountTotal",
          "type": "uint256"
        }
      ],
      "name": "AmountCredited",
      "type": "event"
    },
    {
      "anonymous": false,
      "inputs": [
        {
          "indexed": false,
          "internalType": "uint256",
          "name": "noOfContributors",
          "type": "uint256"
        },
        {
          "indexed": false,
          "internalType": "uint256",
          "name": "amountTotal",
          "type": "uint256"
        }
      ],
      "name": "AmountRefunded",
      "type": "event"
    },
    {
      "anonymous": false,
      "inputs": [
        {
          "indexed": false,
          "internalType": "address",
          "name": "contributor",
          "type": "address"
        },
        {
          "indexed": false,
          "internalType": "uint256",
          "name": "amount",
          "type": "uint256"
        },
        {
          "indexed": false,
          "internalType": "uint256",
          "name": "currentTotal",
          "type": "uint256"
        }
      ],
      "name": "FundingReceived",
      "type": "event"
    },
    {
      "inputs": [],
      "name": "SCHEMES_COUNT",
      "outputs": [
        {
          "internalType": "uint256",
          "name": "",
          "type": "uint256"
        }
      ],
      "stateMutability": "view",
      "type": "function"
    },
    {
      "inputs": [],
      "name": "abortCampaignAndRefund",
      "outputs": [],
      "stateMutability": "payable",
      "type": "function"
    },
    {
      "inputs": [],
      "name": "bannerUrl",
      "outputs": [
        {
          "internalType": "string",
          "name": "",
          "type": "string"
        }
      ],
      "stateMutability": "view",
      "type": "function"
    },
    {
      "inputs": [],
      "name": "campaignSchemeId",
      "outputs": [
        {
          "internalType": "enum Campaign.CampaignSchemeId",
          "name": "",
          "type": "uint8"
        }
      ],
      "stateMutability": "view",
      "type": "function"
    },
    {
      "inputs": [],
      "name": "contribute",
      "outputs": [],
      "stateMutability": "payable",
      "type": "function"
    },
    {
      "inputs": [],
      "name": "creator",
      "outputs": [
        {
          "internalType": "address payable",
          "name": "",
          "type": "address"
        }
      ],
      "stateMutability": "view",
      "type": "function"
    },
    {
      "inputs": [],
      "name": "deadline",
      "outputs": [
        {
          "internalType": "uint256",
          "name": "",
          "type": "uint256"
        }
      ],
      "stateMutability": "view",
      "type": "function"
    },
    {
      "inputs": [],
      "name": "endCampaignAndCredit",
      "outputs": [],
      "stateMutability": "payable",
      "type": "function"
    },
    {
      "inputs": [],
      "name": "getAllSchemeTitles",
      "outputs": [
        {
          "internalType": "string[]",
          "name": "",
          "type": "string[]"
        }
      ],
      "stateMutability": "pure",
      "type": "function"
    },
    {
      "inputs": [],
      "name": "getCampaignSummary",
      "outputs": [
        {
          "internalType": "address payable",
          "name": "projectStarter",
          "type": "address"
        },
        {
          "internalType": "uint256",
          "name": "minContribution",
          "type": "uint256"
        },
        {
          "internalType": "uint256",
          "name": "projectDeadline",
          "type": "uint256"
        },
        {
          "internalType": "uint256",
          "name": "goalAmount",
          "type": "uint256"
        },
        {
          "internalType": "uint256",
          "name": "completedTime",
          "type": "uint256"
        },
        {
          "internalType": "uint256",
          "name": "currentAmount",
          "type": "uint256"
        },
        {
          "internalType": "string",
          "name": "title",
          "type": "string"
        },
        {
          "internalType": "string",
          "name": "desc",
          "type": "string"
        },
        {
          "internalType": "enum Campaign.State",
          "name": "currentState",
          "type": "uint8"
        },
        {
          "internalType": "uint256",
          "name": "balance",
          "type": "uint256"
        },
        {
          "internalType": "string",
          "name": "imageUrl",
          "type": "string"
        },
        {
          "internalType": "uint256",
          "name": "numBackers",
          "type": "uint256"
        },
        {
          "internalType": "uint256",
          "name": "schemeId",
          "type": "uint256"
        }
      ],
      "stateMutability": "view",
      "type": "function"
    },
    {
      "inputs": [],
      "name": "getContractBalance",
      "outputs": [
        {
          "internalType": "uint256",
          "name": "",
          "type": "uint256"
        }
      ],
      "stateMutability": "view",
      "type": "function"
    },
    {
      "inputs": [
        {
          "internalType": "uint256",
          "name": "idx",
          "type": "uint256"
        }
      ],
      "name": "getSchemeTitle",
      "outputs": [
        {
          "internalType": "string",
          "name": "title",
          "type": "string"
        }
      ],
      "stateMutability": "pure",
      "type": "function"
    },
    {
      "inputs": [],
      "name": "minimumContribution",
      "outputs": [
        {
          "internalType": "uint256",
          "name": "",
          "type": "uint256"
        }
      ],
      "stateMutability": "view",
      "type": "function"
    },
    {
      "inputs": [],
      "name": "noOfContributors",
      "outputs": [
        {
          "internalType": "uint256",
          "name": "",
          "type": "uint256"
        }
      ],
      "stateMutability": "view",
      "type": "function"
    },
    {
      "inputs": [],
      "name": "projectDes",
      "outputs": [
        {
          "internalType": "string",
          "name": "",
          "type": "string"
        }
      ],
      "stateMutability": "view",
      "type": "function"
    },
    {
      "inputs": [],
      "name": "projectTitle",
      "outputs": [
        {
          "internalType": "string",
          "name": "",
          "type": "string"
        }
      ],
      "stateMutability": "view",
      "type": "function"
    },
    {
      "inputs": [],
      "name": "raisedAmount",
      "outputs": [
        {
          "internalType": "uint256",
          "name": "",
          "type": "uint256"
        }
      ],
      "stateMutability": "view",
      "type": "function"
    },
    {
      "inputs": [],
      "name": "reachedTargetAt",
      "outputs": [
        {
          "internalType": "uint256",
          "name": "",
          "type": "uint256"
        }
      ],
      "stateMutability": "view",
      "type": "function"
    },
    {
      "inputs": [],
      "name": "state",
      "outputs": [
        {
          "internalType": "enum Campaign.State",
          "name": "",
          "type": "uint8"
        }
      ],
      "stateMutability": "view",
      "type": "function"
    },
    {
      "inputs": [],
      "name": "targetContribution",
      "outputs": [
        {
          "internalType": "uint256",
          "name": "",
          "type": "uint256"
        }
      ],
      "stateMutability": "view",
      "type": "function"
    }
  ],
  "bytecode": "0x6080604052600a805460ff191690553480156200001a575f80fd5b50604051620015d5380380620015d58339810160408190526200003d916200022d565b5f80546001600160a01b0319166001600160a01b038a1617905560018790556002869055600385905560076200007485826200037e565b5060086200008384826200037e565b505f60055560096200009683826200037e565b50620000a281620000d6565b600a805461ff001916610100836001811115620000c357620000c362000144565b0217905550505050505050505062000446565b5f60028210620001215760405162461bcd60e51b8152602060048201526012602482015271496e646578206f7574206f662072616e676560701b604482015260640160405180910390fd5b816200012e57505f919050565b600182036200013f57506001919050565b919050565b634e487b7160e01b5f52602160045260245ffd5b80516001600160a01b03811681146200013f575f80fd5b634e487b7160e01b5f52604160045260245ffd5b5f82601f83011262000193575f80fd5b81516001600160401b0380821115620001b057620001b06200016f565b604051601f8301601f19908116603f01168101908282118183101715620001db57620001db6200016f565b81604052838152602092508683858801011115620001f7575f80fd5b5f91505b838210156200021a5785820183015181830184015290820190620001fb565b5f93810190920192909252949350505050565b5f805f805f805f80610100898b03121562000246575f80fd5b620002518962000158565b60208a015160408b015160608c015160808d0151939b50919950975095506001600160401b038082111562000284575f80fd5b620002928c838d0162000183565b955060a08b0151915080821115620002a8575f80fd5b620002b68c838d0162000183565b945060c08b0151915080821115620002cc575f80fd5b50620002db8b828c0162000183565b92505060e089015190509295985092959890939650565b600181811c908216806200030757607f821691505b6020821081036200032657634e487b7160e01b5f52602260045260245ffd5b50919050565b601f82111562000379575f81815260208120601f850160051c81016020861015620003545750805b601f850160051c820191505b81811015620003755782815560010162000360565b5050505b505050565b81516001600160401b038111156200039a576200039a6200016f565b620003b281620003ab8454620002f2565b846200032c565b602080601f831160018114620003e8575f8415620003d05750858301515b5f19600386901b1c1916600185901b17855562000375565b5f85815260208120601f198616915b828110156200041857888601518255948401946001909101908401620003f7565b50858210156200043657878501515f19600388901b60f8161c191681555b5050505050600190811b01905550565b61118180620004545f395ff3fe60806040526004361061011b575f3560e01c80638d27289e1161009d578063b82c86d611610062578063b82c86d6146102c1578063c19d93fb146102d6578063c3e20c9f146102fc578063c59ee1dc14610310578063d7bb99ba14610325575f80fd5b80638d27289e14610243578063937e09b11461024b5780639d43b9b514610260578063a00c96d714610275578063a66475a8146102a2575f80fd5b806356f78a32116100e357806356f78a32146101bd5780636b0bad19146101d15780636eef7d95146101f25780636f9fb98a1461021d5780637a9a80551461022f575f80fd5b806302d05d3f1461011f57806303c29d581461015a57806329dcb0cf1461017b5780633d0300bd1461019e5780634e260f6f146101a8575b5f80fd5b34801561012a575f80fd5b505f5461013d906001600160a01b031681565b6040516001600160a01b0390911681526020015b60405180910390f35b348015610165575f80fd5b5061016e61032d565b6040516101519190610ede565b348015610186575f80fd5b5061019060025481565b604051908152602001610151565b6101a66103b9565b005b3480156101b3575f80fd5b5061019060065481565b3480156101c8575f80fd5b50610190600281565b3480156101dc575f80fd5b506101e561058a565b6040516101519190610ef7565b3480156101fd575f80fd5b50600a5461021090610100900460ff1681565b6040516101519190610f6b565b348015610228575f80fd5b5047610190565b34801561023a575f80fd5b5061016e610604565b6101a6610611565b348015610256575f80fd5b5061019060015481565b34801561026b575f80fd5b5061019060045481565b348015610280575f80fd5b50610289610851565b6040516101519d9c9b9a99989796959493929190610f99565b3480156102ad575f80fd5b5061016e6102bc366004611034565b610a71565b3480156102cc575f80fd5b5061019060035481565b3480156102e1575f80fd5b50600a546102ef9060ff1681565b604051610151919061104b565b348015610307575f80fd5b5061016e610b47565b34801561031b575f80fd5b5061019060055481565b6101a6610b54565b6008805461033a9061105f565b80601f01602080910402602001604051908101604052809291908181526020018280546103669061105f565b80156103b15780601f10610388576101008083540402835291602001916103b1565b820191905f5260205f20905b81548152906001019060200180831161039457829003601f168201915b505050505081565b5f546001600160a01b031633146103eb5760405162461bcd60e51b81526004016103e290611091565b60405180910390fd5b6001600a5460ff16600381111561040457610404610f57565b1461048f5760405162461bcd60e51b815260206004820152604f60248201527f476f616c206e6f7420726561636865642c20616d6f756e742063616e6e6f742060448201527f62652077697468647261776e2e20506c656173652061626f727420746f20726560648201526e66756e6420746f206261636b65727360881b608482015260a4016103e2565b60025442106104f85760405162461bcd60e51b815260206004820152602f60248201527f43616d706169676e2063616e6e6f7420626520656e6465642c20646561646c6960448201526e3732903737ba103932b0b1b432b21760891b60648201526084016103e2565b5f80546005546040516001600160a01b039092169281156108fc029290818181858888f19350505050158015610530573d5f803e3d5ffd5b50600a805460ff191660021790555f54600554604080516001600160a01b03909316835260208301919091527fc364254574c58e1bdd9077b0e35e609ee391ca636748a275674d5fb5bdc1d3f691015b60405180910390a1565b60408051600280825260608281019093525f9190816020015b60608152602001906001900390816105a35790505090505f5b60028110156105fe576105ce81610a71565b8282815181106105e0576105e06110e1565b602002602001018190525080806105f690611109565b9150506105bc565b50919050565b6009805461033a9061105f565b5f546001600160a01b0316331461063a5760405162461bcd60e51b81526004016103e290611091565b60025442106106a05760405162461bcd60e51b815260206004820152602c60248201527f43616d706169676e2063616e6e6f742062652061626f727465642c206465616460448201526b3634b732903830b9b9b2b21760a11b60648201526084016103e2565b5f600a5460ff1660038111156106b8576106b8610f57565b14806106da57506001600a5460ff1660038111156106d8576106d8610f57565b145b6107345760405162461bcd60e51b815260206004820152602560248201527f496e76616c69642073746174652e2043616e6e6f742061626f72742063616d7060448201526430b4b3b71760d91b60648201526084016103e2565b5f5b60065481101561080657600b8181548110610753576107536110e1565b5f918252602090912060029091020154600b80546001600160a01b03909216916108fc919084908110610788576107886110e1565b905f5260205f2090600202016001015490811502906040515f60405180830381858888f193505050501580156107c0573d5f803e3d5ffd5b50600b81815481106107d4576107d46110e1565b5f9182526020822060029091020180546001600160a01b031916815560010155806107fe81611109565b915050610736565b50600a805460ff191660031790556006546005546040805192835260208301919091527fd69eae259b3e1e42f22f60a8a54dbf4d1983d006a10d5f36c068ccc87eb493919101610580565b5f8054600154600254600354600454600554600780546001600160a01b0390971697959694959394929391926060928392909182918491839182916108959061105f565b80601f01602080910402602001604051908101604052809291908181526020018280546108c19061105f565b801561090c5780601f106108e35761010080835404028352916020019161090c565b820191905f5260205f20905b8154815290600101906020018083116108ef57829003601f168201915b50505050509650600880546109209061105f565b80601f016020809104026020016040519081016040528092919081815260200182805461094c9061105f565b80156109975780601f1061096e57610100808354040283529160200191610997565b820191905f5260205f20905b81548152906001019060200180831161097a57829003601f168201915b5050600a5460098054959b5060ff9091169950479850936109bc9350915061105f9050565b80601f01602080910402602001604051908101604052809291908181526020018280546109e89061105f565b8015610a335780601f10610a0a57610100808354040283529160200191610a33565b820191905f5260205f20905b815481529060010190602001808311610a1657829003601f168201915b505050505092506006549150600a60019054906101000a900460ff166001811115610a6057610a60610f57565b9050909192939495969798999a9b9c565b606060028210610ab85760405162461bcd60e51b8152602060048201526012602482015271496e646578206f7574206f662072616e676560701b60448201526064016103e2565b81610ae757505060408051808201909152600e81526d416c6c206f72204e6f7468696e6760901b602082015290565b60018203610b1d57505060408051808201909152601281527148616c6620676f616c20776974686472617760701b602082015290565b505060408051808201909152600e81526d496e76616c696420736368656d6560901b602082015290565b6007805461033a9061105f565b5f600a5460ff166003811115610b6c57610b6c610f57565b1480610b8e57506001600a5460ff166003811115610b8c57610b8c610f57565b145b610bca5760405162461bcd60e51b815260206004820152600d60248201526c496e76616c696420737461746560981b60448201526064016103e2565b6002544210610c525760405162461bcd60e51b815260206004820152604860248201527f536f727279206261636b65722c20646561646c696e652068617320706173736560448201527f6421204e6f20636f6e747269627574696f6e732063616e2062652061636365706064820152673a32b2103737bb9760c11b608482015260a4016103e2565b600154341015610ca45760405162461bcd60e51b815260206004820181905260248201527f436f6e747269627574696f6e20616d6f756e7420697320746f6f206c6f77202160448201526064016103e2565b335f610caf82610e07565b90508019610d635760068054905f610cc683611109565b9091555050604080518082019091526001600160a01b0383811682523460208301908152600b80546001810182555f9190915292517f0175b7a638427703f0dbe7bb9bbf987a2551717b34e79f33b5b1008d1fa01db9600290940293840180546001600160a01b0319169190931617909155517f0175b7a638427703f0dbe7bb9bbf987a2551717b34e79f33b5b1008d1fa01dba90910155610d9a565b34600b8281548110610d7757610d776110e1565b905f5260205f2090600202016001015f828254610d949190611121565b90915550505b3460055f828254610dab9190611121565b9091555050600554604080516001600160a01b038516815234602082015280820192909252517f5cdc4ab8d637538ead6cc1904d4160343656c8c82bd266635cfd31ac008fffe09181900360600190a1610e03610e6d565b5050565b5f5f19815b600654811215610e6657600b8181548110610e2957610e296110e1565b5f9182526020909120600290910201546001600160a01b0390811690851603610e5457809150610e66565b80610e5e81611134565b915050610e0c565b5092915050565b60035460055410158015610e82575060025442105b15610e9957600a805460ff19166001179055426004555b565b5f81518084525f5b81811015610ebf57602081850181015186830182015201610ea3565b505f602082860101526020601f19601f83011685010191505092915050565b602081525f610ef06020830184610e9b565b9392505050565b5f602080830181845280855180835260408601915060408160051b87010192508387015f5b82811015610f4a57603f19888603018452610f38858351610e9b565b94509285019290850190600101610f1c565b5092979650505050505050565b634e487b7160e01b5f52602160045260245ffd5b6020810160028310610f7f57610f7f610f57565b91905290565b60048110610f9557610f95610f57565b9052565b60018060a01b038e1681528c60208201528b60408201528a60608201528960808201528860a08201526101a060c08201525f610fd96101a083018a610e9b565b82810360e0840152610feb818a610e9b565b9050610ffb610100840189610f85565b866101208401528281036101408401526110158187610e9b565b610160840195909552505061018001529b9a5050505050505050505050565b5f60208284031215611044575f80fd5b5035919050565b602081016110598284610f85565b92915050565b600181811c9082168061107357607f821691505b6020821081036105fe57634e487b7160e01b5f52602260045260245ffd5b60208082526030908201527f596f7520646f6e7420686176652061636365737320746f20706572666f726d2060408201526f74686973206f7065726174696f6e202160801b606082015260800190565b634e487b7160e01b5f52603260045260245ffd5b634e487b7160e01b5f52601160045260245ffd5b5f6001820161111a5761111a6110f5565b5060010190565b80820180821115611059576110596110f5565b5f6001600160ff1b01820161111a5761111a6110f556fea264697066735822122031871dffe7958f100d474b0011bd8db33457bc98594e863b6e96a173a85ede6164736f6c63430008150033",
  "linkReferences": {},
  "deployedLinkReferences": {}
}