{
  "_format": "hh-sol-artifact-1",
  "contractName": "CrowdHelp",
  "sourceName": "contracts/CrowdHelp.sol",
  "abi": [
    {
      "anonymous": false,
      "inputs": [
        {
          "indexed": false,
          "internalType": "string",
          "name": "reason",
          "type": "string"
        }
      ],
      "name": "CampaignCreationFailed",
      "type": "event"
    },
    {
      "anonymous": false,
      "inputs": [
        {
          "indexed": false,
          "internalType": "address",
          "name": "projectContractAddress",
          "type": "address"
        },
        {
          "indexed": false,
          "internalType": "address",
          "name": "creator",
          "type": "address"
        },
        {
          "indexed": false,
          "internalType": "uint256",
          "name": "minContribution",
          "type": "uint256"
        },
        {
          "indexed": false,
          "internalType": "uint256",
          "name": "projectDeadline",
          "type": "uint256"
        },
        {
          "indexed": false,
          "internalType": "uint256",
          "name": "goalAmount",
          "type": "uint256"
        },
        {
          "indexed": false,
          "internalType": "uint256",
          "name": "currentAmount",
          "type": "uint256"
        },
        {
          "indexed": false,
          "internalType": "uint256",
          "name": "noOfContributors",
          "type": "uint256"
        },
        {
          "indexed": false,
          "internalType": "string",
          "name": "title",
          "type": "string"
        },
        {
          "indexed": false,
          "internalType": "string",
          "name": "desc",
          "type": "string"
        },
        {
          "indexed": false,
          "internalType": "uint256",
          "name": "currentState",
          "type": "uint256"
        }
      ],
      "name": "CampaignStarted",
      "type": "event"
    },
    {
      "anonymous": false,
      "inputs": [
        {
          "indexed": false,
          "internalType": "address",
          "name": "projectAddress",
          "type": "address"
        },
        {
          "indexed": false,
          "internalType": "uint256",
          "name": "contributedAmount",
          "type": "uint256"
        },
        {
          "indexed": true,
          "internalType": "address",
          "name": "contributor",
          "type": "address"
        }
      ],
      "name": "ContributionReceived",
      "type": "event"
    },
    {
      "inputs": [
        {
          "internalType": "string",
          "name": "projectTitle",
          "type": "string"
        },
        {
          "internalType": "string",
          "name": "projectDesc",
          "type": "string"
        },
        {
          "internalType": "uint256",
          "name": "minimumContribution",
          "type": "uint256"
        },
        {
          "internalType": "uint256",
          "name": "targetContribution",
          "type": "uint256"
        },
        {
          "internalType": "uint256",
          "name": "deadline",
          "type": "uint256"
        },
        {
          "internalType": "string",
          "name": "bannerUrl",
          "type": "string"
        },
        {
          "internalType": "uint256",
          "name": "campaignSchemeId",
          "type": "uint256"
        }
      ],
      "name": "createCampaign",
      "outputs": [],
      "stateMutability": "nonpayable",
      "type": "function"
    },
    {
      "inputs": [],
      "name": "returnDeployedCampaigns",
      "outputs": [
        {
          "internalType": "contract Campaign[]",
          "name": "",
          "type": "address[]"
        }
      ],
      "stateMutability": "view",
      "type": "function"
    }
  ],
  "bytecode": "0x608060405234801561001057600080fd5b50611da7806100206000396000f3fe60806040523480156200001157600080fd5b50600436106200003a5760003560e01c80630f415b61146200003f578063e327e2141462000058575b600080fd5b620000566200005036600462000306565b6200007a565b005b620000626200019d565b60405162000071919062000481565b60405180910390f35b620000bb6040518060400160405280601e81526020017f4372656174696e672063616d706169676e207769746820736368656d653a00008152508262000201565b6000338685878b8b8888604051620000d3906200026f565b620000e698979695949392919062000409565b604051809103906000f08015801562000103573d6000803e3d6000fd5b509050620001476040518060400160405280601e81526020017f4372656174696e672063616d706169676e207769746820736368656d653a00008152508362000201565b600080546001810182559080527f290decd9548b62a8d60345a988386fc84ba6bc95484008f6362f93160ef3e5630180546001600160a01b0319166001600160a01b039290921691909117905550505050505050565b60606000805480602002602001604051908101604052809291908181526020018280548015620001f757602002820191906000526020600020905b81546001600160a01b03168152600190910190602001808311620001d8575b5050505050905090565b6200024a82826040516024016200021a929190620004d0565b60408051601f198184030181529190526020810180516001600160e01b0316632d839cb360e21b1790526200024e565b5050565b80516a636f6e736f6c652e6c6f67602083016000808483855afa5050505050565b611867806200050b83390190565b600082601f8301126200028e578081fd5b813567ffffffffffffffff80821115620002ac57620002ac620004f4565b604051601f8301601f191681016020018281118282101715620002d357620002d3620004f4565b604052828152848301602001861015620002eb578384fd5b82602086016020830137918201602001929092529392505050565b600080600080600080600060e0888a03121562000321578283fd5b873567ffffffffffffffff8082111562000339578485fd5b620003478b838c016200027d565b985060208a01359150808211156200035d578485fd5b6200036b8b838c016200027d565b975060408a0135965060608a0135955060808a0135945060a08a013591508082111562000396578384fd5b50620003a58a828b016200027d565b92505060c0880135905092959891949750929550565b60008151808452815b81811015620003e257602081850181015186830182015201620003c4565b81811115620003f45782602083870101525b50601f01601f19169290920160200192915050565b600061010060018060a01b038b1683528960208401528860408401528760608401528060808401526200043f81840188620003bb565b905082810360a0840152620004558187620003bb565b905082810360c08401526200046b8186620003bb565b9150508260e08301529998505050505050505050565b6020808252825182820181905260009190848201906040850190845b81811015620004c45783516001600160a01b0316835292840192918401916001016200049d565b50909695505050505050565b600060408252620004e56040830185620003bb565b90508260208301529392505050565b634e487b7160e01b600052604160045260246000fdfe6080604052600a805460ff191690553480156200001b57600080fd5b5060405162001867380380620018678339810160408190526200003e916200048d565b620000896040518060400160405280601381526020017f436f6e7374727563746f722072656163686564000000000000000000000000008152506200024960201b62000b261760201c565b60028110620000b55760405162461bcd60e51b8152600401620000ac9062000611565b60405180910390fd5b620001016040518060400160405280601781526020017f63616d706169676e536368656d654964202875696e7429000000000000000000815250826200029760201b62000b6c1760201c565b6200014f6040518060400160405280601381526020017f6d696e696d756d436f6e747269627574696f6e000000000000000000000000008152506001546200029760201b62000b6c1760201c565b7f5cdc4ab8d637538ead6cc1904d4160343656c8c82bd266635cfd31ac008fffe033600080604051620001859392919062000584565b60405180910390a1600080546001600160a01b0319166001600160a01b038a161790556001879055600286905560038590558351620001cc90600790602087019062000346565b508251620001e290600890602086019062000346565b5060006005558151620001fd90600990602085019062000346565b506200020981620002e8565b600a805461ff0019166101008360018111156200023657634e487b7160e01b600052602160045260246000fd5b02179055505050505050505050620006c2565b6200029481604051602401620002609190620005a5565b60408051601f198184030181529190526020810180516001600160e01b0390811663104c13eb60e21b179091526200032516565b50565b620002e48282604051602401620002b0929190620005c1565b60408051601f198184030181529190526020810180516001600160e01b03908116632d839cb360e21b179091526200032516565b5050565b6000600282106200030d5760405162461bcd60e51b8152600401620000ac90620005e5565b816200031c5750600062000320565b5060015b919050565b80516a636f6e736f6c652e6c6f67602083016000808483855afa5050505050565b82805462000354906200066f565b90600052602060002090601f016020900481019282620003785760008555620003c3565b82601f106200039357805160ff1916838001178555620003c3565b82800160010185558215620003c3579182015b82811115620003c3578251825591602001919060010190620003a6565b50620003d1929150620003d5565b5090565b5b80821115620003d15760008155600101620003d6565b80516001600160a01b03811681146200032057600080fd5b600082601f83011262000415578081fd5b81516001600160401b0380821115620004325762000432620006ac565b604051601f8301601f191681016020018281118282101715620004595762000459620006ac565b60405282815284830160200186101562000471578384fd5b620004848360208301602088016200063c565b95945050505050565b600080600080600080600080610100898b031215620004aa578384fd5b620004b589620003ec565b60208a015160408b015160608c015160808d0151939b50919950975095506001600160401b0380821115620004e8578586fd5b620004f68c838d0162000404565b955060a08b01519150808211156200050c578485fd5b6200051a8c838d0162000404565b945060c08b015191508082111562000530578384fd5b506200053f8b828c0162000404565b92505060e089015190509295985092959890939650565b60008151808452620005708160208601602086016200063c565b601f01601f19169290920160200192915050565b6001600160a01b039390931683526020830191909152604082015260600190565b600060208252620005ba602083018462000556565b9392505050565b600060408252620005d6604083018562000556565b90508260208301529392505050565b602080825260129082015271496e646578206f7574206f662072616e676560701b604082015260600190565b602080825260119082015270125b9d985b1a59081cd8da195b59481a59607a1b604082015260600190565b60005b83811015620006595781810151838201526020016200063f565b8381111562000669576000848401525b50505050565b6002810460018216806200068457607f821691505b60208210811415620006a657634e487b7160e01b600052602260045260246000fd5b50919050565b634e487b7160e01b600052604160045260246000fd5b61119580620006d26000396000f3fe6080604052600436106100fe5760003560e01c80638d27289e11610095578063b82c86d611610064578063b82c86d61461023d578063c19d93fb14610252578063c3e20c9f14610274578063c59ee1dc14610289578063d7bb99ba1461029e576100fe565b80638d27289e146101dd578063937e09b1146101e55780639d43b9b5146101fa578063a00c96d71461020f576100fe565b80634e260f6f116100d15780634e260f6f1461017c5780636eef7d95146101915780636f9fb98a146101b35780637a9a8055146101c8576100fe565b806302d05d3f1461010357806303c29d581461012e57806329dcb0cf146101505780633d0300bd14610172575b600080fd5b34801561010f57600080fd5b506101186102a6565b6040516101259190610cd6565b60405180910390f35b34801561013a57600080fd5b506101436102b5565b6040516101259190610dee565b34801561015c57600080fd5b50610165610343565b6040516101259190611099565b61017a610349565b005b34801561018857600080fd5b50610165610474565b34801561019d57600080fd5b506101a661047a565b6040516101259190610dc0565b3480156101bf57600080fd5b50610165610488565b3480156101d457600080fd5b5061014361048c565b61017a610499565b3480156101f157600080fd5b5061016561069f565b34801561020657600080fd5b506101656106a5565b34801561021b57600080fd5b506102246106ab565b6040516101259d9c9b9a99989796959493929190610d24565b34801561024957600080fd5b506101656108e0565b34801561025e57600080fd5b506102676108e6565b6040516101259190610dda565b34801561028057600080fd5b506101436108ef565b34801561029557600080fd5b506101656108fc565b61017a610902565b6000546001600160a01b031681565b600880546102c2906110c8565b80601f01602080910402602001604051908101604052809291908181526020018280546102ee906110c8565b801561033b5780601f106103105761010080835404028352916020019161033b565b820191906000526020600020905b81548152906001019060200180831161031e57829003601f168201915b505050505081565b60025481565b6000546001600160a01b0316331461037c5760405162461bcd60e51b815260040161037390610ebe565b60405180910390fd5b6001600a5460ff1660038111156103a357634e487b7160e01b600052602160045260246000fd5b146103c05760405162461bcd60e51b815260040161037390610f0e565b60025442106103e15760405162461bcd60e51b815260040161037390610e2a565b600080546005546040516001600160a01b039092169281156108fc029290818181858888f1935050505015801561041c573d6000803e3d6000fd5b50600a805460ff191660021790556000546005546040517fc364254574c58e1bdd9077b0e35e609ee391ca636748a275674d5fb5bdc1d3f69261046a926001600160a01b0390911691610cea565b60405180910390a1565b60065481565b600a54610100900460ff1681565b4790565b600980546102c2906110c8565b6000546001600160a01b031633146104c35760405162461bcd60e51b815260040161037390610ebe565b60025442106104e45760405162461bcd60e51b81526004016103739061104d565b6000600a5460ff16600381111561050b57634e487b7160e01b600052602160045260246000fd5b148061053b57506001600a5460ff16600381111561053957634e487b7160e01b600052602160045260246000fd5b145b6105575760405162461bcd60e51b815260040161037390610e79565b60005b60065481101561065b57600b818154811061058557634e487b7160e01b600052603260045260246000fd5b6000918252602090912060029091020154600b80546001600160a01b03909216916108fc9190849081106105c957634e487b7160e01b600052603260045260246000fd5b9060005260206000209060020201600101549081150290604051600060405180830381858888f19350505050158015610606573d6000803e3d6000fd5b50600b818154811061062857634e487b7160e01b600052603260045260246000fd5b60009182526020822060029091020180546001600160a01b0319168155600101558061065381611123565b91505061055a565b50600a805460ff191660031790556006546005546040517fd69eae259b3e1e42f22f60a8a54dbf4d1983d006a10d5f36c068ccc87eb493919261046a9290916110a2565b60015481565b60045481565b60008054600154600254600354600454600554600780546001600160a01b0390971697959694959394929391926060928392909182918491839182916106f0906110c8565b80601f016020809104026020016040519081016040528092919081815260200182805461071c906110c8565b80156107695780601f1061073e57610100808354040283529160200191610769565b820191906000526020600020905b81548152906001019060200180831161074c57829003601f168201915b505050505096506008805461077d906110c8565b80601f01602080910402602001604051908101604052809291908181526020018280546107a9906110c8565b80156107f65780601f106107cb576101008083540402835291602001916107f6565b820191906000526020600020905b8154815290600101906020018083116107d957829003601f168201915b5050600a5460098054959b5060ff90911699504798509361081b935091506110c89050565b80601f0160208091040260200160405190810160405280929190818152602001828054610847906110c8565b80156108945780601f1061086957610100808354040283529160200191610894565b820191906000526020600020905b81548152906001019060200180831161087757829003601f168201915b505050505092506006549150600a60019054906101000a900460ff1660018111156108cf57634e487b7160e01b600052602160045260246000fd5b9050909192939495969798999a9b9c565b60035481565b600a5460ff1681565b600780546102c2906110c8565b60055481565b6000600a5460ff16600381111561092957634e487b7160e01b600052602160045260246000fd5b148061095957506001600a5460ff16600381111561095757634e487b7160e01b600052602160045260246000fd5b145b6109755760405162461bcd60e51b815260040161037390610f83565b60025442106109965760405162461bcd60e51b815260040161037390610fdf565b6001543410156109b85760405162461bcd60e51b815260040161037390610faa565b3360006109c482610bb1565b9050806000191415610a7e57600680549060006109e083611123565b9091555050604080518082019091526001600160a01b0383811682523460208301908152600b805460018101825560009190915292517f0175b7a638427703f0dbe7bb9bbf987a2551717b34e79f33b5b1008d1fa01db9600290940293840180546001600160a01b0319169190931617909155517f0175b7a638427703f0dbe7bb9bbf987a2551717b34e79f33b5b1008d1fa01dba90910155610ac6565b34600b8281548110610aa057634e487b7160e01b600052603260045260246000fd5b90600052602060002090600202016001016000828254610ac091906110b0565b90915550505b3460056000828254610ad891906110b0565b90915550506005546040517f5cdc4ab8d637538ead6cc1904d4160343656c8c82bd266635cfd31ac008fffe091610b129185913491610d03565b60405180910390a1610b22610c28565b5050565b610b6981604051602401610b3a9190610dee565b60408051601f198184030181529190526020810180516001600160e01b031663104c13eb60e21b179052610c56565b50565b610b228282604051602401610b82929190610e08565b60408051601f198184030181529190526020810180516001600160e01b0316632d839cb360e21b179052610c56565b6000600019815b600654811215610c2157600b8181548110610be357634e487b7160e01b600052603260045260246000fd5b60009182526020909120600290910201546001600160a01b0385811691161415610c0f57809150610c21565b80610c1981611103565b915050610bb8565b5092915050565b60035460055410158015610c3d575060025442105b15610c5457600a805460ff19166001179055426004555b565b80516a636f6e736f6c652e6c6f67602083016000808483855afa5050505050565b60048110610c8757610c87611149565b9052565b60008151808452815b81811015610cb057602081850181015186830182015201610c94565b81811115610cc15782602083870101525b50601f01601f19169290920160200192915050565b6001600160a01b0391909116815260200190565b6001600160a01b03929092168252602082015260400190565b6001600160a01b039390931683526020830191909152604082015260600190565b600060018060a01b038f1682528d60208301528c60408301528b60608301528a60808301528960a08301526101a060c0830152610d656101a083018a610c8b565b82810360e0840152610d77818a610c8b565b9050610d87610100840189610c77565b86610120840152828103610140840152610da18187610c8b565b610160840195909552505061018001529b9a5050505050505050505050565b6020810160028310610dd457610dd4611149565b91905290565b60208101610de88284610c77565b92915050565b600060208252610e016020830184610c8b565b9392505050565b600060408252610e1b6040830185610c8b565b90508260208301529392505050565b6020808252602f908201527f43616d706169676e2063616e6e6f7420626520656e6465642c20646561646c6960408201526e3732903737ba103932b0b1b432b21760891b606082015260800190565b60208082526025908201527f496e76616c69642073746174652e2043616e6e6f742061626f72742063616d7060408201526430b4b3b71760d91b606082015260800190565b60208082526030908201527f596f7520646f6e7420686176652061636365737320746f20706572666f726d2060408201526f74686973206f7065726174696f6e202160801b606082015260800190565b6020808252604f908201527f476f616c206e6f7420726561636865642c20616d6f756e742063616e6e6f742060408201527f62652077697468647261776e2e20506c656173652061626f727420746f20726560608201526e66756e6420746f206261636b65727360881b608082015260a00190565b6020808252600d908201526c496e76616c696420737461746560981b604082015260600190565b6020808252818101527f436f6e747269627574696f6e20616d6f756e7420697320746f6f206c6f772021604082015260600190565b60208082526048908201527f536f727279206261636b65722c20646561646c696e652068617320706173736560408201527f6421204e6f20636f6e747269627574696f6e732063616e2062652061636365706060820152673a32b2103737bb9760c11b608082015260a00190565b6020808252602c908201527f43616d706169676e2063616e6e6f742062652061626f727465642c206465616460408201526b3634b732903830b9b9b2b21760a11b606082015260800190565b90815260200190565b918252602082015260400190565b600082198211156110c3576110c3611133565b500190565b6002810460018216806110dc57607f821691505b602082108114156110fd57634e487b7160e01b600052602260045260246000fd5b50919050565b60006001600160ff1b0382141561111c5761111c611133565b5060010190565b600060001982141561111c5761111c5b634e487b7160e01b600052601160045260246000fd5b634e487b7160e01b600052602160045260246000fdfea26469706673582212209a25fe179d686cc972bb8d057039b54984121d81bbb7977a97e7774f739ca1d964736f6c63430008000033a26469706673582212203e3dc63251fa681ed35c4d8796a2031d61f32ed834ae8e919159838ffc4deb9564736f6c63430008000033",
  "linkReferences": {},
  "deployedLinkReferences": {}
}