{
  "_format": "hh-sol-artifact-1",
  "contractName": "Campaign",
  "sourceName": "contracts/Campaign.sol",
  "abi": [
    {
      "inputs": [
        {
          "internalType": "address",
          "name": "_creator",
          "type": "address"
        },
        {
          "internalType": "uint256",
          "name": "_minimumContribution",
          "type": "uint256"
        },
        {
          "internalType": "uint256",
          "name": "_deadline",
          "type": "uint256"
        },
        {
          "internalType": "uint256",
          "name": "_targetContribution",
          "type": "uint256"
        },
        {
          "internalType": "string",
          "name": "_projectTitle",
          "type": "string"
        },
        {
          "internalType": "string",
          "name": "_projectDes",
          "type": "string"
        },
        {
          "internalType": "string",
          "name": "_bannerUrl",
          "type": "string"
        },
        {
          "internalType": "uint256",
          "name": "_campaignSchemeId",
          "type": "uint256"
        }
      ],
      "stateMutability": "nonpayable",
      "type": "constructor"
    },
    {
      "anonymous": false,
      "inputs": [
        {
          "indexed": false,
          "internalType": "address",
          "name": "contributor",
          "type": "address"
        },
        {
          "indexed": false,
          "internalType": "uint256",
          "name": "amountTotal",
          "type": "uint256"
        }
      ],
      "name": "AmountCredited",
      "type": "event"
    },
    {
      "anonymous": false,
      "inputs": [
        {
          "indexed": false,
          "internalType": "uint256",
          "name": "noOfContributors",
          "type": "uint256"
        },
        {
          "indexed": false,
          "internalType": "uint256",
          "name": "amountTotal",
          "type": "uint256"
        }
      ],
      "name": "AmountRefunded",
      "type": "event"
    },
    {
      "anonymous": false,
      "inputs": [
        {
          "indexed": false,
          "internalType": "uint256",
          "name": "deadline",
          "type": "uint256"
        },
        {
          "indexed": false,
          "internalType": "uint256",
          "name": "blockTime",
          "type": "uint256"
        }
      ],
      "name": "CampaignCreated",
      "type": "event"
    },
    {
      "anonymous": false,
      "inputs": [
        {
          "indexed": false,
          "internalType": "address",
          "name": "contributor",
          "type": "address"
        },
        {
          "indexed": false,
          "internalType": "uint256",
          "name": "amount",
          "type": "uint256"
        },
        {
          "indexed": false,
          "internalType": "uint256",
          "name": "currentTotal",
          "type": "uint256"
        }
      ],
      "name": "FundingReceived",
      "type": "event"
    },
    {
      "inputs": [],
      "name": "abortCampaignAndRefund",
      "outputs": [],
      "stateMutability": "payable",
      "type": "function"
    },
    {
      "inputs": [],
      "name": "bannerUrl",
      "outputs": [
        {
          "internalType": "string",
          "name": "",
          "type": "string"
        }
      ],
      "stateMutability": "view",
      "type": "function"
    },
    {
      "inputs": [],
      "name": "campaignSchemeId",
      "outputs": [
        {
          "internalType": "enum SchemeRegistry.SchemeType",
          "name": "",
          "type": "uint8"
        }
      ],
      "stateMutability": "view",
      "type": "function"
    },
    {
      "inputs": [],
      "name": "contribute",
      "outputs": [],
      "stateMutability": "payable",
      "type": "function"
    },
    {
      "inputs": [],
      "name": "creator",
      "outputs": [
        {
          "internalType": "address payable",
          "name": "",
          "type": "address"
        }
      ],
      "stateMutability": "view",
      "type": "function"
    },
    {
      "inputs": [],
      "name": "deadline",
      "outputs": [
        {
          "internalType": "uint256",
          "name": "",
          "type": "uint256"
        }
      ],
      "stateMutability": "view",
      "type": "function"
    },
    {
      "inputs": [],
      "name": "endCampaignAndCredit",
      "outputs": [],
      "stateMutability": "payable",
      "type": "function"
    },
    {
      "inputs": [],
      "name": "getCampaignSummary",
      "outputs": [
        {
          "internalType": "address payable",
          "name": "projectStarter",
          "type": "address"
        },
        {
          "internalType": "uint256",
          "name": "minContribution",
          "type": "uint256"
        },
        {
          "internalType": "uint256",
          "name": "projectDeadline",
          "type": "uint256"
        },
        {
          "internalType": "uint256",
          "name": "goalAmount",
          "type": "uint256"
        },
        {
          "internalType": "uint256",
          "name": "completedTime",
          "type": "uint256"
        },
        {
          "internalType": "uint256",
          "name": "currentAmount",
          "type": "uint256"
        },
        {
          "internalType": "string",
          "name": "title",
          "type": "string"
        },
        {
          "internalType": "string",
          "name": "desc",
          "type": "string"
        },
        {
          "internalType": "enum Campaign.State",
          "name": "currentState",
          "type": "uint8"
        },
        {
          "internalType": "uint256",
          "name": "balance",
          "type": "uint256"
        },
        {
          "internalType": "string",
          "name": "imageUrl",
          "type": "string"
        },
        {
          "internalType": "uint256",
          "name": "numBackers",
          "type": "uint256"
        },
        {
          "internalType": "uint256",
          "name": "schemeId",
          "type": "uint256"
        }
      ],
      "stateMutability": "view",
      "type": "function"
    },
    {
      "inputs": [],
      "name": "getContractBalance",
      "outputs": [
        {
          "internalType": "uint256",
          "name": "",
          "type": "uint256"
        }
      ],
      "stateMutability": "view",
      "type": "function"
    },
    {
      "inputs": [],
      "name": "minimumContribution",
      "outputs": [
        {
          "internalType": "uint256",
          "name": "",
          "type": "uint256"
        }
      ],
      "stateMutability": "view",
      "type": "function"
    },
    {
      "inputs": [],
      "name": "noOfContributors",
      "outputs": [
        {
          "internalType": "uint256",
          "name": "",
          "type": "uint256"
        }
      ],
      "stateMutability": "view",
      "type": "function"
    },
    {
      "inputs": [],
      "name": "projectDes",
      "outputs": [
        {
          "internalType": "string",
          "name": "",
          "type": "string"
        }
      ],
      "stateMutability": "view",
      "type": "function"
    },
    {
      "inputs": [],
      "name": "projectTitle",
      "outputs": [
        {
          "internalType": "string",
          "name": "",
          "type": "string"
        }
      ],
      "stateMutability": "view",
      "type": "function"
    },
    {
      "inputs": [],
      "name": "raisedAmount",
      "outputs": [
        {
          "internalType": "uint256",
          "name": "",
          "type": "uint256"
        }
      ],
      "stateMutability": "view",
      "type": "function"
    },
    {
      "inputs": [],
      "name": "reachedTargetAt",
      "outputs": [
        {
          "internalType": "uint256",
          "name": "",
          "type": "uint256"
        }
      ],
      "stateMutability": "view",
      "type": "function"
    },
    {
      "inputs": [],
      "name": "state",
      "outputs": [
        {
          "internalType": "enum Campaign.State",
          "name": "",
          "type": "uint8"
        }
      ],
      "stateMutability": "view",
      "type": "function"
    },
    {
      "inputs": [],
      "name": "targetContribution",
      "outputs": [
        {
          "internalType": "uint256",
          "name": "",
          "type": "uint256"
        }
      ],
      "stateMutability": "view",
      "type": "function"
    }
  ],
  "bytecode": "0x6080604052600a805460ff191690553480156200001b57600080fd5b5060405162001894380380620018948339810160408190526200003e9162000486565b7fdf1ccadd90c8987aa73568b11e0c57744db13dccf98de0a82f2b9bc6edb3d104864260405162000071929190620006a1565b60405180910390a160028110620000a55760405162461bcd60e51b81526004016200009c906200066d565b60405180910390fd5b620000e46040518060400160405280601081526020016f213637b1b5903a34b6b2b9ba30b6b81d60811b81525042620002c860201b62000b261760201c565b620001226040518060400160405280600f81526020016e23b4bb32b7103232b0b23634b7329d60891b81525087620002c860201b62000b261760201c565b428611620001445760405162461bcd60e51b81526004016200009c9062000636565b60008711620001675760405162461bcd60e51b81526004016200009c90620005b4565b600085116200018a5760405162461bcd60e51b81526004016200009c90620005ff565b600080546001600160a01b0319166001600160a01b038a161790556001879055600286905560038590558351620001c99060079060208701906200033a565b508251620001df9060089060208601906200033a565b5060006005558151620001fa9060099060208501906200033a565b5060405163381f630d60e21b815273__$d442c21bd724c71f0a4795b5d30681cc24$__9063e07d8c34906200023490849060040162000698565b60206040518083038186803b1580156200024d57600080fd5b505af415801562000262573d6000803e3d6000fd5b505050506040513d601f19601f820116820180604052508101906200028891906200054f565b600a805461ff001916610100836001811115620002b557634e487b7160e01b600052602160045260246000fd5b0217905550505050505050505062000735565b620003158282604051602401620002e192919062000577565b60408051601f198184030181529190526020810180516001600160e01b03908116632d839cb360e21b179091526200031916565b5050565b80516a636f6e736f6c652e6c6f67602083016000808483855afa5050505050565b8280546200034890620006e2565b90600052602060002090601f0160209004810192826200036c5760008555620003b7565b82601f106200038757805160ff1916838001178555620003b7565b82800160010185558215620003b7579182015b82811115620003b75782518255916020019190600101906200039a565b50620003c5929150620003c9565b5090565b5b80821115620003c55760008155600101620003ca565b80516001600160a01b0381168114620003f857600080fd5b919050565b600082601f8301126200040e578081fd5b81516001600160401b03808211156200042b576200042b6200071f565b604051601f8301601f1916810160200182811182821017156200045257620004526200071f565b6040528281528483016020018610156200046a578384fd5b6200047d836020830160208801620006af565b95945050505050565b600080600080600080600080610100898b031215620004a3578384fd5b620004ae89620003e0565b60208a015160408b015160608c015160808d0151939b50919950975095506001600160401b0380821115620004e1578586fd5b620004ef8c838d01620003fd565b955060a08b015191508082111562000505578485fd5b620005138c838d01620003fd565b945060c08b015191508082111562000529578384fd5b50620005388b828c01620003fd565b92505060e089015190509295985092959890939650565b60006020828403121562000561578081fd5b81516002811062000570578182fd5b9392505050565b600060408252835180604084015262000598816060850160208801620006af565b602083019390935250601f91909101601f191601606001919050565b6020808252602b908201527f4d696e696d756d20636f6e747269627574696f6e206d7573742062652067726560408201526a061746572207468616e20360ac1b606082015260800190565b6020808252601d908201527f546172676574206d7573742062652067726561746572207468616e2030000000604082015260600190565b6020808252601e908201527f446561646c696e65206d75737420626520696e20746865206675747572650000604082015260600190565b602080825260119082015270125b9d985b1a59081cd8da195b59481a59607a1b604082015260600190565b90815260200190565b918252602082015260400190565b60005b83811015620006cc578181015183820152602001620006b2565b83811115620006dc576000848401525b50505050565b600281046001821680620006f757607f821691505b602082108114156200071957634e487b7160e01b600052602260045260246000fd5b50919050565b634e487b7160e01b600052604160045260246000fd5b61114f80620007456000396000f3fe6080604052600436106100fe5760003560e01c80638d27289e11610095578063b82c86d611610064578063b82c86d61461023d578063c19d93fb14610252578063c3e20c9f14610274578063c59ee1dc14610289578063d7bb99ba1461029e576100fe565b80638d27289e146101dd578063937e09b1146101e55780639d43b9b5146101fa578063a00c96d71461020f576100fe565b80634e260f6f116100d15780634e260f6f1461017c5780636eef7d95146101915780636f9fb98a146101b35780637a9a8055146101c8576100fe565b806302d05d3f1461010357806303c29d581461012e57806329dcb0cf146101505780633d0300bd14610172575b600080fd5b34801561010f57600080fd5b506101186102a6565b6040516101259190610c90565b60405180910390f35b34801561013a57600080fd5b506101436102b5565b6040516101259190610da8565b34801561015c57600080fd5b50610165610343565b6040516101259190611053565b61017a610349565b005b34801561018857600080fd5b50610165610474565b34801561019d57600080fd5b506101a661047a565b6040516101259190610d7a565b3480156101bf57600080fd5b50610165610488565b3480156101d457600080fd5b5061014361048c565b61017a610499565b3480156101f157600080fd5b5061016561069f565b34801561020657600080fd5b506101656106a5565b34801561021b57600080fd5b506102246106ab565b6040516101259d9c9b9a99989796959493929190610cde565b34801561024957600080fd5b506101656108e0565b34801561025e57600080fd5b506102676108e6565b6040516101259190610d94565b34801561028057600080fd5b506101436108ef565b34801561029557600080fd5b506101656108fc565b61017a610902565b6000546001600160a01b031681565b600880546102c290611082565b80601f01602080910402602001604051908101604052809291908181526020018280546102ee90611082565b801561033b5780601f106103105761010080835404028352916020019161033b565b820191906000526020600020905b81548152906001019060200180831161031e57829003601f168201915b505050505081565b60025481565b6000546001600160a01b0316331461037c5760405162461bcd60e51b815260040161037390610e78565b60405180910390fd5b6001600a5460ff1660038111156103a357634e487b7160e01b600052602160045260246000fd5b146103c05760405162461bcd60e51b815260040161037390610ec8565b60025442106103e15760405162461bcd60e51b815260040161037390610de4565b600080546005546040516001600160a01b039092169281156108fc029290818181858888f1935050505015801561041c573d6000803e3d6000fd5b50600a805460ff191660021790556000546005546040517fc364254574c58e1bdd9077b0e35e609ee391ca636748a275674d5fb5bdc1d3f69261046a926001600160a01b0390911691610ca4565b60405180910390a1565b60065481565b600a54610100900460ff1681565b4790565b600980546102c290611082565b6000546001600160a01b031633146104c35760405162461bcd60e51b815260040161037390610e78565b60025442106104e45760405162461bcd60e51b815260040161037390611007565b6000600a5460ff16600381111561050b57634e487b7160e01b600052602160045260246000fd5b148061053b57506001600a5460ff16600381111561053957634e487b7160e01b600052602160045260246000fd5b145b6105575760405162461bcd60e51b815260040161037390610e33565b60005b60065481101561065b57600b818154811061058557634e487b7160e01b600052603260045260246000fd5b6000918252602090912060029091020154600b80546001600160a01b03909216916108fc9190849081106105c957634e487b7160e01b600052603260045260246000fd5b9060005260206000209060020201600101549081150290604051600060405180830381858888f19350505050158015610606573d6000803e3d6000fd5b50600b818154811061062857634e487b7160e01b600052603260045260246000fd5b60009182526020822060029091020180546001600160a01b03191681556001015580610653816110dd565b91505061055a565b50600a805460ff191660031790556006546005546040517fd69eae259b3e1e42f22f60a8a54dbf4d1983d006a10d5f36c068ccc87eb493919261046a92909161105c565b60015481565b60045481565b60008054600154600254600354600454600554600780546001600160a01b0390971697959694959394929391926060928392909182918491839182916106f090611082565b80601f016020809104026020016040519081016040528092919081815260200182805461071c90611082565b80156107695780601f1061073e57610100808354040283529160200191610769565b820191906000526020600020905b81548152906001019060200180831161074c57829003601f168201915b505050505096506008805461077d90611082565b80601f01602080910402602001604051908101604052809291908181526020018280546107a990611082565b80156107f65780601f106107cb576101008083540402835291602001916107f6565b820191906000526020600020905b8154815290600101906020018083116107d957829003601f168201915b5050600a5460098054959b5060ff90911699504798509361081b935091506110829050565b80601f016020809104026020016040519081016040528092919081815260200182805461084790611082565b80156108945780601f1061086957610100808354040283529160200191610894565b820191906000526020600020905b81548152906001019060200180831161087757829003601f168201915b505050505092506006549150600a60019054906101000a900460ff1660018111156108cf57634e487b7160e01b600052602160045260246000fd5b9050909192939495969798999a9b9c565b60035481565b600a5460ff1681565b600780546102c290611082565b60055481565b6000600a5460ff16600381111561092957634e487b7160e01b600052602160045260246000fd5b148061095957506001600a5460ff16600381111561095757634e487b7160e01b600052602160045260246000fd5b145b6109755760405162461bcd60e51b815260040161037390610f3d565b60025442106109965760405162461bcd60e51b815260040161037390610f99565b6001543410156109b85760405162461bcd60e51b815260040161037390610f64565b3360006109c482610b6b565b9050806000191415610a7e57600680549060006109e0836110dd565b9091555050604080518082019091526001600160a01b0383811682523460208301908152600b805460018101825560009190915292517f0175b7a638427703f0dbe7bb9bbf987a2551717b34e79f33b5b1008d1fa01db9600290940293840180546001600160a01b0319169190931617909155517f0175b7a638427703f0dbe7bb9bbf987a2551717b34e79f33b5b1008d1fa01dba90910155610ac6565b34600b8281548110610aa057634e487b7160e01b600052603260045260246000fd5b90600052602060002090600202016001016000828254610ac0919061106a565b90915550505b3460056000828254610ad8919061106a565b90915550506005546040517f5cdc4ab8d637538ead6cc1904d4160343656c8c82bd266635cfd31ac008fffe091610b129185913491610cbd565b60405180910390a1610b22610be2565b5050565b610b228282604051602401610b3c929190610dc2565b60408051601f198184030181529190526020810180516001600160e01b0316632d839cb360e21b179052610c10565b6000600019815b600654811215610bdb57600b8181548110610b9d57634e487b7160e01b600052603260045260246000fd5b60009182526020909120600290910201546001600160a01b0385811691161415610bc957809150610bdb565b80610bd3816110bd565b915050610b72565b5092915050565b60035460055410158015610bf7575060025442105b15610c0e57600a805460ff19166001179055426004555b565b80516a636f6e736f6c652e6c6f67602083016000808483855afa5050505050565b60048110610c4157610c41611103565b9052565b60008151808452815b81811015610c6a57602081850181015186830182015201610c4e565b81811115610c7b5782602083870101525b50601f01601f19169290920160200192915050565b6001600160a01b0391909116815260200190565b6001600160a01b03929092168252602082015260400190565b6001600160a01b039390931683526020830191909152604082015260600190565b600060018060a01b038f1682528d60208301528c60408301528b60608301528a60808301528960a08301526101a060c0830152610d1f6101a083018a610c45565b82810360e0840152610d31818a610c45565b9050610d41610100840189610c31565b86610120840152828103610140840152610d5b8187610c45565b610160840195909552505061018001529b9a5050505050505050505050565b6020810160028310610d8e57610d8e611103565b91905290565b60208101610da28284610c31565b92915050565b600060208252610dbb6020830184610c45565b9392505050565b600060408252610dd56040830185610c45565b90508260208301529392505050565b6020808252602f908201527f43616d706169676e2063616e6e6f7420626520656e6465642c20646561646c6960408201526e3732903737ba103932b0b1b432b21760891b606082015260800190565b60208082526025908201527f496e76616c69642073746174652e2043616e6e6f742061626f72742063616d7060408201526430b4b3b71760d91b606082015260800190565b60208082526030908201527f596f7520646f6e7420686176652061636365737320746f20706572666f726d2060408201526f74686973206f7065726174696f6e202160801b606082015260800190565b6020808252604f908201527f476f616c206e6f7420726561636865642c20616d6f756e742063616e6e6f742060408201527f62652077697468647261776e2e20506c656173652061626f727420746f20726560608201526e66756e6420746f206261636b65727360881b608082015260a00190565b6020808252600d908201526c496e76616c696420737461746560981b604082015260600190565b6020808252818101527f436f6e747269627574696f6e20616d6f756e7420697320746f6f206c6f772021604082015260600190565b60208082526048908201527f536f727279206261636b65722c20646561646c696e652068617320706173736560408201527f6421204e6f20636f6e747269627574696f6e732063616e2062652061636365706060820152673a32b2103737bb9760c11b608082015260a00190565b6020808252602c908201527f43616d706169676e2063616e6e6f742062652061626f727465642c206465616460408201526b3634b732903830b9b9b2b21760a11b606082015260800190565b90815260200190565b918252602082015260400190565b6000821982111561107d5761107d6110ed565b500190565b60028104600182168061109657607f821691505b602082108114156110b757634e487b7160e01b600052602260045260246000fd5b50919050565b60006001600160ff1b038214156110d6576110d66110ed565b5060010190565b60006000198214156110d6576110d65b634e487b7160e01b600052601160045260246000fd5b634e487b7160e01b600052602160045260246000fdfea2646970667358221220a9a1557e65cab23d8251d2b45c5092e780aaf1de4299d8ecc38b153fd350e2a864736f6c63430008000033",
  "linkReferences": {
    "contracts/SchemeRegistry.sol": {
      "SchemeRegistry": [
        {
          "length": 20,
          "start": 522
        }
      ]
    }
  },
  "deployedLinkReferences": {}
}